{
  "_format": "hh-sol-artifact-1",
  "contractName": "FamilyRegistry",
  "sourceName": "solidity/FamilyRegistry.sol",
  "abi": [
    {
      "anonymous": false,
      "inputs": [
        {
          "indexed": true,
          "internalType": "uint256",
          "name": "familyId",
          "type": "uint256"
        },
        {
          "indexed": true,
          "internalType": "address",
          "name": "childAddress",
          "type": "address"
        },
        {
          "indexed": false,
          "internalType": "string",
          "name": "name",
          "type": "string"
        },
        {
          "indexed": false,
          "internalType": "uint8",
          "name": "age",
          "type": "uint8"
        }
      ],
      "name": "ChildAdded",
      "type": "event"
    },
    {
      "anonymous": false,
      "inputs": [
        {
          "indexed": true,
          "internalType": "uint256",
          "name": "familyId",
          "type": "uint256"
        },
        {
          "indexed": true,
          "internalType": "address",
          "name": "childAddress",
          "type": "address"
        }
      ],
      "name": "ChildRemoved",
      "type": "event"
    },
    {
      "anonymous": false,
      "inputs": [
        {
          "indexed": true,
          "internalType": "uint256",
          "name": "familyId",
          "type": "uint256"
        },
        {
          "indexed": true,
          "internalType": "address",
          "name": "parent",
          "type": "address"
        },
        {
          "indexed": false,
          "internalType": "string",
          "name": "name",
          "type": "string"
        }
      ],
      "name": "FamilyCreated",
      "type": "event"
    },
    {
      "anonymous": false,
      "inputs": [
        {
          "indexed": true,
          "internalType": "uint256",
          "name": "familyId",
          "type": "uint256"
        },
        {
          "indexed": false,
          "internalType": "string",
          "name": "name",
          "type": "string"
        }
      ],
      "name": "FamilyUpdated",
      "type": "event"
    },
    {
      "inputs": [
        {
          "internalType": "uint256",
          "name": "familyId",
          "type": "uint256"
        },
        {
          "internalType": "address",
          "name": "childAddress",
          "type": "address"
        },
        {
          "internalType": "string",
          "name": "name",
          "type": "string"
        },
        {
          "internalType": "uint8",
          "name": "age",
          "type": "uint8"
        }
      ],
      "name": "addChild",
      "outputs": [],
      "stateMutability": "nonpayable",
      "type": "function"
    },
    {
      "inputs": [
        {
          "internalType": "address",
          "name": "",
          "type": "address"
        }
      ],
      "name": "childToFamily",
      "outputs": [
        {
          "internalType": "uint256",
          "name": "",
          "type": "uint256"
        }
      ],
      "stateMutability": "view",
      "type": "function"
    },
    {
      "inputs": [
        {
          "internalType": "string",
          "name": "name",
          "type": "string"
        }
      ],
      "name": "createFamily",
      "outputs": [
        {
          "internalType": "uint256",
          "name": "",
          "type": "uint256"
        }
      ],
      "stateMutability": "nonpayable",
      "type": "function"
    },
    {
      "inputs": [
        {
          "internalType": "uint256",
          "name": "",
          "type": "uint256"
        }
      ],
      "name": "families",
      "outputs": [
        {
          "internalType": "uint256",
          "name": "id",
          "type": "uint256"
        },
        {
          "internalType": "address",
          "name": "parent",
          "type": "address"
        },
        {
          "internalType": "string",
          "name": "name",
          "type": "string"
        },
        {
          "internalType": "bool",
          "name": "active",
          "type": "bool"
        }
      ],
      "stateMutability": "view",
      "type": "function"
    },
    {
      "inputs": [],
      "name": "familyCount",
      "outputs": [
        {
          "internalType": "uint256",
          "name": "",
          "type": "uint256"
        }
      ],
      "stateMutability": "view",
      "type": "function"
    },
    {
      "inputs": [
        {
          "internalType": "uint256",
          "name": "familyId",
          "type": "uint256"
        },
        {
          "internalType": "address",
          "name": "childAddress",
          "type": "address"
        }
      ],
      "name": "getChild",
      "outputs": [
        {
          "internalType": "address",
          "name": "",
          "type": "address"
        },
        {
          "internalType": "string",
          "name": "",
          "type": "string"
        },
        {
          "internalType": "uint8",
          "name": "",
          "type": "uint8"
        },
        {
          "internalType": "bool",
          "name": "",
          "type": "bool"
        }
      ],
      "stateMutability": "view",
      "type": "function"
    },
    {
      "inputs": [
        {
          "internalType": "uint256",
          "name": "familyId",
          "type": "uint256"
        },
        {
          "internalType": "uint256",
          "name": "index",
          "type": "uint256"
        }
      ],
      "name": "getChildAddressByIndex",
      "outputs": [
        {
          "internalType": "address",
          "name": "",
          "type": "address"
        }
      ],
      "stateMutability": "view",
      "type": "function"
    },
    {
      "inputs": [
        {
          "internalType": "uint256",
          "name": "familyId",
          "type": "uint256"
        }
      ],
      "name": "getChildCount",
      "outputs": [
        {
          "internalType": "uint256",
          "name": "",
          "type": "uint256"
        }
      ],
      "stateMutability": "view",
      "type": "function"
    },
    {
      "inputs": [
        {
          "internalType": "address",
          "name": "account",
          "type": "address"
        }
      ],
      "name": "isChild",
      "outputs": [
        {
          "internalType": "bool",
          "name": "",
          "type": "bool"
        }
      ],
      "stateMutability": "view",
      "type": "function"
    },
    {
      "inputs": [
        {
          "internalType": "address",
          "name": "account",
          "type": "address"
        }
      ],
      "name": "isParent",
      "outputs": [
        {
          "internalType": "bool",
          "name": "",
          "type": "bool"
        }
      ],
      "stateMutability": "view",
      "type": "function"
    },
    {
      "inputs": [
        {
          "internalType": "address",
          "name": "",
          "type": "address"
        },
        {
          "internalType": "uint256",
          "name": "",
          "type": "uint256"
        }
      ],
      "name": "parentFamilies",
      "outputs": [
        {
          "internalType": "uint256",
          "name": "",
          "type": "uint256"
        }
      ],
      "stateMutability": "view",
      "type": "function"
    },
    {
      "inputs": [
        {
          "internalType": "uint256",
          "name": "familyId",
          "type": "uint256"
        },
        {
          "internalType": "address",
          "name": "childAddress",
          "type": "address"
        }
      ],
      "name": "removeChild",
      "outputs": [],
      "stateMutability": "nonpayable",
      "type": "function"
    },
    {
      "inputs": [
        {
          "internalType": "uint256",
          "name": "familyId",
          "type": "uint256"
        },
        {
          "internalType": "string",
          "name": "name",
          "type": "string"
        }
      ],
      "name": "updateFamily",
      "outputs": [],
      "stateMutability": "nonpayable",
      "type": "function"
    }
  ],
  "bytecode": "0x6080604052600060035534801561001557600080fd5b50611d96806100256000396000f3fe608060405234801561001057600080fd5b50600436106100cf5760003560e01c806382ef100f1161008c5780639fa1140c116100665780639fa1140c1461024d578063d083e40914610280578063fc91a8971461029c578063ffa65a20146102cc576100cf565b806382ef100f146101d157806387a69a7c146102015780639f9cc6a31461021d576100cf565b8063078beae5146100d45780630814ff13146101075780635e2ad09b1461013757806374956e7814610167578063784f7a93146101835780637a77af5c146101a1575b600080fd5b6100ee60048036038101906100e9919061107b565b6102fc565b6040516100fe94939291906111a3565b60405180910390f35b610121600480360381019061011c919061121b565b6103e1565b60405161012e9190611248565b60405180910390f35b610151600480360381019061014c9190611263565b61042f565b60405161015e91906112a3565b60405180910390f35b610181600480360381019061017c919061142c565b610460565b005b61018b61082e565b60405161019891906112a3565b60405180910390f35b6101bb60048036038101906101b6919061107b565b610834565b6040516101c891906112a3565b60405180910390f35b6101eb60048036038101906101e691906114af565b610856565b6040516101f891906114ef565b60405180910390f35b61021b6004803603810190610216919061150a565b61090c565b005b6102376004803603810190610232919061154a565b610bae565b60405161024491906112a3565b60405180910390f35b6102676004803603810190610262919061150a565b610d21565b60405161027794939291906115a2565b60405180910390f35b61029a600480360381019061029591906115ee565b610e69565b005b6102b660048036038101906102b1919061121b565b610fcd565b6040516102c39190611248565b60405180910390f35b6102e660048036038101906102e1919061121b565b611019565b6040516102f391906112a3565b60405180910390f35b60006020528060005260406000206000915090508060000154908060010160009054906101000a900473ffffffffffffffffffffffffffffffffffffffff169080600201805461034b90611679565b80601f016020809104026020016040519081016040528092919081815260200182805461037790611679565b80156103c45780601f10610399576101008083540402835291602001916103c4565b820191906000526020600020905b8154815290600101906020018083116103a757829003601f168201915b5050505050908060030160009054906101000a900460ff16905084565b600080600160008473ffffffffffffffffffffffffffffffffffffffff1673ffffffffffffffffffffffffffffffffffffffff16815260200190815260200160002080549050119050919050565b6001602052816000526040600020818154811061044b57600080fd5b90600052602060002001600091509150505481565b3373ffffffffffffffffffffffffffffffffffffffff1660008086815260200190815260200160002060010160009054906101000a900473ffffffffffffffffffffffffffffffffffffffff1673ffffffffffffffffffffffffffffffffffffffff1614610503576040517f08c379a00000000000000000000000000000000000000000000000000000000081526004016104fa906116f6565b60405180910390fd5b60008085815260200190815260200160002060030160009054906101000a900460ff16610565576040517f08c379a000000000000000000000000000000000000000000000000000000000815260040161055c90611762565b60405180910390fd5b6000600260008573ffffffffffffffffffffffffffffffffffffffff1673ffffffffffffffffffffffffffffffffffffffff16815260200190815260200160002054146105e7576040517f08c379a00000000000000000000000000000000000000000000000000000000081526004016105de906117f4565b60405180910390fd5b600060405180608001604052808573ffffffffffffffffffffffffffffffffffffffff1681526020018481526020018360ff1681526020016001151581525090508060008087815260200190815260200160002060040160008673ffffffffffffffffffffffffffffffffffffffff1673ffffffffffffffffffffffffffffffffffffffff16815260200190815260200160002060008201518160000160006101000a81548173ffffffffffffffffffffffffffffffffffffffff021916908373ffffffffffffffffffffffffffffffffffffffff16021790555060208201518160010190816106d791906119c0565b5060408201518160020160006101000a81548160ff021916908360ff16021790555060608201518160020160016101000a81548160ff021916908315150217905550905050600080868152602001908152602001600020600501849080600181540180825580915050600190039060005260206000200160009091909190916101000a81548173ffffffffffffffffffffffffffffffffffffffff021916908373ffffffffffffffffffffffffffffffffffffffff16021790555084600260008673ffffffffffffffffffffffffffffffffffffffff1673ffffffffffffffffffffffffffffffffffffffff168152602001908152602001600020819055508373ffffffffffffffffffffffffffffffffffffffff16857fd9873979ce5fb9532e10a8a7b8abff463d0ec206b4de1c4bd377527f47725600858560405161081f929190611a92565b60405180910390a35050505050565b60035481565b6000806000838152602001908152602001600020600501805490509050919050565b60008060008481526020019081526020016000206005018054905082106108b2576040517f08c379a00000000000000000000000000000000000000000000000000000000081526004016108a990611b0e565b60405180910390fd5b60008084815260200190815260200160002060050182815481106108d9576108d8611b2e565b5b9060005260206000200160009054906101000a900473ffffffffffffffffffffffffffffffffffffffff16905092915050565b3373ffffffffffffffffffffffffffffffffffffffff1660008084815260200190815260200160002060010160009054906101000a900473ffffffffffffffffffffffffffffffffffffffff1673ffffffffffffffffffffffffffffffffffffffff16146109af576040517f08c379a00000000000000000000000000000000000000000000000000000000081526004016109a690611ba9565b60405180910390fd5b60008083815260200190815260200160002060030160009054906101000a900460ff16610a11576040517f08c379a0000000000000000000000000000000000000000000000000000000008152600401610a0890611762565b60405180910390fd5b60008083815260200190815260200160002060040160008273ffffffffffffffffffffffffffffffffffffffff1673ffffffffffffffffffffffffffffffffffffffff16815260200190815260200160002060020160019054906101000a900460ff16610ab3576040517f08c379a0000000000000000000000000000000000000000000000000000000008152600401610aaa90611c3b565b60405180910390fd5b600080600084815260200190815260200160002060040160008373ffffffffffffffffffffffffffffffffffffffff1673ffffffffffffffffffffffffffffffffffffffff16815260200190815260200160002060020160016101000a81548160ff0219169083151502179055506000600260008373ffffffffffffffffffffffffffffffffffffffff1673ffffffffffffffffffffffffffffffffffffffff168152602001908152602001600020819055508073ffffffffffffffffffffffffffffffffffffffff16827fba3641578d2900570c01f205ed35c07faca7ec9dac0e9e4f69b7d43fd303466860405160405180910390a35050565b600060036000815480929190610bc390611c8a565b91905055506000806000600354815260200190815260200160002090506003548160000181905550338160010160006101000a81548173ffffffffffffffffffffffffffffffffffffffff021916908373ffffffffffffffffffffffffffffffffffffffff16021790555082816002019081610c3f91906119c0565b5060018160030160006101000a81548160ff021916908315150217905550600160003373ffffffffffffffffffffffffffffffffffffffff1673ffffffffffffffffffffffffffffffffffffffff16815260200190815260200160002060035490806001815401808255809150506001900390600052602060002001600090919091909150553373ffffffffffffffffffffffffffffffffffffffff166003547fd7bd94563e5293bf92f0e48f697f09a7113742a3c029967ccbcd686cfadd0cbc85604051610d0e9190611cd2565b60405180910390a3600354915050919050565b60006060600080600080600088815260200190815260200160002060040160008773ffffffffffffffffffffffffffffffffffffffff1673ffffffffffffffffffffffffffffffffffffffff16815260200190815260200160002090508060000160009054906101000a900473ffffffffffffffffffffffffffffffffffffffff16816001018260020160009054906101000a900460ff168360020160019054906101000a900460ff16828054610dd790611679565b80601f0160208091040260200160405190810160405280929190818152602001828054610e0390611679565b8015610e505780601f10610e2557610100808354040283529160200191610e50565b820191906000526020600020905b815481529060010190602001808311610e3357829003601f168201915b5050505050925094509450945094505092959194509250565b3373ffffffffffffffffffffffffffffffffffffffff1660008084815260200190815260200160002060010160009054906101000a900473ffffffffffffffffffffffffffffffffffffffff1673ffffffffffffffffffffffffffffffffffffffff1614610f0c576040517f08c379a0000000000000000000000000000000000000000000000000000000008152600401610f0390611d40565b60405180910390fd5b60008083815260200190815260200160002060030160009054906101000a900460ff16610f6e576040517f08c379a0000000000000000000000000000000000000000000000000000000008152600401610f6590611762565b60405180910390fd5b806000808481526020019081526020016000206002019081610f9091906119c0565b50817f0111fc39a759d49b242d0f2a9db604740d45eae5a48cdb344cdff4ec3237ed0a82604051610fc19190611cd2565b60405180910390a25050565b600080600260008473ffffffffffffffffffffffffffffffffffffffff1673ffffffffffffffffffffffffffffffffffffffff1681526020019081526020016000205414159050919050565b60026020528060005260406000206000915090505481565b6000604051905090565b600080fd5b600080fd5b6000819050919050565b61105881611045565b811461106357600080fd5b50565b6000813590506110758161104f565b92915050565b6000602082840312156110915761109061103b565b5b600061109f84828501611066565b91505092915050565b6110b181611045565b82525050565b600073ffffffffffffffffffffffffffffffffffffffff82169050919050565b60006110e2826110b7565b9050919050565b6110f2816110d7565b82525050565b600081519050919050565b600082825260208201905092915050565b60005b83811015611132578082015181840152602081019050611117565b60008484015250505050565b6000601f19601f8301169050919050565b600061115a826110f8565b6111648185611103565b9350611174818560208601611114565b61117d8161113e565b840191505092915050565b60008115159050919050565b61119d81611188565b82525050565b60006080820190506111b860008301876110a8565b6111c560208301866110e9565b81810360408301526111d7818561114f565b90506111e66060830184611194565b95945050505050565b6111f8816110d7565b811461120357600080fd5b50565b600081359050611215816111ef565b92915050565b6000602082840312156112315761123061103b565b5b600061123f84828501611206565b91505092915050565b600060208201905061125d6000830184611194565b92915050565b6000806040838503121561127a5761127961103b565b5b600061128885828601611206565b925050602061129985828601611066565b9150509250929050565b60006020820190506112b860008301846110a8565b92915050565b600080fd5b600080fd5b7f4e487b7100000000000000000000000000000000000000000000000000000000600052604160045260246000fd5b6113008261113e565b810181811067ffffffffffffffff8211171561131f5761131e6112c8565b5b80604052505050565b6000611332611031565b905061133e82826112f7565b919050565b600067ffffffffffffffff82111561135e5761135d6112c8565b5b6113678261113e565b9050602081019050919050565b82818337600083830152505050565b600061139661139184611343565b611328565b9050828152602081018484840111156113b2576113b16112c3565b5b6113bd848285611374565b509392505050565b600082601f8301126113da576113d96112be565b5b81356113ea848260208601611383565b91505092915050565b600060ff82169050919050565b611409816113f3565b811461141457600080fd5b50565b60008135905061142681611400565b92915050565b600080600080608085870312156114465761144561103b565b5b600061145487828801611066565b945050602061146587828801611206565b935050604085013567ffffffffffffffff81111561148657611485611040565b5b611492878288016113c5565b92505060606114a387828801611417565b91505092959194509250565b600080604083850312156114c6576114c561103b565b5b60006114d485828601611066565b92505060206114e585828601611066565b9150509250929050565b600060208201905061150460008301846110e9565b92915050565b600080604083850312156115215761152061103b565b5b600061152f85828601611066565b925050602061154085828601611206565b9150509250929050565b6000602082840312156115605761155f61103b565b5b600082013567ffffffffffffffff81111561157e5761157d611040565b5b61158a848285016113c5565b91505092915050565b61159c816113f3565b82525050565b60006080820190506115b760008301876110e9565b81810360208301526115c9818661114f565b90506115d86040830185611593565b6115e56060830184611194565b95945050505050565b600080604083850312156116055761160461103b565b5b600061161385828601611066565b925050602083013567ffffffffffffffff81111561163457611633611040565b5b611640858286016113c5565b9150509250929050565b7f4e487b7100000000000000000000000000000000000000000000000000000000600052602260045260246000fd5b6000600282049050600182168061169157607f821691505b6020821081036116a4576116a361164a565b5b50919050565b7f4f6e6c7920706172656e742063616e20616464206368696c6472656e00000000600082015250565b60006116e0601c83611103565b91506116eb826116aa565b602082019050919050565b6000602082019050818103600083015261170f816116d3565b9050919050565b7f46616d696c79206973206e6f7420616374697665000000000000000000000000600082015250565b600061174c601483611103565b915061175782611716565b602082019050919050565b6000602082019050818103600083015261177b8161173f565b9050919050565b7f4368696c6420616c7265616479207265676973746572656420696e206120666160008201527f6d696c7900000000000000000000000000000000000000000000000000000000602082015250565b60006117de602483611103565b91506117e982611782565b604082019050919050565b6000602082019050818103600083015261180d816117d1565b9050919050565b60008190508160005260206000209050919050565b60006020601f8301049050919050565b600082821b905092915050565b6000600883026118767fffffffffffffffffffffffffffffffffffffffffffffffffffffffffffffffff82611839565b6118808683611839565b95508019841693508086168417925050509392505050565b6000819050919050565b60006118bd6118b86118b384611045565b611898565b611045565b9050919050565b6000819050919050565b6118d7836118a2565b6118eb6118e3826118c4565b848454611846565b825550505050565b600090565b6119006118f3565b61190b8184846118ce565b505050565b5b8181101561192f576119246000826118f8565b600181019050611911565b5050565b601f8211156119745761194581611814565b61194e84611829565b8101602085101561195d578190505b61197161196985611829565b830182611910565b50505b505050565b600082821c905092915050565b600061199760001984600802611979565b1980831691505092915050565b60006119b08383611986565b9150826002028217905092915050565b6119c9826110f8565b67ffffffffffffffff8111156119e2576119e16112c8565b5b6119ec8254611679565b6119f7828285611933565b600060209050601f831160018114611a2a5760008415611a18578287015190505b611a2285826119a4565b865550611a8a565b601f198416611a3886611814565b60005b82811015611a6057848901518255600182019150602085019450602081019050611a3b565b86831015611a7d5784890151611a79601f891682611986565b8355505b6001600288020188555050505b505050505050565b60006040820190508181036000830152611aac818561114f565b9050611abb6020830184611593565b9392505050565b7f496e646578206f7574206f6620626f756e647300000000000000000000000000600082015250565b6000611af8601383611103565b9150611b0382611ac2565b602082019050919050565b60006020820190508181036000830152611b2781611aeb565b9050919050565b7f4e487b7100000000000000000000000000000000000000000000000000000000600052603260045260246000fd5b7f4f6e6c7920706172656e742063616e2072656d6f7665206368696c6472656e00600082015250565b6000611b93601f83611103565b9150611b9e82611b5d565b602082019050919050565b60006020820190508181036000830152611bc281611b86565b9050919050565b7f4368696c64206973206e6f742061637469766520696e20746869732066616d6960008201527f6c79000000000000000000000000000000000000000000000000000000000000602082015250565b6000611c25602283611103565b9150611c3082611bc9565b604082019050919050565b60006020820190508181036000830152611c5481611c18565b9050919050565b7f4e487b7100000000000000000000000000000000000000000000000000000000600052601160045260246000fd5b6000611c9582611045565b91507fffffffffffffffffffffffffffffffffffffffffffffffffffffffffffffffff8203611cc757611cc6611c5b565b5b600182019050919050565b60006020820190508181036000830152611cec818461114f565b905092915050565b7f4f6e6c7920706172656e742063616e207570646174652066616d696c79000000600082015250565b6000611d2a601d83611103565b9150611d3582611cf4565b602082019050919050565b60006020820190508181036000830152611d5981611d1d565b905091905056fea26469706673582212202750ffffca7f23b0e288fc7e2d41aa4a027046f8cd1501bba1eaffd056bf986c64736f6c63430008140033",
  "linkReferences": {},
  "deployedLinkReferences": {}
}