{
  "_format": "hh-sol-artifact-1",
  "contractName": "RewardRegistry",
  "sourceName": "solidity/RewardRegistry.sol",
  "abi": [
    {
      "inputs": [
        {
          "internalType": "address",
          "name": "_tokenAddress",
          "type": "address"
        }
      ],
      "stateMutability": "nonpayable",
      "type": "constructor"
    },
    {
      "inputs": [
        {
          "internalType": "address",
          "name": "owner",
          "type": "address"
        }
      ],
      "name": "OwnableInvalidOwner",
      "type": "error"
    },
    {
      "inputs": [
        {
          "internalType": "address",
          "name": "account",
          "type": "address"
        }
      ],
      "name": "OwnableUnauthorizedAccount",
      "type": "error"
    },
    {
      "anonymous": false,
      "inputs": [
        {
          "indexed": true,
          "internalType": "uint256",
          "name": "exchangeId",
          "type": "uint256"
        },
        {
          "indexed": true,
          "internalType": "address",
          "name": "parent",
          "type": "address"
        }
      ],
      "name": "ExchangeFulfilled",
      "type": "event"
    },
    {
      "anonymous": false,
      "inputs": [
        {
          "indexed": true,
          "internalType": "address",
          "name": "previousOwner",
          "type": "address"
        },
        {
          "indexed": true,
          "internalType": "address",
          "name": "newOwner",
          "type": "address"
        }
      ],
      "name": "OwnershipTransferred",
      "type": "event"
    },
    {
      "anonymous": false,
      "inputs": [
        {
          "indexed": true,
          "internalType": "uint256",
          "name": "rewardId",
          "type": "uint256"
        },
        {
          "indexed": true,
          "internalType": "address",
          "name": "creator",
          "type": "address"
        },
        {
          "indexed": true,
          "internalType": "uint256",
          "name": "familyId",
          "type": "uint256"
        },
        {
          "indexed": false,
          "internalType": "string",
          "name": "name",
          "type": "string"
        },
        {
          "indexed": false,
          "internalType": "uint256",
          "name": "tokenPrice",
          "type": "uint256"
        }
      ],
      "name": "RewardCreated",
      "type": "event"
    },
    {
      "anonymous": false,
      "inputs": [
        {
          "indexed": true,
          "internalType": "uint256",
          "name": "exchangeId",
          "type": "uint256"
        },
        {
          "indexed": true,
          "internalType": "uint256",
          "name": "rewardId",
          "type": "uint256"
        },
        {
          "indexed": true,
          "internalType": "address",
          "name": "child",
          "type": "address"
        },
        {
          "indexed": false,
          "internalType": "uint256",
          "name": "tokenAmount",
          "type": "uint256"
        }
      ],
      "name": "RewardExchanged",
      "type": "event"
    },
    {
      "anonymous": false,
      "inputs": [
        {
          "indexed": true,
          "internalType": "uint256",
          "name": "rewardId",
          "type": "uint256"
        },
        {
          "indexed": false,
          "internalType": "string",
          "name": "name",
          "type": "string"
        },
        {
          "indexed": false,
          "internalType": "uint256",
          "name": "tokenPrice",
          "type": "uint256"
        },
        {
          "indexed": false,
          "internalType": "bool",
          "name": "active",
          "type": "bool"
        }
      ],
      "name": "RewardUpdated",
      "type": "event"
    },
    {
      "inputs": [
        {
          "internalType": "address",
          "name": "",
          "type": "address"
        },
        {
          "internalType": "uint256",
          "name": "",
          "type": "uint256"
        }
      ],
      "name": "childExchanges",
      "outputs": [
        {
          "internalType": "uint256",
          "name": "",
          "type": "uint256"
        }
      ],
      "stateMutability": "view",
      "type": "function"
    },
    {
      "inputs": [
        {
          "internalType": "uint256",
          "name": "_familyId",
          "type": "uint256"
        },
        {
          "internalType": "string",
          "name": "_name",
          "type": "string"
        },
        {
          "internalType": "string",
          "name": "_description",
          "type": "string"
        },
        {
          "internalType": "string",
          "name": "_imageURI",
          "type": "string"
        },
        {
          "internalType": "uint256",
          "name": "_tokenPrice",
          "type": "uint256"
        },
        {
          "internalType": "uint256",
          "name": "_stock",
          "type": "uint256"
        }
      ],
      "name": "createReward",
      "outputs": [
        {
          "internalType": "uint256",
          "name": "",
          "type": "uint256"
        }
      ],
      "stateMutability": "nonpayable",
      "type": "function"
    },
    {
      "inputs": [],
      "name": "exchangeCount",
      "outputs": [
        {
          "internalType": "uint256",
          "name": "",
          "type": "uint256"
        }
      ],
      "stateMutability": "view",
      "type": "function"
    },
    {
      "inputs": [
        {
          "internalType": "uint256",
          "name": "_rewardId",
          "type": "uint256"
        }
      ],
      "name": "exchangeReward",
      "outputs": [
        {
          "internalType": "uint256",
          "name": "",
          "type": "uint256"
        }
      ],
      "stateMutability": "nonpayable",
      "type": "function"
    },
    {
      "inputs": [
        {
          "internalType": "uint256",
          "name": "",
          "type": "uint256"
        }
      ],
      "name": "exchanges",
      "outputs": [
        {
          "internalType": "uint256",
          "name": "id",
          "type": "uint256"
        },
        {
          "internalType": "uint256",
          "name": "rewardId",
          "type": "uint256"
        },
        {
          "internalType": "address",
          "name": "child",
          "type": "address"
        },
        {
          "internalType": "uint256",
          "name": "tokenAmount",
          "type": "uint256"
        },
        {
          "internalType": "uint256",
          "name": "exchangeDate",
          "type": "uint256"
        },
        {
          "internalType": "bool",
          "name": "fulfilled",
          "type": "bool"
        }
      ],
      "stateMutability": "view",
      "type": "function"
    },
    {
      "inputs": [
        {
          "internalType": "uint256",
          "name": "",
          "type": "uint256"
        },
        {
          "internalType": "uint256",
          "name": "",
          "type": "uint256"
        }
      ],
      "name": "familyRewards",
      "outputs": [
        {
          "internalType": "uint256",
          "name": "",
          "type": "uint256"
        }
      ],
      "stateMutability": "view",
      "type": "function"
    },
    {
      "inputs": [
        {
          "internalType": "uint256",
          "name": "_exchangeId",
          "type": "uint256"
        }
      ],
      "name": "fulfillExchange",
      "outputs": [],
      "stateMutability": "nonpayable",
      "type": "function"
    },
    {
      "inputs": [
        {
          "internalType": "address",
          "name": "_child",
          "type": "address"
        }
      ],
      "name": "getChildExchangeCount",
      "outputs": [
        {
          "internalType": "uint256",
          "name": "",
          "type": "uint256"
        }
      ],
      "stateMutability": "view",
      "type": "function"
    },
    {
      "inputs": [
        {
          "internalType": "address",
          "name": "_child",
          "type": "address"
        },
        {
          "internalType": "uint256",
          "name": "_index",
          "type": "uint256"
        }
      ],
      "name": "getChildExchangeId",
      "outputs": [
        {
          "internalType": "uint256",
          "name": "",
          "type": "uint256"
        }
      ],
      "stateMutability": "view",
      "type": "function"
    },
    {
      "inputs": [
        {
          "internalType": "uint256",
          "name": "_exchangeId",
          "type": "uint256"
        }
      ],
      "name": "getExchange",
      "outputs": [
        {
          "internalType": "uint256",
          "name": "",
          "type": "uint256"
        },
        {
          "internalType": "uint256",
          "name": "",
          "type": "uint256"
        },
        {
          "internalType": "address",
          "name": "",
          "type": "address"
        },
        {
          "internalType": "uint256",
          "name": "",
          "type": "uint256"
        },
        {
          "internalType": "uint256",
          "name": "",
          "type": "uint256"
        },
        {
          "internalType": "bool",
          "name": "",
          "type": "bool"
        }
      ],
      "stateMutability": "view",
      "type": "function"
    },
    {
      "inputs": [
        {
          "internalType": "uint256",
          "name": "_familyId",
          "type": "uint256"
        }
      ],
      "name": "getFamilyRewardCount",
      "outputs": [
        {
          "internalType": "uint256",
          "name": "",
          "type": "uint256"
        }
      ],
      "stateMutability": "view",
      "type": "function"
    },
    {
      "inputs": [
        {
          "internalType": "uint256",
          "name": "_familyId",
          "type": "uint256"
        },
        {
          "internalType": "uint256",
          "name": "_index",
          "type": "uint256"
        }
      ],
      "name": "getFamilyRewardId",
      "outputs": [
        {
          "internalType": "uint256",
          "name": "",
          "type": "uint256"
        }
      ],
      "stateMutability": "view",
      "type": "function"
    },
    {
      "inputs": [
        {
          "internalType": "uint256",
          "name": "_rewardId",
          "type": "uint256"
        }
      ],
      "name": "getReward",
      "outputs": [
        {
          "internalType": "uint256",
          "name": "",
          "type": "uint256"
        },
        {
          "internalType": "address",
          "name": "",
          "type": "address"
        },
        {
          "internalType": "uint256",
          "name": "",
          "type": "uint256"
        },
        {
          "internalType": "string",
          "name": "",
          "type": "string"
        },
        {
          "internalType": "string",
          "name": "",
          "type": "string"
        },
        {
          "internalType": "string",
          "name": "",
          "type": "string"
        },
        {
          "internalType": "uint256",
          "name": "",
          "type": "uint256"
        },
        {
          "internalType": "uint256",
          "name": "",
          "type": "uint256"
        },
        {
          "internalType": "bool",
          "name": "",
          "type": "bool"
        }
      ],
      "stateMutability": "view",
      "type": "function"
    },
    {
      "inputs": [],
      "name": "owner",
      "outputs": [
        {
          "internalType": "address",
          "name": "",
          "type": "address"
        }
      ],
      "stateMutability": "view",
      "type": "function"
    },
    {
      "inputs": [],
      "name": "renounceOwnership",
      "outputs": [],
      "stateMutability": "nonpayable",
      "type": "function"
    },
    {
      "inputs": [],
      "name": "rewardCount",
      "outputs": [
        {
          "internalType": "uint256",
          "name": "",
          "type": "uint256"
        }
      ],
      "stateMutability": "view",
      "type": "function"
    },
    {
      "inputs": [
        {
          "internalType": "uint256",
          "name": "",
          "type": "uint256"
        }
      ],
      "name": "rewards",
      "outputs": [
        {
          "internalType": "uint256",
          "name": "id",
          "type": "uint256"
        },
        {
          "internalType": "address",
          "name": "creator",
          "type": "address"
        },
        {
          "internalType": "uint256",
          "name": "familyId",
          "type": "uint256"
        },
        {
          "internalType": "string",
          "name": "name",
          "type": "string"
        },
        {
          "internalType": "string",
          "name": "description",
          "type": "string"
        },
        {
          "internalType": "string",
          "name": "imageURI",
          "type": "string"
        },
        {
          "internalType": "uint256",
          "name": "tokenPrice",
          "type": "uint256"
        },
        {
          "internalType": "uint256",
          "name": "stock",
          "type": "uint256"
        },
        {
          "internalType": "bool",
          "name": "active",
          "type": "bool"
        }
      ],
      "stateMutability": "view",
      "type": "function"
    },
    {
      "inputs": [],
      "name": "tokenContract",
      "outputs": [
        {
          "internalType": "contract RewardToken",
          "name": "",
          "type": "address"
        }
      ],
      "stateMutability": "view",
      "type": "function"
    },
    {
      "inputs": [
        {
          "internalType": "address",
          "name": "newOwner",
          "type": "address"
        }
      ],
      "name": "transferOwnership",
      "outputs": [],
      "stateMutability": "nonpayable",
      "type": "function"
    },
    {
      "inputs": [
        {
          "internalType": "uint256",
          "name": "_rewardId",
          "type": "uint256"
        },
        {
          "internalType": "string",
          "name": "_name",
          "type": "string"
        },
        {
          "internalType": "string",
          "name": "_description",
          "type": "string"
        },
        {
          "internalType": "string",
          "name": "_imageURI",
          "type": "string"
        },
        {
          "internalType": "uint256",
          "name": "_tokenPrice",
          "type": "uint256"
        },
        {
          "internalType": "uint256",
          "name": "_stock",
          "type": "uint256"
        },
        {
          "internalType": "bool",
          "name": "_active",
          "type": "bool"
        }
      ],
      "name": "updateReward",
      "outputs": [],
      "stateMutability": "nonpayable",
      "type": "function"
    }
  ],
  "bytecode": "0x60806040526000600355600060045534801561001a57600080fd5b50604051612a32380380612a32833981810160405281019061003c919061022d565b33600073ffffffffffffffffffffffffffffffffffffffff168173ffffffffffffffffffffffffffffffffffffffff16036100af5760006040517f1e4fbdf70000000000000000000000000000000000000000000000000000000081526004016100a69190610269565b60405180910390fd5b6100be8161010660201b60201c565b5080600760006101000a81548173ffffffffffffffffffffffffffffffffffffffff021916908373ffffffffffffffffffffffffffffffffffffffff16021790555050610284565b60008060009054906101000a900473ffffffffffffffffffffffffffffffffffffffff169050816000806101000a81548173ffffffffffffffffffffffffffffffffffffffff021916908373ffffffffffffffffffffffffffffffffffffffff1602179055508173ffffffffffffffffffffffffffffffffffffffff168173ffffffffffffffffffffffffffffffffffffffff167f8be0079c531659141344cd1fd0a4f28419497f9722a3daafe3b4186f6b6457e060405160405180910390a35050565b600080fd5b600073ffffffffffffffffffffffffffffffffffffffff82169050919050565b60006101fa826101cf565b9050919050565b61020a816101ef565b811461021557600080fd5b50565b60008151905061022781610201565b92915050565b600060208284031215610243576102426101ca565b5b600061025184828501610218565b91505092915050565b610263816101ef565b82525050565b600060208201905061027e600083018461025a565b92915050565b61279f806102936000396000f3fe608060405234801561001057600080fd5b506004361061012c5760003560e01c806379085425116100ad5780639b676dc7116100715780639b676dc71461037d578063e72f1b00146103ad578063f2fde38b146103dd578063f301af42146103f9578063f59cc39a146104315761012c565b806379085425146102b157806380421276146102cf57806383dbdb64146102ff57806383e8ef541461032f5780638da5cb5b1461035f5761012c565b806355a373d6116100f457806355a373d61461020b57806368972e50146102295780636a60630d14610247578063715018a61461027757806377936d1a146102815761012c565b80630670ea71146101315780630b9d58471461014d5780631c4b774b146101825780631da30cc5146101ba5780632839fc29146101d6575b600080fd5b61014b6004803603810190610146919061189b565b610461565b005b6101676004803603810190610162919061189b565b6105dd565b60405161017996959493929190611933565b60405180910390f35b61019c6004803603810190610197919061189b565b6106d5565b6040516101b199989796959493929190611a24565b60405180910390f35b6101d460048036038101906101cf9190611c27565b6109a3565b005b6101f060048036038101906101eb919061189b565b610b4b565b60405161020296959493929190611933565b60405180910390f35b610213610bb4565b6040516102209190611d7c565b60405180910390f35b610231610bda565b60405161023e9190611d97565b60405180910390f35b610261600480360381019061025c919061189b565b610be0565b60405161026e9190611d97565b60405180910390f35b61027f610f55565b005b61029b60048036038101906102969190611db2565b610f69565b6040516102a89190611d97565b60405180910390f35b6102b9610ffb565b6040516102c69190611d97565b60405180910390f35b6102e960048036038101906102e49190611df2565b611001565b6040516102f69190611d97565b60405180910390f35b61031960048036038101906103149190611eff565b611284565b6040516103269190611d97565b60405180910390f35b61034960048036038101906103449190611f3f565b6112b5565b6040516103569190611d97565b60405180910390f35b610367611301565b6040516103749190611f6c565b60405180910390f35b61039760048036038101906103929190611db2565b61132a565b6040516103a49190611d97565b60405180910390f35b6103c760048036038101906103c2919061189b565b61135b565b6040516103d49190611d97565b60405180910390f35b6103f760048036038101906103f29190611f3f565b61137b565b005b610413600480360381019061040e919061189b565b611401565b60405161042899989796959493929190611a24565b60405180910390f35b61044b60048036038101906104469190611eff565b611614565b6040516104589190611d97565b60405180910390f35b60006002600083815260200190815260200160002090506000600160008360010154815260200190815260200160002090503373ffffffffffffffffffffffffffffffffffffffff168160010160009054906101000a900473ffffffffffffffffffffffffffffffffffffffff1673ffffffffffffffffffffffffffffffffffffffff1614610525576040517f08c379a000000000000000000000000000000000000000000000000000000000815260040161051c90611ff9565b60405180910390fd5b8160050160009054906101000a900460ff1615610577576040517f08c379a000000000000000000000000000000000000000000000000000000000815260040161056e90612065565b60405180910390fd5b60018260050160006101000a81548160ff0219169083151502179055503373ffffffffffffffffffffffffffffffffffffffff16837f362de7542ac4a995332d8029cd2fcb9c46c9668b23c962e0dba8c1a7f28a28e660405160405180910390a3505050565b6000806000806000806000600260008981526020019081526020016000206040518060c001604052908160008201548152602001600182015481526020016002820160009054906101000a900473ffffffffffffffffffffffffffffffffffffffff1673ffffffffffffffffffffffffffffffffffffffff1673ffffffffffffffffffffffffffffffffffffffff16815260200160038201548152602001600482015481526020016005820160009054906101000a900460ff1615151515815250509050806000015181602001518260400151836060015184608001518560a001519650965096509650965096505091939550919395565b60008060006060806060600080600080600160008c815260200190815260200160002060405180610120016040529081600082015481526020016001820160009054906101000a900473ffffffffffffffffffffffffffffffffffffffff1673ffffffffffffffffffffffffffffffffffffffff1673ffffffffffffffffffffffffffffffffffffffff1681526020016002820154815260200160038201805461077e906120b4565b80601f01602080910402602001604051908101604052809291908181526020018280546107aa906120b4565b80156107f75780601f106107cc576101008083540402835291602001916107f7565b820191906000526020600020905b8154815290600101906020018083116107da57829003601f168201915b50505050508152602001600482018054610810906120b4565b80601f016020809104026020016040519081016040528092919081815260200182805461083c906120b4565b80156108895780601f1061085e57610100808354040283529160200191610889565b820191906000526020600020905b81548152906001019060200180831161086c57829003601f168201915b505050505081526020016005820180546108a2906120b4565b80601f01602080910402602001604051908101604052809291908181526020018280546108ce906120b4565b801561091b5780601f106108f05761010080835404028352916020019161091b565b820191906000526020600020905b8154815290600101906020018083116108fe57829003601f168201915b5050505050815260200160068201548152602001600782015481526020016008820160009054906101000a900460ff1615151515815250509050806000015181602001518260400151836060015184608001518560a001518660c001518760e00151886101000151995099509950995099509950995099509950509193959799909294969850565b3373ffffffffffffffffffffffffffffffffffffffff166001600089815260200190815260200160002060010160009054906101000a900473ffffffffffffffffffffffffffffffffffffffff1673ffffffffffffffffffffffffffffffffffffffff1614610a47576040517f08c379a0000000000000000000000000000000000000000000000000000000008152600401610a3e90612157565b60405180910390fd5b60008311610a8a576040517f08c379a0000000000000000000000000000000000000000000000000000000008152600401610a81906121e9565b60405180910390fd5b600060016000898152602001908152602001600020905086816003019081610ab291906123ab565b5085816004019081610ac491906123ab565b5084816005019081610ad691906123ab565b50838160060181905550828160070181905550818160080160006101000a81548160ff021916908315150217905550877f22cedbe07fd5a5dca8cc6b034fc2cd0f0b9802543d3efe5c4b705ac3dcbcf522888685604051610b399392919061247d565b60405180910390a25050505050505050565b60026020528060005260406000206000915090508060000154908060010154908060020160009054906101000a900473ffffffffffffffffffffffffffffffffffffffff16908060030154908060040154908060050160009054906101000a900460ff16905086565b600760009054906101000a900473ffffffffffffffffffffffffffffffffffffffff1681565b60045481565b60008060016000848152602001908152602001600020905060008160060154905080600760009054906101000a900473ffffffffffffffffffffffffffffffffffffffff1673ffffffffffffffffffffffffffffffffffffffff166370a08231336040518263ffffffff1660e01b8152600401610c5d9190611f6c565b602060405180830381865afa158015610c7a573d6000803e3d6000fd5b505050506040513d601f19601f82011682018060405250810190610c9e91906124d0565b1015610cdf576040517f08c379a0000000000000000000000000000000000000000000000000000000008152600401610cd690612549565b60405180910390fd5b600760009054906101000a900473ffffffffffffffffffffffffffffffffffffffff1673ffffffffffffffffffffffffffffffffffffffff16639dc29fac33836040518363ffffffff1660e01b8152600401610d3c929190612569565b600060405180830381600087803b158015610d5657600080fd5b505af1158015610d6a573d6000803e3d6000fd5b50505050816007016000815480929190610d83906125c1565b919050555060046000815480929190610d9b906125ea565b91905055506040518060c0016040528060045481526020018581526020013373ffffffffffffffffffffffffffffffffffffffff16815260200182815260200142815260200160001515815250600260006004548152602001908152602001600020600082015181600001556020820151816001015560408201518160020160006101000a81548173ffffffffffffffffffffffffffffffffffffffff021916908373ffffffffffffffffffffffffffffffffffffffff160217905550606082015181600301556080820151816004015560a08201518160050160006101000a81548160ff021916908315150217905550905050600660003373ffffffffffffffffffffffffffffffffffffffff1673ffffffffffffffffffffffffffffffffffffffff16815260200190815260200160002060045490806001815401808255809150506001900390600052602060002001600090919091909150553373ffffffffffffffffffffffffffffffffffffffff16846004547fe150ee44da4a37592e6368bbdc0d8901353c1bfb770394b3268e70c9b505505084604051610f419190611d97565b60405180910390a460045492505050919050565b610f5d6116fe565b610f676000611785565b565b600060056000848152602001908152602001600020805490508210610fc3576040517f08c379a0000000000000000000000000000000000000000000000000000000008152600401610fba9061267e565b60405180910390fd5b600560008481526020019081526020016000208281548110610fe857610fe761269e565b5b9060005260206000200154905092915050565b60035481565b6000808311611045576040517f08c379a000000000000000000000000000000000000000000000000000000000815260040161103c906121e9565b60405180910390fd5b60008211611088576040517f08c379a000000000000000000000000000000000000000000000000000000000815260040161107f90612719565b60405180910390fd5b6003600081548092919061109b906125ea565b919050555060405180610120016040528060035481526020013373ffffffffffffffffffffffffffffffffffffffff168152602001888152602001878152602001868152602001858152602001848152602001838152602001600115158152506001600060035481526020019081526020016000206000820151816000015560208201518160010160006101000a81548173ffffffffffffffffffffffffffffffffffffffff021916908373ffffffffffffffffffffffffffffffffffffffff16021790555060408201518160020155606082015181600301908161118091906123ab565b50608082015181600401908161119691906123ab565b5060a08201518160050190816111ac91906123ab565b5060c0820151816006015560e082015181600701556101008201518160080160006101000a81548160ff021916908315150217905550905050600560008881526020019081526020016000206003549080600181540180825580915050600190039060005260206000200160009091909190915055863373ffffffffffffffffffffffffffffffffffffffff166003547fb96d3f67d5ecf915732544d895500cf70d6ab68bccb6e156ce171f20019ec116898760405161126d929190612739565b60405180910390a460035490509695505050505050565b600660205281600052604060002081815481106112a057600080fd5b90600052602060002001600091509150505481565b6000600660008373ffffffffffffffffffffffffffffffffffffffff1673ffffffffffffffffffffffffffffffffffffffff168152602001908152602001600020805490509050919050565b60008060009054906101000a900473ffffffffffffffffffffffffffffffffffffffff16905090565b6005602052816000526040600020818154811061134657600080fd5b90600052602060002001600091509150505481565b600060056000838152602001908152602001600020805490509050919050565b6113836116fe565b600073ffffffffffffffffffffffffffffffffffffffff168173ffffffffffffffffffffffffffffffffffffffff16036113f55760006040517f1e4fbdf70000000000000000000000000000000000000000000000000000000081526004016113ec9190611f6c565b60405180910390fd5b6113fe81611785565b50565b60016020528060005260406000206000915090508060000154908060010160009054906101000a900473ffffffffffffffffffffffffffffffffffffffff1690806002015490806003018054611456906120b4565b80601f0160208091040260200160405190810160405280929190818152602001828054611482906120b4565b80156114cf5780601f106114a4576101008083540402835291602001916114cf565b820191906000526020600020905b8154815290600101906020018083116114b257829003601f168201915b5050505050908060040180546114e4906120b4565b80601f0160208091040260200160405190810160405280929190818152602001828054611510906120b4565b801561155d5780601f106115325761010080835404028352916020019161155d565b820191906000526020600020905b81548152906001019060200180831161154057829003601f168201915b505050505090806005018054611572906120b4565b80601f016020809104026020016040519081016040528092919081815260200182805461159e906120b4565b80156115eb5780601f106115c0576101008083540402835291602001916115eb565b820191906000526020600020905b8154815290600101906020018083116115ce57829003601f168201915b5050505050908060060154908060070154908060080160009054906101000a900460ff16905089565b6000600660008473ffffffffffffffffffffffffffffffffffffffff1673ffffffffffffffffffffffffffffffffffffffff16815260200190815260200160002080549050821061169a576040517f08c379a00000000000000000000000000000000000000000000000000000000081526004016116919061267e565b60405180910390fd5b600660008473ffffffffffffffffffffffffffffffffffffffff1673ffffffffffffffffffffffffffffffffffffffff16815260200190815260200160002082815481106116eb576116ea61269e565b5b9060005260206000200154905092915050565b611706611849565b73ffffffffffffffffffffffffffffffffffffffff16611724611301565b73ffffffffffffffffffffffffffffffffffffffff161461178357611747611849565b6040517f118cdaa700000000000000000000000000000000000000000000000000000000815260040161177a9190611f6c565b60405180910390fd5b565b60008060009054906101000a900473ffffffffffffffffffffffffffffffffffffffff169050816000806101000a81548173ffffffffffffffffffffffffffffffffffffffff021916908373ffffffffffffffffffffffffffffffffffffffff1602179055508173ffffffffffffffffffffffffffffffffffffffff168173ffffffffffffffffffffffffffffffffffffffff167f8be0079c531659141344cd1fd0a4f28419497f9722a3daafe3b4186f6b6457e060405160405180910390a35050565b600033905090565b6000604051905090565b600080fd5b600080fd5b6000819050919050565b61187881611865565b811461188357600080fd5b50565b6000813590506118958161186f565b92915050565b6000602082840312156118b1576118b061185b565b5b60006118bf84828501611886565b91505092915050565b6118d181611865565b82525050565b600073ffffffffffffffffffffffffffffffffffffffff82169050919050565b6000611902826118d7565b9050919050565b611912816118f7565b82525050565b60008115159050919050565b61192d81611918565b82525050565b600060c08201905061194860008301896118c8565b61195560208301886118c8565b6119626040830187611909565b61196f60608301866118c8565b61197c60808301856118c8565b61198960a0830184611924565b979650505050505050565b600081519050919050565b600082825260208201905092915050565b60005b838110156119ce5780820151818401526020810190506119b3565b60008484015250505050565b6000601f19601f8301169050919050565b60006119f682611994565b611a00818561199f565b9350611a108185602086016119b0565b611a19816119da565b840191505092915050565b600061012082019050611a3a600083018c6118c8565b611a47602083018b611909565b611a54604083018a6118c8565b8181036060830152611a6681896119eb565b90508181036080830152611a7a81886119eb565b905081810360a0830152611a8e81876119eb565b9050611a9d60c08301866118c8565b611aaa60e08301856118c8565b611ab8610100830184611924565b9a9950505050505050505050565b600080fd5b600080fd5b7f4e487b7100000000000000000000000000000000000000000000000000000000600052604160045260246000fd5b611b08826119da565b810181811067ffffffffffffffff82111715611b2757611b26611ad0565b5b80604052505050565b6000611b3a611851565b9050611b468282611aff565b919050565b600067ffffffffffffffff821115611b6657611b65611ad0565b5b611b6f826119da565b9050602081019050919050565b82818337600083830152505050565b6000611b9e611b9984611b4b565b611b30565b905082815260208101848484011115611bba57611bb9611acb565b5b611bc5848285611b7c565b509392505050565b600082601f830112611be257611be1611ac6565b5b8135611bf2848260208601611b8b565b91505092915050565b611c0481611918565b8114611c0f57600080fd5b50565b600081359050611c2181611bfb565b92915050565b600080600080600080600060e0888a031215611c4657611c4561185b565b5b6000611c548a828b01611886565b975050602088013567ffffffffffffffff811115611c7557611c74611860565b5b611c818a828b01611bcd565b965050604088013567ffffffffffffffff811115611ca257611ca1611860565b5b611cae8a828b01611bcd565b955050606088013567ffffffffffffffff811115611ccf57611cce611860565b5b611cdb8a828b01611bcd565b9450506080611cec8a828b01611886565b93505060a0611cfd8a828b01611886565b92505060c0611d0e8a828b01611c12565b91505092959891949750929550565b6000819050919050565b6000611d42611d3d611d38846118d7565b611d1d565b6118d7565b9050919050565b6000611d5482611d27565b9050919050565b6000611d6682611d49565b9050919050565b611d7681611d5b565b82525050565b6000602082019050611d916000830184611d6d565b92915050565b6000602082019050611dac60008301846118c8565b92915050565b60008060408385031215611dc957611dc861185b565b5b6000611dd785828601611886565b9250506020611de885828601611886565b9150509250929050565b60008060008060008060c08789031215611e0f57611e0e61185b565b5b6000611e1d89828a01611886565b965050602087013567ffffffffffffffff811115611e3e57611e3d611860565b5b611e4a89828a01611bcd565b955050604087013567ffffffffffffffff811115611e6b57611e6a611860565b5b611e7789828a01611bcd565b945050606087013567ffffffffffffffff811115611e9857611e97611860565b5b611ea489828a01611bcd565b9350506080611eb589828a01611886565b92505060a0611ec689828a01611886565b9150509295509295509295565b611edc816118f7565b8114611ee757600080fd5b50565b600081359050611ef981611ed3565b92915050565b60008060408385031215611f1657611f1561185b565b5b6000611f2485828601611eea565b9250506020611f3585828601611886565b9150509250929050565b600060208284031215611f5557611f5461185b565b5b6000611f6384828501611eea565b91505092915050565b6000602082019050611f816000830184611909565b92915050565b7f4f6e6c79207265776172642063726561746f722063616e2066756c66696c6c2060008201527f7468652065786368616e67650000000000000000000000000000000000000000602082015250565b6000611fe3602c8361199f565b9150611fee82611f87565b604082019050919050565b6000602082019050818103600083015261201281611fd6565b9050919050565b7f45786368616e676520616c72656164792066756c66696c6c6564000000000000600082015250565b600061204f601a8361199f565b915061205a82612019565b602082019050919050565b6000602082019050818103600083015261207e81612042565b9050919050565b7f4e487b7100000000000000000000000000000000000000000000000000000000600052602260045260246000fd5b600060028204905060018216806120cc57607f821691505b6020821081036120df576120de612085565b5b50919050565b7f4f6e6c792063726561746f722063616e2075706461746520746865207265776160008201527f7264000000000000000000000000000000000000000000000000000000000000602082015250565b600061214160228361199f565b915061214c826120e5565b604082019050919050565b6000602082019050818103600083015261217081612134565b9050919050565b7f546f6b656e207072696365206d7573742062652067726561746572207468616e60008201527f207a65726f000000000000000000000000000000000000000000000000000000602082015250565b60006121d360258361199f565b91506121de82612177565b604082019050919050565b60006020820190508181036000830152612202816121c6565b9050919050565b60008190508160005260206000209050919050565b60006020601f8301049050919050565b600082821b905092915050565b60006008830261226b7fffffffffffffffffffffffffffffffffffffffffffffffffffffffffffffffff8261222e565b612275868361222e565b95508019841693508086168417925050509392505050565b60006122a86122a361229e84611865565b611d1d565b611865565b9050919050565b6000819050919050565b6122c28361228d565b6122d66122ce826122af565b84845461223b565b825550505050565b600090565b6122eb6122de565b6122f68184846122b9565b505050565b5b8181101561231a5761230f6000826122e3565b6001810190506122fc565b5050565b601f82111561235f5761233081612209565b6123398461221e565b81016020851015612348578190505b61235c6123548561221e565b8301826122fb565b50505b505050565b600082821c905092915050565b600061238260001984600802612364565b1980831691505092915050565b600061239b8383612371565b9150826002028217905092915050565b6123b482611994565b67ffffffffffffffff8111156123cd576123cc611ad0565b5b6123d782546120b4565b6123e282828561231e565b600060209050601f8311600181146124155760008415612403578287015190505b61240d858261238f565b865550612475565b601f19841661242386612209565b60005b8281101561244b57848901518255600182019150602085019450602081019050612426565b868310156124685784890151612464601f891682612371565b8355505b6001600288020188555050505b505050505050565b6000606082019050818103600083015261249781866119eb565b90506124a660208301856118c8565b6124b36040830184611924565b949350505050565b6000815190506124ca8161186f565b92915050565b6000602082840312156124e6576124e561185b565b5b60006124f4848285016124bb565b91505092915050565b7f496e73756666696369656e7420746f6b656e2062616c616e6365000000000000600082015250565b6000612533601a8361199f565b915061253e826124fd565b602082019050919050565b6000602082019050818103600083015261256281612526565b9050919050565b600060408201905061257e6000830185611909565b61258b60208301846118c8565b9392505050565b7f4e487b7100000000000000000000000000000000000000000000000000000000600052601160045260246000fd5b60006125cc82611865565b9150600082036125df576125de612592565b5b600182039050919050565b60006125f582611865565b91507fffffffffffffffffffffffffffffffffffffffffffffffffffffffffffffffff820361262757612626612592565b5b600182019050919050565b7f496e646578206f7574206f6620626f756e647300000000000000000000000000600082015250565b600061266860138361199f565b915061267382612632565b602082019050919050565b600060208201905081810360008301526126978161265b565b9050919050565b7f4e487b7100000000000000000000000000000000000000000000000000000000600052603260045260246000fd5b7f53746f636b206d7573742062652067726561746572207468616e207a65726f00600082015250565b6000612703601f8361199f565b915061270e826126cd565b602082019050919050565b60006020820190508181036000830152612732816126f6565b9050919050565b6000604082019050818103600083015261275381856119eb565b905061276260208301846118c8565b939250505056fea2646970667358221220da28f2b9e3388cfd44f057e37d42bf7626dd834037d6219054dfb79e8d65163264736f6c634300081c0033",
  "linkReferences": {},
  "deployedLinkReferences": {}
}