{
  "_format": "hh-sol-artifact-1",
  "contractName": "RewardRegistry",
  "sourceName": "solidity/RewardRegistry.sol",
  "abi": [
    {
      "inputs": [
        {
          "internalType": "address",
          "name": "_tokenAddress",
          "type": "address"
        }
      ],
      "stateMutability": "nonpayable",
      "type": "constructor"
    },
    {
      "inputs": [
        {
          "internalType": "address",
          "name": "owner",
          "type": "address"
        }
      ],
      "name": "OwnableInvalidOwner",
      "type": "error"
    },
    {
      "inputs": [
        {
          "internalType": "address",
          "name": "account",
          "type": "address"
        }
      ],
      "name": "OwnableUnauthorizedAccount",
      "type": "error"
    },
    {
      "anonymous": false,
      "inputs": [
        {
          "indexed": true,
          "internalType": "uint256",
          "name": "exchangeId",
          "type": "uint256"
        },
        {
          "indexed": true,
          "internalType": "address",
          "name": "parent",
          "type": "address"
        }
      ],
      "name": "ExchangeFulfilled",
      "type": "event"
    },
    {
      "anonymous": false,
      "inputs": [
        {
          "indexed": true,
          "internalType": "address",
          "name": "previousOwner",
          "type": "address"
        },
        {
          "indexed": true,
          "internalType": "address",
          "name": "newOwner",
          "type": "address"
        }
      ],
      "name": "OwnershipTransferred",
      "type": "event"
    },
    {
      "anonymous": false,
      "inputs": [
        {
          "indexed": true,
          "internalType": "uint256",
          "name": "rewardId",
          "type": "uint256"
        },
        {
          "indexed": true,
          "internalType": "address",
          "name": "creator",
          "type": "address"
        },
        {
          "indexed": true,
          "internalType": "uint256",
          "name": "familyId",
          "type": "uint256"
        },
        {
          "indexed": false,
          "internalType": "string",
          "name": "name",
          "type": "string"
        },
        {
          "indexed": false,
          "internalType": "uint256",
          "name": "tokenPrice",
          "type": "uint256"
        }
      ],
      "name": "RewardCreated",
      "type": "event"
    },
    {
      "anonymous": false,
      "inputs": [
        {
          "indexed": true,
          "internalType": "uint256",
          "name": "exchangeId",
          "type": "uint256"
        },
        {
          "indexed": true,
          "internalType": "uint256",
          "name": "rewardId",
          "type": "uint256"
        },
        {
          "indexed": true,
          "internalType": "address",
          "name": "child",
          "type": "address"
        },
        {
          "indexed": false,
          "internalType": "uint256",
          "name": "tokenAmount",
          "type": "uint256"
        }
      ],
      "name": "RewardExchanged",
      "type": "event"
    },
    {
      "anonymous": false,
      "inputs": [
        {
          "indexed": true,
          "internalType": "uint256",
          "name": "rewardId",
          "type": "uint256"
        },
        {
          "indexed": false,
          "internalType": "string",
          "name": "name",
          "type": "string"
        },
        {
          "indexed": false,
          "internalType": "uint256",
          "name": "tokenPrice",
          "type": "uint256"
        },
        {
          "indexed": false,
          "internalType": "bool",
          "name": "active",
          "type": "bool"
        }
      ],
      "name": "RewardUpdated",
      "type": "event"
    },
    {
      "inputs": [
        {
          "internalType": "address",
          "name": "",
          "type": "address"
        },
        {
          "internalType": "uint256",
          "name": "",
          "type": "uint256"
        }
      ],
      "name": "childExchanges",
      "outputs": [
        {
          "internalType": "uint256",
          "name": "",
          "type": "uint256"
        }
      ],
      "stateMutability": "view",
      "type": "function"
    },
    {
      "inputs": [
        {
          "internalType": "uint256",
          "name": "_familyId",
          "type": "uint256"
        },
        {
          "internalType": "string",
          "name": "_name",
          "type": "string"
        },
        {
          "internalType": "string",
          "name": "_description",
          "type": "string"
        },
        {
          "internalType": "string",
          "name": "_imageURI",
          "type": "string"
        },
        {
          "internalType": "uint256",
          "name": "_tokenPrice",
          "type": "uint256"
        },
        {
          "internalType": "uint256",
          "name": "_stock",
          "type": "uint256"
        }
      ],
      "name": "createReward",
      "outputs": [
        {
          "internalType": "uint256",
          "name": "",
          "type": "uint256"
        }
      ],
      "stateMutability": "nonpayable",
      "type": "function"
    },
    {
      "inputs": [],
      "name": "exchangeCount",
      "outputs": [
        {
          "internalType": "uint256",
          "name": "",
          "type": "uint256"
        }
      ],
      "stateMutability": "view",
      "type": "function"
    },
    {
      "inputs": [
        {
          "internalType": "uint256",
          "name": "_rewardId",
          "type": "uint256"
        }
      ],
      "name": "exchangeReward",
      "outputs": [
        {
          "internalType": "uint256",
          "name": "",
          "type": "uint256"
        }
      ],
      "stateMutability": "nonpayable",
      "type": "function"
    },
    {
      "inputs": [
        {
          "internalType": "uint256",
          "name": "",
          "type": "uint256"
        }
      ],
      "name": "exchanges",
      "outputs": [
        {
          "internalType": "uint256",
          "name": "id",
          "type": "uint256"
        },
        {
          "internalType": "uint256",
          "name": "rewardId",
          "type": "uint256"
        },
        {
          "internalType": "address",
          "name": "child",
          "type": "address"
        },
        {
          "internalType": "uint256",
          "name": "tokenAmount",
          "type": "uint256"
        },
        {
          "internalType": "uint256",
          "name": "exchangeDate",
          "type": "uint256"
        },
        {
          "internalType": "bool",
          "name": "fulfilled",
          "type": "bool"
        }
      ],
      "stateMutability": "view",
      "type": "function"
    },
    {
      "inputs": [
        {
          "internalType": "uint256",
          "name": "",
          "type": "uint256"
        },
        {
          "internalType": "uint256",
          "name": "",
          "type": "uint256"
        }
      ],
      "name": "familyRewards",
      "outputs": [
        {
          "internalType": "uint256",
          "name": "",
          "type": "uint256"
        }
      ],
      "stateMutability": "view",
      "type": "function"
    },
    {
      "inputs": [
        {
          "internalType": "uint256",
          "name": "_exchangeId",
          "type": "uint256"
        }
      ],
      "name": "fulfillExchange",
      "outputs": [],
      "stateMutability": "nonpayable",
      "type": "function"
    },
    {
      "inputs": [
        {
          "internalType": "address",
          "name": "_child",
          "type": "address"
        }
      ],
      "name": "getChildExchangeCount",
      "outputs": [
        {
          "internalType": "uint256",
          "name": "",
          "type": "uint256"
        }
      ],
      "stateMutability": "view",
      "type": "function"
    },
    {
      "inputs": [
        {
          "internalType": "address",
          "name": "_child",
          "type": "address"
        },
        {
          "internalType": "uint256",
          "name": "_index",
          "type": "uint256"
        }
      ],
      "name": "getChildExchangeId",
      "outputs": [
        {
          "internalType": "uint256",
          "name": "",
          "type": "uint256"
        }
      ],
      "stateMutability": "view",
      "type": "function"
    },
    {
      "inputs": [
        {
          "internalType": "uint256",
          "name": "_exchangeId",
          "type": "uint256"
        }
      ],
      "name": "getExchange",
      "outputs": [
        {
          "internalType": "uint256",
          "name": "",
          "type": "uint256"
        },
        {
          "internalType": "uint256",
          "name": "",
          "type": "uint256"
        },
        {
          "internalType": "address",
          "name": "",
          "type": "address"
        },
        {
          "internalType": "uint256",
          "name": "",
          "type": "uint256"
        },
        {
          "internalType": "uint256",
          "name": "",
          "type": "uint256"
        },
        {
          "internalType": "bool",
          "name": "",
          "type": "bool"
        }
      ],
      "stateMutability": "view",
      "type": "function"
    },
    {
      "inputs": [
        {
          "internalType": "uint256",
          "name": "_familyId",
          "type": "uint256"
        }
      ],
      "name": "getFamilyRewardCount",
      "outputs": [
        {
          "internalType": "uint256",
          "name": "",
          "type": "uint256"
        }
      ],
      "stateMutability": "view",
      "type": "function"
    },
    {
      "inputs": [
        {
          "internalType": "uint256",
          "name": "_familyId",
          "type": "uint256"
        },
        {
          "internalType": "uint256",
          "name": "_index",
          "type": "uint256"
        }
      ],
      "name": "getFamilyRewardId",
      "outputs": [
        {
          "internalType": "uint256",
          "name": "",
          "type": "uint256"
        }
      ],
      "stateMutability": "view",
      "type": "function"
    },
    {
      "inputs": [
        {
          "internalType": "uint256",
          "name": "_rewardId",
          "type": "uint256"
        }
      ],
      "name": "getReward",
      "outputs": [
        {
          "internalType": "uint256",
          "name": "",
          "type": "uint256"
        },
        {
          "internalType": "address",
          "name": "",
          "type": "address"
        },
        {
          "internalType": "uint256",
          "name": "",
          "type": "uint256"
        },
        {
          "internalType": "string",
          "name": "",
          "type": "string"
        },
        {
          "internalType": "string",
          "name": "",
          "type": "string"
        },
        {
          "internalType": "string",
          "name": "",
          "type": "string"
        },
        {
          "internalType": "uint256",
          "name": "",
          "type": "uint256"
        },
        {
          "internalType": "uint256",
          "name": "",
          "type": "uint256"
        },
        {
          "internalType": "bool",
          "name": "",
          "type": "bool"
        }
      ],
      "stateMutability": "view",
      "type": "function"
    },
    {
      "inputs": [],
      "name": "owner",
      "outputs": [
        {
          "internalType": "address",
          "name": "",
          "type": "address"
        }
      ],
      "stateMutability": "view",
      "type": "function"
    },
    {
      "inputs": [],
      "name": "renounceOwnership",
      "outputs": [],
      "stateMutability": "nonpayable",
      "type": "function"
    },
    {
      "inputs": [],
      "name": "rewardCount",
      "outputs": [
        {
          "internalType": "uint256",
          "name": "",
          "type": "uint256"
        }
      ],
      "stateMutability": "view",
      "type": "function"
    },
    {
      "inputs": [
        {
          "internalType": "uint256",
          "name": "",
          "type": "uint256"
        }
      ],
      "name": "rewards",
      "outputs": [
        {
          "internalType": "uint256",
          "name": "id",
          "type": "uint256"
        },
        {
          "internalType": "address",
          "name": "creator",
          "type": "address"
        },
        {
          "internalType": "uint256",
          "name": "familyId",
          "type": "uint256"
        },
        {
          "internalType": "string",
          "name": "name",
          "type": "string"
        },
        {
          "internalType": "string",
          "name": "description",
          "type": "string"
        },
        {
          "internalType": "string",
          "name": "imageURI",
          "type": "string"
        },
        {
          "internalType": "uint256",
          "name": "tokenPrice",
          "type": "uint256"
        },
        {
          "internalType": "uint256",
          "name": "stock",
          "type": "uint256"
        },
        {
          "internalType": "bool",
          "name": "active",
          "type": "bool"
        }
      ],
      "stateMutability": "view",
      "type": "function"
    },
    {
      "inputs": [],
      "name": "tokenContract",
      "outputs": [
        {
          "internalType": "contract RewardToken",
          "name": "",
          "type": "address"
        }
      ],
      "stateMutability": "view",
      "type": "function"
    },
    {
      "inputs": [
        {
          "internalType": "address",
          "name": "newOwner",
          "type": "address"
        }
      ],
      "name": "transferOwnership",
      "outputs": [],
      "stateMutability": "nonpayable",
      "type": "function"
    },
    {
      "inputs": [
        {
          "internalType": "uint256",
          "name": "_rewardId",
          "type": "uint256"
        },
        {
          "internalType": "string",
          "name": "_name",
          "type": "string"
        },
        {
          "internalType": "string",
          "name": "_description",
          "type": "string"
        },
        {
          "internalType": "string",
          "name": "_imageURI",
          "type": "string"
        },
        {
          "internalType": "uint256",
          "name": "_tokenPrice",
          "type": "uint256"
        },
        {
          "internalType": "uint256",
          "name": "_stock",
          "type": "uint256"
        },
        {
          "internalType": "bool",
          "name": "_active",
          "type": "bool"
        }
      ],
      "name": "updateReward",
      "outputs": [],
      "stateMutability": "nonpayable",
      "type": "function"
    }
  ],
  "bytecode": "0x60806040526000600355600060045534801561001a57600080fd5b50604051612ba2380380612ba2833981810160405281019061003c919061022d565b33600073ffffffffffffffffffffffffffffffffffffffff168173ffffffffffffffffffffffffffffffffffffffff16036100af5760006040517f1e4fbdf70000000000000000000000000000000000000000000000000000000081526004016100a69190610269565b60405180910390fd5b6100be8161010660201b60201c565b5080600760006101000a81548173ffffffffffffffffffffffffffffffffffffffff021916908373ffffffffffffffffffffffffffffffffffffffff16021790555050610284565b60008060009054906101000a900473ffffffffffffffffffffffffffffffffffffffff169050816000806101000a81548173ffffffffffffffffffffffffffffffffffffffff021916908373ffffffffffffffffffffffffffffffffffffffff1602179055508173ffffffffffffffffffffffffffffffffffffffff168173ffffffffffffffffffffffffffffffffffffffff167f8be0079c531659141344cd1fd0a4f28419497f9722a3daafe3b4186f6b6457e060405160405180910390a35050565b600080fd5b600073ffffffffffffffffffffffffffffffffffffffff82169050919050565b60006101fa826101cf565b9050919050565b61020a816101ef565b811461021557600080fd5b50565b60008151905061022781610201565b92915050565b600060208284031215610243576102426101ca565b5b600061025184828501610218565b91505092915050565b610263816101ef565b82525050565b600060208201905061027e600083018461025a565b92915050565b61290f806102936000396000f3fe608060405234801561001057600080fd5b506004361061012c5760003560e01c806379085425116100ad5780639b676dc7116100715780639b676dc71461037d578063e72f1b00146103ad578063f2fde38b146103dd578063f301af42146103f9578063f59cc39a146104315761012c565b806379085425146102b157806380421276146102cf57806383dbdb64146102ff57806383e8ef541461032f5780638da5cb5b1461035f5761012c565b806355a373d6116100f457806355a373d61461020b57806368972e50146102295780636a60630d14610247578063715018a61461027757806377936d1a146102815761012c565b80630670ea71146101315780630b9d58471461014d5780631c4b774b146101825780631da30cc5146101ba5780632839fc29146101d6575b600080fd5b61014b60048036038101906101469190611933565b610461565b005b61016760048036038101906101629190611933565b6105dd565b604051610179969594939291906119cb565b60405180910390f35b61019c60048036038101906101979190611933565b6106d5565b6040516101b199989796959493929190611abc565b60405180910390f35b6101d460048036038101906101cf9190611cbf565b6109a3565b005b6101f060048036038101906101eb9190611933565b610b4b565b604051610202969594939291906119cb565b60405180910390f35b610213610bb4565b6040516102209190611e14565b60405180910390f35b610231610bda565b60405161023e9190611e2f565b60405180910390f35b610261600480360381019061025c9190611933565b610be0565b60405161026e9190611e2f565b60405180910390f35b61027f610fed565b005b61029b60048036038101906102969190611e4a565b611001565b6040516102a89190611e2f565b60405180910390f35b6102b9611093565b6040516102c69190611e2f565b60405180910390f35b6102e960048036038101906102e49190611e8a565b611099565b6040516102f69190611e2f565b60405180910390f35b61031960048036038101906103149190611f97565b61131c565b6040516103269190611e2f565b60405180910390f35b61034960048036038101906103449190611fd7565b61134d565b6040516103569190611e2f565b60405180910390f35b610367611399565b6040516103749190612004565b60405180910390f35b61039760048036038101906103929190611e4a565b6113c2565b6040516103a49190611e2f565b60405180910390f35b6103c760048036038101906103c29190611933565b6113f3565b6040516103d49190611e2f565b60405180910390f35b6103f760048036038101906103f29190611fd7565b611413565b005b610413600480360381019061040e9190611933565b611499565b60405161042899989796959493929190611abc565b60405180910390f35b61044b60048036038101906104469190611f97565b6116ac565b6040516104589190611e2f565b60405180910390f35b60006002600083815260200190815260200160002090506000600160008360010154815260200190815260200160002090503373ffffffffffffffffffffffffffffffffffffffff168160010160009054906101000a900473ffffffffffffffffffffffffffffffffffffffff1673ffffffffffffffffffffffffffffffffffffffff1614610525576040517f08c379a000000000000000000000000000000000000000000000000000000000815260040161051c90612091565b60405180910390fd5b8160050160009054906101000a900460ff1615610577576040517f08c379a000000000000000000000000000000000000000000000000000000000815260040161056e906120fd565b60405180910390fd5b60018260050160006101000a81548160ff0219169083151502179055503373ffffffffffffffffffffffffffffffffffffffff16837f362de7542ac4a995332d8029cd2fcb9c46c9668b23c962e0dba8c1a7f28a28e660405160405180910390a3505050565b6000806000806000806000600260008981526020019081526020016000206040518060c001604052908160008201548152602001600182015481526020016002820160009054906101000a900473ffffffffffffffffffffffffffffffffffffffff1673ffffffffffffffffffffffffffffffffffffffff1673ffffffffffffffffffffffffffffffffffffffff16815260200160038201548152602001600482015481526020016005820160009054906101000a900460ff1615151515815250509050806000015181602001518260400151836060015184608001518560a001519650965096509650965096505091939550919395565b60008060006060806060600080600080600160008c815260200190815260200160002060405180610120016040529081600082015481526020016001820160009054906101000a900473ffffffffffffffffffffffffffffffffffffffff1673ffffffffffffffffffffffffffffffffffffffff1673ffffffffffffffffffffffffffffffffffffffff1681526020016002820154815260200160038201805461077e9061214c565b80601f01602080910402602001604051908101604052809291908181526020018280546107aa9061214c565b80156107f75780601f106107cc576101008083540402835291602001916107f7565b820191906000526020600020905b8154815290600101906020018083116107da57829003601f168201915b505050505081526020016004820180546108109061214c565b80601f016020809104026020016040519081016040528092919081815260200182805461083c9061214c565b80156108895780601f1061085e57610100808354040283529160200191610889565b820191906000526020600020905b81548152906001019060200180831161086c57829003601f168201915b505050505081526020016005820180546108a29061214c565b80601f01602080910402602001604051908101604052809291908181526020018280546108ce9061214c565b801561091b5780601f106108f05761010080835404028352916020019161091b565b820191906000526020600020905b8154815290600101906020018083116108fe57829003601f168201915b5050505050815260200160068201548152602001600782015481526020016008820160009054906101000a900460ff1615151515815250509050806000015181602001518260400151836060015184608001518560a001518660c001518760e00151886101000151995099509950995099509950995099509950509193959799909294969850565b3373ffffffffffffffffffffffffffffffffffffffff166001600089815260200190815260200160002060010160009054906101000a900473ffffffffffffffffffffffffffffffffffffffff1673ffffffffffffffffffffffffffffffffffffffff1614610a47576040517f08c379a0000000000000000000000000000000000000000000000000000000008152600401610a3e906121ef565b60405180910390fd5b60008311610a8a576040517f08c379a0000000000000000000000000000000000000000000000000000000008152600401610a8190612281565b60405180910390fd5b600060016000898152602001908152602001600020905086816003019081610ab29190612443565b5085816004019081610ac49190612443565b5084816005019081610ad69190612443565b50838160060181905550828160070181905550818160080160006101000a81548160ff021916908315150217905550877f22cedbe07fd5a5dca8cc6b034fc2cd0f0b9802543d3efe5c4b705ac3dcbcf522888685604051610b3993929190612515565b60405180910390a25050505050505050565b60026020528060005260406000206000915090508060000154908060010154908060020160009054906101000a900473ffffffffffffffffffffffffffffffffffffffff16908060030154908060040154908060050160009054906101000a900460ff16905086565b600760009054906101000a900473ffffffffffffffffffffffffffffffffffffffff1681565b60045481565b6000806001600084815260200190815260200160002090508060080160009054906101000a900460ff16610c49576040517f08c379a0000000000000000000000000000000000000000000000000000000008152600401610c409061259f565b60405180910390fd5b6000816007015411610c90576040517f08c379a0000000000000000000000000000000000000000000000000000000008152600401610c879061260b565b60405180910390fd5b60008160060154905080600760009054906101000a900473ffffffffffffffffffffffffffffffffffffffff1673ffffffffffffffffffffffffffffffffffffffff166370a08231336040518263ffffffff1660e01b8152600401610cf59190612004565b602060405180830381865afa158015610d12573d6000803e3d6000fd5b505050506040513d601f19601f82011682018060405250810190610d369190612640565b1015610d77576040517f08c379a0000000000000000000000000000000000000000000000000000000008152600401610d6e906126b9565b60405180910390fd5b600760009054906101000a900473ffffffffffffffffffffffffffffffffffffffff1673ffffffffffffffffffffffffffffffffffffffff16639dc29fac33836040518363ffffffff1660e01b8152600401610dd49291906126d9565b600060405180830381600087803b158015610dee57600080fd5b505af1158015610e02573d6000803e3d6000fd5b50505050816007016000815480929190610e1b90612731565b919050555060046000815480929190610e339061275a565b91905055506040518060c0016040528060045481526020018581526020013373ffffffffffffffffffffffffffffffffffffffff16815260200182815260200142815260200160001515815250600260006004548152602001908152602001600020600082015181600001556020820151816001015560408201518160020160006101000a81548173ffffffffffffffffffffffffffffffffffffffff021916908373ffffffffffffffffffffffffffffffffffffffff160217905550606082015181600301556080820151816004015560a08201518160050160006101000a81548160ff021916908315150217905550905050600660003373ffffffffffffffffffffffffffffffffffffffff1673ffffffffffffffffffffffffffffffffffffffff16815260200190815260200160002060045490806001815401808255809150506001900390600052602060002001600090919091909150553373ffffffffffffffffffffffffffffffffffffffff16846004547fe150ee44da4a37592e6368bbdc0d8901353c1bfb770394b3268e70c9b505505084604051610fd99190611e2f565b60405180910390a460045492505050919050565b610ff5611796565b610fff600061181d565b565b60006005600084815260200190815260200160002080549050821061105b576040517f08c379a0000000000000000000000000000000000000000000000000000000008152600401611052906127ee565b60405180910390fd5b6005600084815260200190815260200160002082815481106110805761107f61280e565b5b9060005260206000200154905092915050565b60035481565b60008083116110dd576040517f08c379a00000000000000000000000000000000000000000000000000000000081526004016110d490612281565b60405180910390fd5b60008211611120576040517f08c379a000000000000000000000000000000000000000000000000000000000815260040161111790612889565b60405180910390fd5b600360008154809291906111339061275a565b919050555060405180610120016040528060035481526020013373ffffffffffffffffffffffffffffffffffffffff168152602001888152602001878152602001868152602001858152602001848152602001838152602001600115158152506001600060035481526020019081526020016000206000820151816000015560208201518160010160006101000a81548173ffffffffffffffffffffffffffffffffffffffff021916908373ffffffffffffffffffffffffffffffffffffffff1602179055506040820151816002015560608201518160030190816112189190612443565b50608082015181600401908161122e9190612443565b5060a08201518160050190816112449190612443565b5060c0820151816006015560e082015181600701556101008201518160080160006101000a81548160ff021916908315150217905550905050600560008881526020019081526020016000206003549080600181540180825580915050600190039060005260206000200160009091909190915055863373ffffffffffffffffffffffffffffffffffffffff166003547fb96d3f67d5ecf915732544d895500cf70d6ab68bccb6e156ce171f20019ec11689876040516113059291906128a9565b60405180910390a460035490509695505050505050565b6006602052816000526040600020818154811061133857600080fd5b90600052602060002001600091509150505481565b6000600660008373ffffffffffffffffffffffffffffffffffffffff1673ffffffffffffffffffffffffffffffffffffffff168152602001908152602001600020805490509050919050565b60008060009054906101000a900473ffffffffffffffffffffffffffffffffffffffff16905090565b600560205281600052604060002081815481106113de57600080fd5b90600052602060002001600091509150505481565b600060056000838152602001908152602001600020805490509050919050565b61141b611796565b600073ffffffffffffffffffffffffffffffffffffffff168173ffffffffffffffffffffffffffffffffffffffff160361148d5760006040517f1e4fbdf70000000000000000000000000000000000000000000000000000000081526004016114849190612004565b60405180910390fd5b6114968161181d565b50565b60016020528060005260406000206000915090508060000154908060010160009054906101000a900473ffffffffffffffffffffffffffffffffffffffff16908060020154908060030180546114ee9061214c565b80601f016020809104026020016040519081016040528092919081815260200182805461151a9061214c565b80156115675780601f1061153c57610100808354040283529160200191611567565b820191906000526020600020905b81548152906001019060200180831161154a57829003601f168201915b50505050509080600401805461157c9061214c565b80601f01602080910402602001604051908101604052809291908181526020018280546115a89061214c565b80156115f55780601f106115ca576101008083540402835291602001916115f5565b820191906000526020600020905b8154815290600101906020018083116115d857829003601f168201915b50505050509080600501805461160a9061214c565b80601f01602080910402602001604051908101604052809291908181526020018280546116369061214c565b80156116835780601f1061165857610100808354040283529160200191611683565b820191906000526020600020905b81548152906001019060200180831161166657829003601f168201915b5050505050908060060154908060070154908060080160009054906101000a900460ff16905089565b6000600660008473ffffffffffffffffffffffffffffffffffffffff1673ffffffffffffffffffffffffffffffffffffffff168152602001908152602001600020805490508210611732576040517f08c379a0000000000000000000000000000000000000000000000000000000008152600401611729906127ee565b60405180910390fd5b600660008473ffffffffffffffffffffffffffffffffffffffff1673ffffffffffffffffffffffffffffffffffffffff16815260200190815260200160002082815481106117835761178261280e565b5b9060005260206000200154905092915050565b61179e6118e1565b73ffffffffffffffffffffffffffffffffffffffff166117bc611399565b73ffffffffffffffffffffffffffffffffffffffff161461181b576117df6118e1565b6040517f118cdaa70000000000000000000000000000000000000000000000000000000081526004016118129190612004565b60405180910390fd5b565b60008060009054906101000a900473ffffffffffffffffffffffffffffffffffffffff169050816000806101000a81548173ffffffffffffffffffffffffffffffffffffffff021916908373ffffffffffffffffffffffffffffffffffffffff1602179055508173ffffffffffffffffffffffffffffffffffffffff168173ffffffffffffffffffffffffffffffffffffffff167f8be0079c531659141344cd1fd0a4f28419497f9722a3daafe3b4186f6b6457e060405160405180910390a35050565b600033905090565b6000604051905090565b600080fd5b600080fd5b6000819050919050565b611910816118fd565b811461191b57600080fd5b50565b60008135905061192d81611907565b92915050565b600060208284031215611949576119486118f3565b5b60006119578482850161191e565b91505092915050565b611969816118fd565b82525050565b600073ffffffffffffffffffffffffffffffffffffffff82169050919050565b600061199a8261196f565b9050919050565b6119aa8161198f565b82525050565b60008115159050919050565b6119c5816119b0565b82525050565b600060c0820190506119e06000830189611960565b6119ed6020830188611960565b6119fa60408301876119a1565b611a076060830186611960565b611a146080830185611960565b611a2160a08301846119bc565b979650505050505050565b600081519050919050565b600082825260208201905092915050565b60005b83811015611a66578082015181840152602081019050611a4b565b60008484015250505050565b6000601f19601f8301169050919050565b6000611a8e82611a2c565b611a988185611a37565b9350611aa8818560208601611a48565b611ab181611a72565b840191505092915050565b600061012082019050611ad2600083018c611960565b611adf602083018b6119a1565b611aec604083018a611960565b8181036060830152611afe8189611a83565b90508181036080830152611b128188611a83565b905081810360a0830152611b268187611a83565b9050611b3560c0830186611960565b611b4260e0830185611960565b611b506101008301846119bc565b9a9950505050505050505050565b600080fd5b600080fd5b7f4e487b7100000000000000000000000000000000000000000000000000000000600052604160045260246000fd5b611ba082611a72565b810181811067ffffffffffffffff82111715611bbf57611bbe611b68565b5b80604052505050565b6000611bd26118e9565b9050611bde8282611b97565b919050565b600067ffffffffffffffff821115611bfe57611bfd611b68565b5b611c0782611a72565b9050602081019050919050565b82818337600083830152505050565b6000611c36611c3184611be3565b611bc8565b905082815260208101848484011115611c5257611c51611b63565b5b611c5d848285611c14565b509392505050565b600082601f830112611c7a57611c79611b5e565b5b8135611c8a848260208601611c23565b91505092915050565b611c9c816119b0565b8114611ca757600080fd5b50565b600081359050611cb981611c93565b92915050565b600080600080600080600060e0888a031215611cde57611cdd6118f3565b5b6000611cec8a828b0161191e565b975050602088013567ffffffffffffffff811115611d0d57611d0c6118f8565b5b611d198a828b01611c65565b965050604088013567ffffffffffffffff811115611d3a57611d396118f8565b5b611d468a828b01611c65565b955050606088013567ffffffffffffffff811115611d6757611d666118f8565b5b611d738a828b01611c65565b9450506080611d848a828b0161191e565b93505060a0611d958a828b0161191e565b92505060c0611da68a828b01611caa565b91505092959891949750929550565b6000819050919050565b6000611dda611dd5611dd08461196f565b611db5565b61196f565b9050919050565b6000611dec82611dbf565b9050919050565b6000611dfe82611de1565b9050919050565b611e0e81611df3565b82525050565b6000602082019050611e296000830184611e05565b92915050565b6000602082019050611e446000830184611960565b92915050565b60008060408385031215611e6157611e606118f3565b5b6000611e6f8582860161191e565b9250506020611e808582860161191e565b9150509250929050565b60008060008060008060c08789031215611ea757611ea66118f3565b5b6000611eb589828a0161191e565b965050602087013567ffffffffffffffff811115611ed657611ed56118f8565b5b611ee289828a01611c65565b955050604087013567ffffffffffffffff811115611f0357611f026118f8565b5b611f0f89828a01611c65565b945050606087013567ffffffffffffffff811115611f3057611f2f6118f8565b5b611f3c89828a01611c65565b9350506080611f4d89828a0161191e565b92505060a0611f5e89828a0161191e565b9150509295509295509295565b611f748161198f565b8114611f7f57600080fd5b50565b600081359050611f9181611f6b565b92915050565b60008060408385031215611fae57611fad6118f3565b5b6000611fbc85828601611f82565b9250506020611fcd8582860161191e565b9150509250929050565b600060208284031215611fed57611fec6118f3565b5b6000611ffb84828501611f82565b91505092915050565b600060208201905061201960008301846119a1565b92915050565b7f4f6e6c79207265776172642063726561746f722063616e2066756c66696c6c2060008201527f7468652065786368616e67650000000000000000000000000000000000000000602082015250565b600061207b602c83611a37565b91506120868261201f565b604082019050919050565b600060208201905081810360008301526120aa8161206e565b9050919050565b7f45786368616e676520616c72656164792066756c66696c6c6564000000000000600082015250565b60006120e7601a83611a37565b91506120f2826120b1565b602082019050919050565b60006020820190508181036000830152612116816120da565b9050919050565b7f4e487b7100000000000000000000000000000000000000000000000000000000600052602260045260246000fd5b6000600282049050600182168061216457607f821691505b6020821081036121775761217661211d565b5b50919050565b7f4f6e6c792063726561746f722063616e2075706461746520746865207265776160008201527f7264000000000000000000000000000000000000000000000000000000000000602082015250565b60006121d9602283611a37565b91506121e48261217d565b604082019050919050565b60006020820190508181036000830152612208816121cc565b9050919050565b7f546f6b656e207072696365206d7573742062652067726561746572207468616e60008201527f207a65726f000000000000000000000000000000000000000000000000000000602082015250565b600061226b602583611a37565b91506122768261220f565b604082019050919050565b6000602082019050818103600083015261229a8161225e565b9050919050565b60008190508160005260206000209050919050565b60006020601f8301049050919050565b600082821b905092915050565b6000600883026123037fffffffffffffffffffffffffffffffffffffffffffffffffffffffffffffffff826122c6565b61230d86836122c6565b95508019841693508086168417925050509392505050565b600061234061233b612336846118fd565b611db5565b6118fd565b9050919050565b6000819050919050565b61235a83612325565b61236e61236682612347565b8484546122d3565b825550505050565b600090565b612383612376565b61238e818484612351565b505050565b5b818110156123b2576123a760008261237b565b600181019050612394565b5050565b601f8211156123f7576123c8816122a1565b6123d1846122b6565b810160208510156123e0578190505b6123f46123ec856122b6565b830182612393565b50505b505050565b600082821c905092915050565b600061241a600019846008026123fc565b1980831691505092915050565b60006124338383612409565b9150826002028217905092915050565b61244c82611a2c565b67ffffffffffffffff81111561246557612464611b68565b5b61246f825461214c565b61247a8282856123b6565b600060209050601f8311600181146124ad576000841561249b578287015190505b6124a58582612427565b86555061250d565b601f1984166124bb866122a1565b60005b828110156124e3578489015182556001820191506020850194506020810190506124be565b8683101561250057848901516124fc601f891682612409565b8355505b6001600288020188555050505b505050505050565b6000606082019050818103600083015261252f8186611a83565b905061253e6020830185611960565b61254b60408301846119bc565b949350505050565b7f526577617264206973206e6f7420616374697665000000000000000000000000600082015250565b6000612589601483611a37565b915061259482612553565b602082019050919050565b600060208201905081810360008301526125b88161257c565b9050919050565b7f526577617264206f7574206f662073746f636b00000000000000000000000000600082015250565b60006125f5601383611a37565b9150612600826125bf565b602082019050919050565b60006020820190508181036000830152612624816125e8565b9050919050565b60008151905061263a81611907565b92915050565b600060208284031215612656576126556118f3565b5b60006126648482850161262b565b91505092915050565b7f496e73756666696369656e7420746f6b656e2062616c616e6365000000000000600082015250565b60006126a3601a83611a37565b91506126ae8261266d565b602082019050919050565b600060208201905081810360008301526126d281612696565b9050919050565b60006040820190506126ee60008301856119a1565b6126fb6020830184611960565b9392505050565b7f4e487b7100000000000000000000000000000000000000000000000000000000600052601160045260246000fd5b600061273c826118fd565b91506000820361274f5761274e612702565b5b600182039050919050565b6000612765826118fd565b91507fffffffffffffffffffffffffffffffffffffffffffffffffffffffffffffffff820361279757612796612702565b5b600182019050919050565b7f496e646578206f7574206f6620626f756e647300000000000000000000000000600082015250565b60006127d8601383611a37565b91506127e3826127a2565b602082019050919050565b60006020820190508181036000830152612807816127cb565b9050919050565b7f4e487b7100000000000000000000000000000000000000000000000000000000600052603260045260246000fd5b7f53746f636b206d7573742062652067726561746572207468616e207a65726f00600082015250565b6000612873601f83611a37565b915061287e8261283d565b602082019050919050565b600060208201905081810360008301526128a281612866565b9050919050565b600060408201905081810360008301526128c38185611a83565b90506128d26020830184611960565b939250505056fea26469706673582212200f632d62acbe1f9702a8991d7031486cf840d3611468b7d9bbf69a73f9a0cd9464736f6c634300081c0033",
  "linkReferences": {},
  "deployedLinkReferences": {}
}