{
  "_format": "hh-sol-artifact-1",
  "contractName": "TaskRegistry",
  "sourceName": "solidity/TaskRegistry.sol",
  "abi": [
    {
      "inputs": [],
      "stateMutability": "nonpayable",
      "type": "constructor"
    },
    {
      "anonymous": false,
      "inputs": [
        {
          "indexed": true,
          "internalType": "uint256",
          "name": "taskId",
          "type": "uint256"
        },
        {
          "indexed": true,
          "internalType": "address",
          "name": "recipient",
          "type": "address"
        },
        {
          "indexed": false,
          "internalType": "uint256",
          "name": "amount",
          "type": "uint256"
        }
      ],
      "name": "RewardTransferred",
      "type": "event"
    },
    {
      "anonymous": false,
      "inputs": [
        {
          "indexed": true,
          "internalType": "uint256",
          "name": "taskId",
          "type": "uint256"
        },
        {
          "indexed": true,
          "internalType": "address",
          "name": "approvedBy",
          "type": "address"
        }
      ],
      "name": "TaskApproved",
      "type": "event"
    },
    {
      "anonymous": false,
      "inputs": [
        {
          "indexed": true,
          "internalType": "uint256",
          "name": "taskId",
          "type": "uint256"
        },
        {
          "indexed": true,
          "internalType": "address",
          "name": "assignedTo",
          "type": "address"
        }
      ],
      "name": "TaskAssigned",
      "type": "event"
    },
    {
      "anonymous": false,
      "inputs": [
        {
          "indexed": true,
          "internalType": "uint256",
          "name": "taskId",
          "type": "uint256"
        },
        {
          "indexed": true,
          "internalType": "address",
          "name": "completedBy",
          "type": "address"
        }
      ],
      "name": "TaskCompleted",
      "type": "event"
    },
    {
      "anonymous": false,
      "inputs": [
        {
          "indexed": true,
          "internalType": "uint256",
          "name": "taskId",
          "type": "uint256"
        },
        {
          "indexed": true,
          "internalType": "address",
          "name": "creator",
          "type": "address"
        },
        {
          "indexed": false,
          "internalType": "string",
          "name": "title",
          "type": "string"
        },
        {
          "indexed": false,
          "internalType": "uint256",
          "name": "reward",
          "type": "uint256"
        }
      ],
      "name": "TaskCreated",
      "type": "event"
    },
    {
      "anonymous": false,
      "inputs": [
        {
          "indexed": true,
          "internalType": "uint256",
          "name": "taskId",
          "type": "uint256"
        },
        {
          "indexed": true,
          "internalType": "address",
          "name": "rejectedBy",
          "type": "address"
        }
      ],
      "name": "TaskRejected",
      "type": "event"
    },
    {
      "inputs": [
        {
          "internalType": "uint256",
          "name": "taskId",
          "type": "uint256"
        }
      ],
      "name": "approveTask",
      "outputs": [],
      "stateMutability": "nonpayable",
      "type": "function"
    },
    {
      "inputs": [
        {
          "internalType": "uint256",
          "name": "taskId",
          "type": "uint256"
        },
        {
          "internalType": "address",
          "name": "childAddress",
          "type": "address"
        }
      ],
      "name": "assignTask",
      "outputs": [],
      "stateMutability": "nonpayable",
      "type": "function"
    },
    {
      "inputs": [
        {
          "internalType": "uint256",
          "name": "taskId",
          "type": "uint256"
        }
      ],
      "name": "completeTask",
      "outputs": [],
      "stateMutability": "nonpayable",
      "type": "function"
    },
    {
      "inputs": [
        {
          "internalType": "string",
          "name": "title",
          "type": "string"
        },
        {
          "internalType": "string",
          "name": "description",
          "type": "string"
        },
        {
          "internalType": "uint256",
          "name": "reward",
          "type": "uint256"
        }
      ],
      "name": "createTask",
      "outputs": [
        {
          "internalType": "uint256",
          "name": "",
          "type": "uint256"
        }
      ],
      "stateMutability": "payable",
      "type": "function"
    },
    {
      "inputs": [
        {
          "internalType": "uint256",
          "name": "taskId",
          "type": "uint256"
        }
      ],
      "name": "getTask",
      "outputs": [
        {
          "internalType": "uint256",
          "name": "",
          "type": "uint256"
        },
        {
          "internalType": "address",
          "name": "",
          "type": "address"
        },
        {
          "internalType": "address",
          "name": "",
          "type": "address"
        },
        {
          "internalType": "string",
          "name": "",
          "type": "string"
        },
        {
          "internalType": "string",
          "name": "",
          "type": "string"
        },
        {
          "internalType": "uint256",
          "name": "",
          "type": "uint256"
        },
        {
          "internalType": "bool",
          "name": "",
          "type": "bool"
        },
        {
          "internalType": "bool",
          "name": "",
          "type": "bool"
        },
        {
          "internalType": "bool",
          "name": "",
          "type": "bool"
        }
      ],
      "stateMutability": "view",
      "type": "function"
    },
    {
      "inputs": [],
      "name": "owner",
      "outputs": [
        {
          "internalType": "address",
          "name": "",
          "type": "address"
        }
      ],
      "stateMutability": "view",
      "type": "function"
    },
    {
      "inputs": [
        {
          "internalType": "uint256",
          "name": "taskId",
          "type": "uint256"
        }
      ],
      "name": "rejectTask",
      "outputs": [],
      "stateMutability": "nonpayable",
      "type": "function"
    },
    {
      "inputs": [],
      "name": "taskCount",
      "outputs": [
        {
          "internalType": "uint256",
          "name": "",
          "type": "uint256"
        }
      ],
      "stateMutability": "view",
      "type": "function"
    },
    {
      "inputs": [
        {
          "internalType": "uint256",
          "name": "",
          "type": "uint256"
        }
      ],
      "name": "tasks",
      "outputs": [
        {
          "internalType": "uint256",
          "name": "id",
          "type": "uint256"
        },
        {
          "internalType": "address",
          "name": "creator",
          "type": "address"
        },
        {
          "internalType": "address",
          "name": "assignedTo",
          "type": "address"
        },
        {
          "internalType": "string",
          "name": "title",
          "type": "string"
        },
        {
          "internalType": "string",
          "name": "description",
          "type": "string"
        },
        {
          "internalType": "uint256",
          "name": "reward",
          "type": "uint256"
        },
        {
          "internalType": "bool",
          "name": "completed",
          "type": "bool"
        },
        {
          "internalType": "bool",
          "name": "approved",
          "type": "bool"
        },
        {
          "internalType": "bool",
          "name": "rejected",
          "type": "bool"
        }
      ],
      "stateMutability": "view",
      "type": "function"
    },
    {
      "inputs": [],
      "name": "withdraw",
      "outputs": [],
      "stateMutability": "nonpayable",
      "type": "function"
    },
    {
      "stateMutability": "payable",
      "type": "receive"
    }
  ],
  "bytecode": "0x60806040526000600155348015601457600080fd5b5033600260006101000a81548173ffffffffffffffffffffffffffffffffffffffff021916908373ffffffffffffffffffffffffffffffffffffffff160217905550612187806100656000396000f3fe6080604052600436106100955760003560e01c80637d81b40b116100595780637d81b40b1461017f5780638d977672146101a85780638da5cb5b146101ed578063b6cb58a514610218578063e1e29558146102435761009c565b80630a07fae6146100a15780631d65e77e146100ca5780633ccfd60b1461010f57806341a4e30a146101265780635293ee81146101565761009c565b3661009c57005b600080fd5b3480156100ad57600080fd5b506100c860048036038101906100c3919061146b565b61026c565b005b3480156100d657600080fd5b506100f160048036038101906100ec919061146b565b61053b565b60405161010699989796959493929190611593565b60405180910390f35b34801561011b57600080fd5b506101246107ee565b005b610140600480360381019061013b9190611763565b6108e9565b60405161014d91906117ee565b60405180910390f35b34801561016257600080fd5b5061017d60048036038101906101789190611835565b610b62565b005b34801561018b57600080fd5b506101a660048036038101906101a1919061146b565b610d45565b005b3480156101b457600080fd5b506101cf60048036038101906101ca919061146b565b611080565b6040516101e499989796959493929190611593565b60405180910390f35b3480156101f957600080fd5b50610202611245565b60405161020f9190611875565b60405180910390f35b34801561022457600080fd5b5061022d61126b565b60405161023a91906117ee565b60405180910390f35b34801561024f57600080fd5b5061026a6004803603810190610265919061146b565b611271565b005b3373ffffffffffffffffffffffffffffffffffffffff1660008083815260200190815260200160002060010160009054906101000a900473ffffffffffffffffffffffffffffffffffffffff1673ffffffffffffffffffffffffffffffffffffffff161461030f576040517f08c379a000000000000000000000000000000000000000000000000000000000815260040161030690611902565b60405180910390fd5b60008082815260200190815260200160002060060160009054906101000a900460ff16610371576040517f08c379a00000000000000000000000000000000000000000000000000000000081526004016103689061196e565b60405180910390fd5b60008082815260200190815260200160002060060160019054906101000a900460ff16156103d4576040517f08c379a00000000000000000000000000000000000000000000000000000000081526004016103cb906119da565b60405180910390fd5b600160008083815260200190815260200160002060060160016101000a81548160ff021916908315150217905550600080600083815260200190815260200160002060020160009054906101000a900473ffffffffffffffffffffffffffffffffffffffff16905060008060008481526020019081526020016000206005015490503373ffffffffffffffffffffffffffffffffffffffff16837fb664fa2a6a4e034515db6ca96da0095c8d853e3349904bd555c50d1ac9a6359560405160405180910390a38173ffffffffffffffffffffffffffffffffffffffff16837f99f2f3325e35634c09536d4983b1b2b0c9313e74f2b74508c7a1a521f6fce9ab836040516104e191906117ee565b60405180910390a360008290508073ffffffffffffffffffffffffffffffffffffffff166108fc839081150290604051600060405180830381858888f19350505050158015610534573d6000803e3d6000fd5b5050505050565b600080600060608060008060008060008060008c815260200190815260200160002060405180610120016040529081600082015481526020016001820160009054906101000a900473ffffffffffffffffffffffffffffffffffffffff1673ffffffffffffffffffffffffffffffffffffffff1673ffffffffffffffffffffffffffffffffffffffff1681526020016002820160009054906101000a900473ffffffffffffffffffffffffffffffffffffffff1673ffffffffffffffffffffffffffffffffffffffff1673ffffffffffffffffffffffffffffffffffffffff16815260200160038201805461062f90611a29565b80601f016020809104026020016040519081016040528092919081815260200182805461065b90611a29565b80156106a85780601f1061067d576101008083540402835291602001916106a8565b820191906000526020600020905b81548152906001019060200180831161068b57829003601f168201915b505050505081526020016004820180546106c190611a29565b80601f01602080910402602001604051908101604052809291908181526020018280546106ed90611a29565b801561073a5780601f1061070f5761010080835404028352916020019161073a565b820191906000526020600020905b81548152906001019060200180831161071d57829003601f168201915b50505050508152602001600582015481526020016006820160009054906101000a900460ff161515151581526020016006820160019054906101000a900460ff161515151581526020016006820160029054906101000a900460ff1615151515815250509050806000015181602001518260400151836060015184608001518560a001518660c001518760e00151886101000151995099509950995099509950995099509950509193959799909294969850565b600260009054906101000a900473ffffffffffffffffffffffffffffffffffffffff1673ffffffffffffffffffffffffffffffffffffffff163373ffffffffffffffffffffffffffffffffffffffff161461087e576040517f08c379a000000000000000000000000000000000000000000000000000000000815260040161087590611aa6565b60405180910390fd5b600260009054906101000a900473ffffffffffffffffffffffffffffffffffffffff1673ffffffffffffffffffffffffffffffffffffffff166108fc479081150290604051600060405180830381858888f193505050501580156108e6573d6000803e3d6000fd5b50565b600081341461092d576040517f08c379a000000000000000000000000000000000000000000000000000000000815260040161092490611b12565b60405180910390fd5b6001600081548092919061094090611b61565b919050555060405180610120016040528060015481526020013373ffffffffffffffffffffffffffffffffffffffff168152602001600073ffffffffffffffffffffffffffffffffffffffff1681526020018581526020018481526020018381526020016000151581526020016000151581526020016000151581525060008060015481526020019081526020016000206000820151816000015560208201518160010160006101000a81548173ffffffffffffffffffffffffffffffffffffffff021916908373ffffffffffffffffffffffffffffffffffffffff16021790555060408201518160020160006101000a81548173ffffffffffffffffffffffffffffffffffffffff021916908373ffffffffffffffffffffffffffffffffffffffff1602179055506060820151816003019081610a7e9190611d55565b506080820151816004019081610a949190611d55565b5060a0820151816005015560c08201518160060160006101000a81548160ff02191690831515021790555060e08201518160060160016101000a81548160ff0219169083151502179055506101008201518160060160026101000a81548160ff0219169083151502179055509050503373ffffffffffffffffffffffffffffffffffffffff166001547f9e3c9757475c00b86393e183b68033bb76e48fa164849c7428ad17f62e1954a78685604051610b4e929190611e27565b60405180910390a360015490509392505050565b3373ffffffffffffffffffffffffffffffffffffffff1660008084815260200190815260200160002060010160009054906101000a900473ffffffffffffffffffffffffffffffffffffffff1673ffffffffffffffffffffffffffffffffffffffff1614610c05576040517f08c379a0000000000000000000000000000000000000000000000000000000008152600401610bfc90611ec9565b60405180910390fd5b600073ffffffffffffffffffffffffffffffffffffffff1660008084815260200190815260200160002060020160009054906101000a900473ffffffffffffffffffffffffffffffffffffffff1673ffffffffffffffffffffffffffffffffffffffff1614610ca9576040517f08c379a0000000000000000000000000000000000000000000000000000000008152600401610ca090611f35565b60405180910390fd5b8060008084815260200190815260200160002060020160006101000a81548173ffffffffffffffffffffffffffffffffffffffff021916908373ffffffffffffffffffffffffffffffffffffffff1602179055508073ffffffffffffffffffffffffffffffffffffffff16827f52476d55ecef5cf13caa64038f297fe6bbf865d9584a98b8722a15a6d5db128f60405160405180910390a35050565b3373ffffffffffffffffffffffffffffffffffffffff1660008083815260200190815260200160002060010160009054906101000a900473ffffffffffffffffffffffffffffffffffffffff1673ffffffffffffffffffffffffffffffffffffffff1614610de8576040517f08c379a0000000000000000000000000000000000000000000000000000000008152600401610ddf90611fc7565b60405180910390fd5b60008082815260200190815260200160002060060160009054906101000a900460ff16610e4a576040517f08c379a0000000000000000000000000000000000000000000000000000000008152600401610e419061196e565b60405180910390fd5b60008082815260200190815260200160002060060160019054906101000a900460ff1615610ead576040517f08c379a0000000000000000000000000000000000000000000000000000000008152600401610ea4906119da565b60405180910390fd5b60008082815260200190815260200160002060060160029054906101000a900460ff1615610f10576040517f08c379a0000000000000000000000000000000000000000000000000000000008152600401610f0790612033565b60405180910390fd5b600160008083815260200190815260200160002060060160026101000a81548160ff021916908315150217905550600080600083815260200190815260200160002060010160009054906101000a900473ffffffffffffffffffffffffffffffffffffffff1690508073ffffffffffffffffffffffffffffffffffffffff166108fc600080858152602001908152602001600020600501549081150290604051600060405180830381858888f19350505050158015610fd3573d6000803e3d6000fd5b503373ffffffffffffffffffffffffffffffffffffffff16827fae1c93c6393c5abab2eaef81c691beeb381335c7913caabf8feaa0b24bd03cc060405160405180910390a38073ffffffffffffffffffffffffffffffffffffffff16827f99f2f3325e35634c09536d4983b1b2b0c9313e74f2b74508c7a1a521f6fce9ab6000808681526020019081526020016000206005015460405161107491906117ee565b60405180910390a35050565b60006020528060005260406000206000915090508060000154908060010160009054906101000a900473ffffffffffffffffffffffffffffffffffffffff16908060020160009054906101000a900473ffffffffffffffffffffffffffffffffffffffff16908060030180546110f590611a29565b80601f016020809104026020016040519081016040528092919081815260200182805461112190611a29565b801561116e5780601f106111435761010080835404028352916020019161116e565b820191906000526020600020905b81548152906001019060200180831161115157829003601f168201915b50505050509080600401805461118390611a29565b80601f01602080910402602001604051908101604052809291908181526020018280546111af90611a29565b80156111fc5780601f106111d1576101008083540402835291602001916111fc565b820191906000526020600020905b8154815290600101906020018083116111df57829003601f168201915b5050505050908060050154908060060160009054906101000a900460ff16908060060160019054906101000a900460ff16908060060160029054906101000a900460ff16905089565b600260009054906101000a900473ffffffffffffffffffffffffffffffffffffffff1681565b60015481565b3373ffffffffffffffffffffffffffffffffffffffff1660008083815260200190815260200160002060020160009054906101000a900473ffffffffffffffffffffffffffffffffffffffff1673ffffffffffffffffffffffffffffffffffffffff1614611314576040517f08c379a000000000000000000000000000000000000000000000000000000000815260040161130b906120c5565b60405180910390fd5b60008082815260200190815260200160002060060160009054906101000a900460ff1615611377576040517f08c379a000000000000000000000000000000000000000000000000000000000815260040161136e90612131565b60405180910390fd5b600160008083815260200190815260200160002060060160006101000a81548160ff02191690831515021790555060008082815260200190815260200160002060020160009054906101000a900473ffffffffffffffffffffffffffffffffffffffff1673ffffffffffffffffffffffffffffffffffffffff16817fbb5889c77948badf90e8a5c73d55265e5f5d6e4837a79a78c5669691b897faed60405160405180910390a350565b6000604051905090565b600080fd5b600080fd5b6000819050919050565b61144881611435565b811461145357600080fd5b50565b6000813590506114658161143f565b92915050565b6000602082840312156114815761148061142b565b5b600061148f84828501611456565b91505092915050565b6114a181611435565b82525050565b600073ffffffffffffffffffffffffffffffffffffffff82169050919050565b60006114d2826114a7565b9050919050565b6114e2816114c7565b82525050565b600081519050919050565b600082825260208201905092915050565b60005b83811015611522578082015181840152602081019050611507565b60008484015250505050565b6000601f19601f8301169050919050565b600061154a826114e8565b61155481856114f3565b9350611564818560208601611504565b61156d8161152e565b840191505092915050565b60008115159050919050565b61158d81611578565b82525050565b6000610120820190506115a9600083018c611498565b6115b6602083018b6114d9565b6115c3604083018a6114d9565b81810360608301526115d5818961153f565b905081810360808301526115e9818861153f565b90506115f860a0830187611498565b61160560c0830186611584565b61161260e0830185611584565b611620610100830184611584565b9a9950505050505050505050565b600080fd5b600080fd5b7f4e487b7100000000000000000000000000000000000000000000000000000000600052604160045260246000fd5b6116708261152e565b810181811067ffffffffffffffff8211171561168f5761168e611638565b5b80604052505050565b60006116a2611421565b90506116ae8282611667565b919050565b600067ffffffffffffffff8211156116ce576116cd611638565b5b6116d78261152e565b9050602081019050919050565b82818337600083830152505050565b6000611706611701846116b3565b611698565b90508281526020810184848401111561172257611721611633565b5b61172d8482856116e4565b509392505050565b600082601f83011261174a5761174961162e565b5b813561175a8482602086016116f3565b91505092915050565b60008060006060848603121561177c5761177b61142b565b5b600084013567ffffffffffffffff81111561179a57611799611430565b5b6117a686828701611735565b935050602084013567ffffffffffffffff8111156117c7576117c6611430565b5b6117d386828701611735565b92505060406117e486828701611456565b9150509250925092565b60006020820190506118036000830184611498565b92915050565b611812816114c7565b811461181d57600080fd5b50565b60008135905061182f81611809565b92915050565b6000806040838503121561184c5761184b61142b565b5b600061185a85828601611456565b925050602061186b85828601611820565b9150509250929050565b600060208201905061188a60008301846114d9565b92915050565b7f4f6e6c79207461736b2063726561746f722063616e20617070726f766520746860008201527f65207461736b0000000000000000000000000000000000000000000000000000602082015250565b60006118ec6026836114f3565b91506118f782611890565b604082019050919050565b6000602082019050818103600083015261191b816118df565b9050919050565b7f5461736b206e6f7420636f6d706c657465642079657400000000000000000000600082015250565b60006119586016836114f3565b915061196382611922565b602082019050919050565b600060208201905081810360008301526119878161194b565b9050919050565b7f5461736b20616c726561647920617070726f7665640000000000000000000000600082015250565b60006119c46015836114f3565b91506119cf8261198e565b602082019050919050565b600060208201905081810360008301526119f3816119b7565b9050919050565b7f4e487b7100000000000000000000000000000000000000000000000000000000600052602260045260246000fd5b60006002820490506001821680611a4157607f821691505b602082108103611a5457611a536119fa565b5b50919050565b7f4f6e6c79206f776e65722063616e207769746864726177000000000000000000600082015250565b6000611a906017836114f3565b9150611a9b82611a5a565b602082019050919050565b60006020820190508181036000830152611abf81611a83565b9050919050565b7f6d73672e76616c7565206d75737420657175616c207265776172640000000000600082015250565b6000611afc601b836114f3565b9150611b0782611ac6565b602082019050919050565b60006020820190508181036000830152611b2b81611aef565b9050919050565b7f4e487b7100000000000000000000000000000000000000000000000000000000600052601160045260246000fd5b6000611b6c82611435565b91507fffffffffffffffffffffffffffffffffffffffffffffffffffffffffffffffff8203611b9e57611b9d611b32565b5b600182019050919050565b60008190508160005260206000209050919050565b60006020601f8301049050919050565b600082821b905092915050565b600060088302611c0b7fffffffffffffffffffffffffffffffffffffffffffffffffffffffffffffffff82611bce565b611c158683611bce565b95508019841693508086168417925050509392505050565b6000819050919050565b6000611c52611c4d611c4884611435565b611c2d565b611435565b9050919050565b6000819050919050565b611c6c83611c37565b611c80611c7882611c59565b848454611bdb565b825550505050565b600090565b611c95611c88565b611ca0818484611c63565b505050565b5b81811015611cc457611cb9600082611c8d565b600181019050611ca6565b5050565b601f821115611d0957611cda81611ba9565b611ce384611bbe565b81016020851015611cf2578190505b611d06611cfe85611bbe565b830182611ca5565b50505b505050565b600082821c905092915050565b6000611d2c60001984600802611d0e565b1980831691505092915050565b6000611d458383611d1b565b9150826002028217905092915050565b611d5e826114e8565b67ffffffffffffffff811115611d7757611d76611638565b5b611d818254611a29565b611d8c828285611cc8565b600060209050601f831160018114611dbf5760008415611dad578287015190505b611db78582611d39565b865550611e1f565b601f198416611dcd86611ba9565b60005b82811015611df557848901518255600182019150602085019450602081019050611dd0565b86831015611e125784890151611e0e601f891682611d1b565b8355505b6001600288020188555050505b505050505050565b60006040820190508181036000830152611e41818561153f565b9050611e506020830184611498565b9392505050565b7f4f6e6c79207461736b2063726561746f722063616e2061737369676e2074686560008201527f207461736b000000000000000000000000000000000000000000000000000000602082015250565b6000611eb36025836114f3565b9150611ebe82611e57565b604082019050919050565b60006020820190508181036000830152611ee281611ea6565b9050919050565b7f5461736b20616c72656164792061737369676e65640000000000000000000000600082015250565b6000611f1f6015836114f3565b9150611f2a82611ee9565b602082019050919050565b60006020820190508181036000830152611f4e81611f12565b9050919050565b7f4f6e6c79207461736b2063726561746f722063616e2072656a6563742074686560008201527f207461736b000000000000000000000000000000000000000000000000000000602082015250565b6000611fb16025836114f3565b9150611fbc82611f55565b604082019050919050565b60006020820190508181036000830152611fe081611fa4565b9050919050565b7f5461736b20616c72656164792072656a65637465640000000000000000000000600082015250565b600061201d6015836114f3565b915061202882611fe7565b602082019050919050565b6000602082019050818103600083015261204c81612010565b9050919050565b7f4f6e6c792061737369676e6564206368696c642063616e20636f6d706c65746560008201527f20746865207461736b0000000000000000000000000000000000000000000000602082015250565b60006120af6029836114f3565b91506120ba82612053565b604082019050919050565b600060208201905081810360008301526120de816120a2565b9050919050565b7f5461736b20616c726561647920636f6d706c6574656400000000000000000000600082015250565b600061211b6016836114f3565b9150612126826120e5565b602082019050919050565b6000602082019050818103600083015261214a8161210e565b905091905056fea2646970667358221220ca7a2d3d088de4f59e425b531e8ed7fa38e7a15cc3c4c4ddca74dc80a633b62d64736f6c634300081c0033",
  "linkReferences": {},
  "deployedLinkReferences": {}
}