{
	"contracts/solidity/TaskRegistry.sol": {
		"TaskRegistry": {
			"abi": [
				{
					"inputs": [],
					"stateMutability": "nonpayable",
					"type": "constructor"
				},
				{
					"anonymous": false,
					"inputs": [
						{
							"indexed": true,
							"internalType": "uint256",
							"name": "taskId",
							"type": "uint256"
						},
						{
							"indexed": true,
							"internalType": "address",
							"name": "recipient",
							"type": "address"
						},
						{
							"indexed": false,
							"internalType": "uint256",
							"name": "amount",
							"type": "uint256"
						}
					],
					"name": "RewardTransferred",
					"type": "event"
				},
				{
					"anonymous": false,
					"inputs": [
						{
							"indexed": true,
							"internalType": "uint256",
							"name": "taskId",
							"type": "uint256"
						},
						{
							"indexed": true,
							"internalType": "address",
							"name": "approvedBy",
							"type": "address"
						}
					],
					"name": "TaskApproved",
					"type": "event"
				},
				{
					"anonymous": false,
					"inputs": [
						{
							"indexed": true,
							"internalType": "uint256",
							"name": "taskId",
							"type": "uint256"
						},
						{
							"indexed": true,
							"internalType": "address",
							"name": "assignedTo",
							"type": "address"
						}
					],
					"name": "TaskAssigned",
					"type": "event"
				},
				{
					"anonymous": false,
					"inputs": [
						{
							"indexed": true,
							"internalType": "uint256",
							"name": "taskId",
							"type": "uint256"
						},
						{
							"indexed": true,
							"internalType": "address",
							"name": "completedBy",
							"type": "address"
						}
					],
					"name": "TaskCompleted",
					"type": "event"
				},
				{
					"anonymous": false,
					"inputs": [
						{
							"indexed": true,
							"internalType": "uint256",
							"name": "taskId",
							"type": "uint256"
						},
						{
							"indexed": true,
							"internalType": "address",
							"name": "creator",
							"type": "address"
						},
						{
							"indexed": false,
							"internalType": "string",
							"name": "title",
							"type": "string"
						},
						{
							"indexed": false,
							"internalType": "uint256",
							"name": "reward",
							"type": "uint256"
						}
					],
					"name": "TaskCreated",
					"type": "event"
				},
				{
					"inputs": [
						{
							"internalType": "uint256",
							"name": "taskId",
							"type": "uint256"
						}
					],
					"name": "approveTask",
					"outputs": [],
					"stateMutability": "payable",
					"type": "function"
				},
				{
					"inputs": [
						{
							"internalType": "uint256",
							"name": "taskId",
							"type": "uint256"
						},
						{
							"internalType": "address",
							"name": "childAddress",
							"type": "address"
						}
					],
					"name": "assignTask",
					"outputs": [],
					"stateMutability": "nonpayable",
					"type": "function"
				},
				{
					"inputs": [
						{
							"internalType": "uint256",
							"name": "taskId",
							"type": "uint256"
						}
					],
					"name": "completeTask",
					"outputs": [],
					"stateMutability": "nonpayable",
					"type": "function"
				},
				{
					"inputs": [
						{
							"internalType": "string",
							"name": "title",
							"type": "string"
						},
						{
							"internalType": "string",
							"name": "description",
							"type": "string"
						},
						{
							"internalType": "uint256",
							"name": "reward",
							"type": "uint256"
						}
					],
					"name": "createTask",
					"outputs": [
						{
							"internalType": "uint256",
							"name": "",
							"type": "uint256"
						}
					],
					"stateMutability": "payable",
					"type": "function"
				},
				{
					"inputs": [
						{
							"internalType": "uint256",
							"name": "taskId",
							"type": "uint256"
						}
					],
					"name": "getTask",
					"outputs": [
						{
							"internalType": "uint256",
							"name": "",
							"type": "uint256"
						},
						{
							"internalType": "address",
							"name": "",
							"type": "address"
						},
						{
							"internalType": "address",
							"name": "",
							"type": "address"
						},
						{
							"internalType": "string",
							"name": "",
							"type": "string"
						},
						{
							"internalType": "string",
							"name": "",
							"type": "string"
						},
						{
							"internalType": "uint256",
							"name": "",
							"type": "uint256"
						},
						{
							"internalType": "bool",
							"name": "",
							"type": "bool"
						},
						{
							"internalType": "bool",
							"name": "",
							"type": "bool"
						}
					],
					"stateMutability": "view",
					"type": "function"
				},
				{
					"inputs": [],
					"name": "owner",
					"outputs": [
						{
							"internalType": "address",
							"name": "",
							"type": "address"
						}
					],
					"stateMutability": "view",
					"type": "function"
				},
				{
					"inputs": [],
					"name": "taskCount",
					"outputs": [
						{
							"internalType": "uint256",
							"name": "",
							"type": "uint256"
						}
					],
					"stateMutability": "view",
					"type": "function"
				},
				{
					"inputs": [
						{
							"internalType": "uint256",
							"name": "",
							"type": "uint256"
						}
					],
					"name": "tasks",
					"outputs": [
						{
							"internalType": "uint256",
							"name": "id",
							"type": "uint256"
						},
						{
							"internalType": "address",
							"name": "creator",
							"type": "address"
						},
						{
							"internalType": "address",
							"name": "assignedTo",
							"type": "address"
						},
						{
							"internalType": "string",
							"name": "title",
							"type": "string"
						},
						{
							"internalType": "string",
							"name": "description",
							"type": "string"
						},
						{
							"internalType": "uint256",
							"name": "reward",
							"type": "uint256"
						},
						{
							"internalType": "bool",
							"name": "completed",
							"type": "bool"
						},
						{
							"internalType": "bool",
							"name": "approved",
							"type": "bool"
						}
					],
					"stateMutability": "view",
					"type": "function"
				},
				{
					"inputs": [],
					"name": "withdraw",
					"outputs": [],
					"stateMutability": "nonpayable",
					"type": "function"
				}
			],
			"devdoc": {
				"details": "Contract for managing child tasks and rewards",
				"kind": "dev",
				"methods": {
					"approveTask(uint256)": {
						"details": "Approves a completed task and transfers the reward"
					},
					"assignTask(uint256,address)": {
						"details": "Assigns a task to a child's address"
					},
					"completeTask(uint256)": {
						"details": "Marks a task as completed by the assigned child"
					},
					"createTask(string,string,uint256)": {
						"details": "Creates a new task"
					},
					"getTask(uint256)": {
						"details": "Retrieves a task by ID"
					}
				},
				"title": "TaskRegistry",
				"version": 1
			},
			"evm": {
				"assembly": "    /* \"contracts/solidity/TaskRegistry.sol\":142:3819  contract TaskRegistry {... */\n  mstore(0x40, 0x80)\n    /* \"contracts/solidity/TaskRegistry.sol\":459:460  0 */\n  0x00\n    /* \"contracts/solidity/TaskRegistry.sol\":432:460  uint256 public taskCount = 0 */\n  0x01\n  sstore\n    /* \"contracts/solidity/TaskRegistry.sol\":498:547  constructor() {... */\n  callvalue\n  dup1\n  iszero\n  tag_1\n  jumpi\n  revert(0x00, 0x00)\ntag_1:\n  pop\n    /* \"contracts/solidity/TaskRegistry.sol\":530:540  msg.sender */\n  caller\n    /* \"contracts/solidity/TaskRegistry.sol\":522:527  owner */\n  0x02\n  0x00\n    /* \"contracts/solidity/TaskRegistry.sol\":522:540  owner = msg.sender */\n  0x0100\n  exp\n  dup2\n  sload\n  dup2\n  0xffffffffffffffffffffffffffffffffffffffff\n  mul\n  not\n  and\n  swap1\n  dup4\n  0xffffffffffffffffffffffffffffffffffffffff\n  and\n  mul\n  or\n  swap1\n  sstore\n  pop\n    /* \"contracts/solidity/TaskRegistry.sol\":142:3819  contract TaskRegistry {... */\n  dataSize(sub_0)\n  dup1\n  dataOffset(sub_0)\n  0x00\n  codecopy\n  0x00\n  return\nstop\n\nsub_0: assembly {\n        /* \"contracts/solidity/TaskRegistry.sol\":142:3819  contract TaskRegistry {... */\n      mstore(0x40, 0x80)\n      jumpi(tag_1, lt(calldatasize, 0x04))\n      shr(0xe0, calldataload(0x00))\n      dup1\n      0x5293ee81\n      gt\n      tag_11\n      jumpi\n      dup1\n      0x5293ee81\n      eq\n      tag_6\n      jumpi\n      dup1\n      0x8d977672\n      eq\n      tag_7\n      jumpi\n      dup1\n      0x8da5cb5b\n      eq\n      tag_8\n      jumpi\n      dup1\n      0xb6cb58a5\n      eq\n      tag_9\n      jumpi\n      dup1\n      0xe1e29558\n      eq\n      tag_10\n      jumpi\n      jump(tag_1)\n    tag_11:\n      dup1\n      0x0a07fae6\n      eq\n      tag_2\n      jumpi\n      dup1\n      0x1d65e77e\n      eq\n      tag_3\n      jumpi\n      dup1\n      0x3ccfd60b\n      eq\n      tag_4\n      jumpi\n      dup1\n      0x41a4e30a\n      eq\n      tag_5\n      jumpi\n    tag_1:\n      revert(0x00, 0x00)\n        /* \"contracts/solidity/TaskRegistry.sol\":2434:3167  function approveTask(uint256 taskId) public payable {... */\n    tag_2:\n      tag_12\n      0x04\n      dup1\n      calldatasize\n      sub\n      dup2\n      add\n      swap1\n      tag_13\n      swap2\n      swap1\n      tag_14\n      jump\t// in\n    tag_13:\n      tag_15\n      jump\t// in\n    tag_12:\n      stop\n        /* \"contracts/solidity/TaskRegistry.sol\":3224:3656  function getTask(uint256 taskId) public view returns (... */\n    tag_3:\n      callvalue\n      dup1\n      iszero\n      tag_16\n      jumpi\n      revert(0x00, 0x00)\n    tag_16:\n      pop\n      tag_17\n      0x04\n      dup1\n      calldatasize\n      sub\n      dup2\n      add\n      swap1\n      tag_18\n      swap2\n      swap1\n      tag_14\n      jump\t// in\n    tag_18:\n      tag_19\n      jump\t// in\n    tag_17:\n      mload(0x40)\n      tag_20\n      swap9\n      swap8\n      swap7\n      swap6\n      swap5\n      swap4\n      swap3\n      swap2\n      swap1\n      tag_21\n      jump\t// in\n    tag_20:\n      mload(0x40)\n      dup1\n      swap2\n      sub\n      swap1\n      return\n        /* \"contracts/solidity/TaskRegistry.sol\":3662:3817  function withdraw() public {... */\n    tag_4:\n      callvalue\n      dup1\n      iszero\n      tag_22\n      jumpi\n      revert(0x00, 0x00)\n    tag_22:\n      pop\n      tag_23\n      tag_24\n      jump\t// in\n    tag_23:\n      stop\n        /* \"contracts/solidity/TaskRegistry.sol\":1043:1503  function createTask(string memory title, string memory description, uint256 reward) public payable returns (uint256) {... */\n    tag_5:\n      tag_25\n      0x04\n      dup1\n      calldatasize\n      sub\n      dup2\n      add\n      swap1\n      tag_26\n      swap2\n      swap1\n      tag_27\n      jump\t// in\n    tag_26:\n      tag_28\n      jump\t// in\n    tag_25:\n      mload(0x40)\n      tag_29\n      swap2\n      swap1\n      tag_30\n      jump\t// in\n    tag_29:\n      mload(0x40)\n      dup1\n      swap2\n      sub\n      swap1\n      return\n        /* \"contracts/solidity/TaskRegistry.sol\":1573:1938  function assignTask(uint256 taskId, address childAddress) public {... */\n    tag_6:\n      callvalue\n      dup1\n      iszero\n      tag_31\n      jumpi\n      revert(0x00, 0x00)\n    tag_31:\n      pop\n      tag_32\n      0x04\n      dup1\n      calldatasize\n      sub\n      dup2\n      add\n      swap1\n      tag_33\n      swap2\n      swap1\n      tag_34\n      jump\t// in\n    tag_33:\n      tag_35\n      jump\t// in\n    tag_32:\n      stop\n        /* \"contracts/solidity/TaskRegistry.sol\":389:426  mapping(uint256 => Task) public tasks */\n    tag_7:\n      callvalue\n      dup1\n      iszero\n      tag_36\n      jumpi\n      revert(0x00, 0x00)\n    tag_36:\n      pop\n      tag_37\n      0x04\n      dup1\n      calldatasize\n      sub\n      dup2\n      add\n      swap1\n      tag_38\n      swap2\n      swap1\n      tag_14\n      jump\t// in\n    tag_38:\n      tag_39\n      jump\t// in\n    tag_37:\n      mload(0x40)\n      tag_40\n      swap9\n      swap8\n      swap7\n      swap6\n      swap5\n      swap4\n      swap3\n      swap2\n      swap1\n      tag_21\n      jump\t// in\n    tag_40:\n      mload(0x40)\n      dup1\n      swap2\n      sub\n      swap1\n      return\n        /* \"contracts/solidity/TaskRegistry.sol\":471:491  address public owner */\n    tag_8:\n      callvalue\n      dup1\n      iszero\n      tag_41\n      jumpi\n      revert(0x00, 0x00)\n    tag_41:\n      pop\n      tag_42\n      tag_43\n      jump\t// in\n    tag_42:\n      mload(0x40)\n      tag_44\n      swap2\n      swap1\n      tag_45\n      jump\t// in\n    tag_44:\n      mload(0x40)\n      dup1\n      swap2\n      sub\n      swap1\n      return\n        /* \"contracts/solidity/TaskRegistry.sol\":432:460  uint256 public taskCount = 0 */\n    tag_9:\n      callvalue\n      dup1\n      iszero\n      tag_46\n      jumpi\n      revert(0x00, 0x00)\n    tag_46:\n      pop\n      tag_47\n      tag_48\n      jump\t// in\n    tag_47:\n      mload(0x40)\n      tag_49\n      swap2\n      swap1\n      tag_30\n      jump\t// in\n    tag_49:\n      mload(0x40)\n      dup1\n      swap2\n      sub\n      swap1\n      return\n        /* \"contracts/solidity/TaskRegistry.sol\":2020:2349  function completeTask(uint256 taskId) public {... */\n    tag_10:\n      callvalue\n      dup1\n      iszero\n      tag_50\n      jumpi\n      revert(0x00, 0x00)\n    tag_50:\n      pop\n      tag_51\n      0x04\n      dup1\n      calldatasize\n      sub\n      dup2\n      add\n      swap1\n      tag_52\n      swap2\n      swap1\n      tag_14\n      jump\t// in\n    tag_52:\n      tag_53\n      jump\t// in\n    tag_51:\n      stop\n        /* \"contracts/solidity/TaskRegistry.sol\":2434:3167  function approveTask(uint256 taskId) public payable {... */\n    tag_15:\n        /* \"contracts/solidity/TaskRegistry.sol\":2529:2539  msg.sender */\n      caller\n        /* \"contracts/solidity/TaskRegistry.sol\":2504:2539  tasks[taskId].creator == msg.sender */\n      0xffffffffffffffffffffffffffffffffffffffff\n      and\n        /* \"contracts/solidity/TaskRegistry.sol\":2504:2509  tasks */\n      0x00\n        /* \"contracts/solidity/TaskRegistry.sol\":2504:2517  tasks[taskId] */\n      0x00\n        /* \"contracts/solidity/TaskRegistry.sol\":2510:2516  taskId */\n      dup4\n        /* \"contracts/solidity/TaskRegistry.sol\":2504:2517  tasks[taskId] */\n      dup2\n      mstore\n      0x20\n      add\n      swap1\n      dup2\n      mstore\n      0x20\n      add\n      0x00\n      keccak256\n        /* \"contracts/solidity/TaskRegistry.sol\":2504:2525  tasks[taskId].creator */\n      0x01\n      add\n      0x00\n      swap1\n      sload\n      swap1\n      0x0100\n      exp\n      swap1\n      div\n      0xffffffffffffffffffffffffffffffffffffffff\n      and\n        /* \"contracts/solidity/TaskRegistry.sol\":2504:2539  tasks[taskId].creator == msg.sender */\n      0xffffffffffffffffffffffffffffffffffffffff\n      and\n      eq\n        /* \"contracts/solidity/TaskRegistry.sol\":2496:2582  require(tasks[taskId].creator == msg.sender, \"Only task creator can approve the task\") */\n      tag_55\n      jumpi\n      mload(0x40)\n      0x08c379a000000000000000000000000000000000000000000000000000000000\n      dup2\n      mstore\n      0x04\n      add\n      tag_56\n      swap1\n      tag_57\n      jump\t// in\n    tag_56:\n      mload(0x40)\n      dup1\n      swap2\n      sub\n      swap1\n      revert\n    tag_55:\n        /* \"contracts/solidity/TaskRegistry.sol\":2600:2605  tasks */\n      0x00\n        /* \"contracts/solidity/TaskRegistry.sol\":2600:2613  tasks[taskId] */\n      0x00\n        /* \"contracts/solidity/TaskRegistry.sol\":2606:2612  taskId */\n      dup3\n        /* \"contracts/solidity/TaskRegistry.sol\":2600:2613  tasks[taskId] */\n      dup2\n      mstore\n      0x20\n      add\n      swap1\n      dup2\n      mstore\n      0x20\n      add\n      0x00\n      keccak256\n        /* \"contracts/solidity/TaskRegistry.sol\":2600:2623  tasks[taskId].completed */\n      0x06\n      add\n      0x00\n      swap1\n      sload\n      swap1\n      0x0100\n      exp\n      swap1\n      div\n      0xff\n      and\n        /* \"contracts/solidity/TaskRegistry.sol\":2592:2650  require(tasks[taskId].completed, \"Task not completed yet\") */\n      tag_58\n      jumpi\n      mload(0x40)\n      0x08c379a000000000000000000000000000000000000000000000000000000000\n      dup2\n      mstore\n      0x04\n      add\n      tag_59\n      swap1\n      tag_60\n      jump\t// in\n    tag_59:\n      mload(0x40)\n      dup1\n      swap2\n      sub\n      swap1\n      revert\n    tag_58:\n        /* \"contracts/solidity/TaskRegistry.sol\":2669:2674  tasks */\n      0x00\n        /* \"contracts/solidity/TaskRegistry.sol\":2669:2682  tasks[taskId] */\n      0x00\n        /* \"contracts/solidity/TaskRegistry.sol\":2675:2681  taskId */\n      dup3\n        /* \"contracts/solidity/TaskRegistry.sol\":2669:2682  tasks[taskId] */\n      dup2\n      mstore\n      0x20\n      add\n      swap1\n      dup2\n      mstore\n      0x20\n      add\n      0x00\n      keccak256\n        /* \"contracts/solidity/TaskRegistry.sol\":2669:2691  tasks[taskId].approved */\n      0x06\n      add\n      0x01\n      swap1\n      sload\n      swap1\n      0x0100\n      exp\n      swap1\n      div\n      0xff\n      and\n        /* \"contracts/solidity/TaskRegistry.sol\":2668:2691  !tasks[taskId].approved */\n      iszero\n        /* \"contracts/solidity/TaskRegistry.sol\":2660:2717  require(!tasks[taskId].approved, \"Task already approved\") */\n      tag_61\n      jumpi\n      mload(0x40)\n      0x08c379a000000000000000000000000000000000000000000000000000000000\n      dup2\n      mstore\n      0x04\n      add\n      tag_62\n      swap1\n      tag_63\n      jump\t// in\n    tag_62:\n      mload(0x40)\n      dup1\n      swap2\n      sub\n      swap1\n      revert\n    tag_61:\n        /* \"contracts/solidity/TaskRegistry.sol\":2748:2753  tasks */\n      0x00\n        /* \"contracts/solidity/TaskRegistry.sol\":2748:2761  tasks[taskId] */\n      0x00\n        /* \"contracts/solidity/TaskRegistry.sol\":2754:2760  taskId */\n      dup3\n        /* \"contracts/solidity/TaskRegistry.sol\":2748:2761  tasks[taskId] */\n      dup2\n      mstore\n      0x20\n      add\n      swap1\n      dup2\n      mstore\n      0x20\n      add\n      0x00\n      keccak256\n        /* \"contracts/solidity/TaskRegistry.sol\":2748:2768  tasks[taskId].reward */\n      0x05\n      add\n      sload\n        /* \"contracts/solidity/TaskRegistry.sol\":2735:2744  msg.value */\n      callvalue\n        /* \"contracts/solidity/TaskRegistry.sol\":2735:2768  msg.value >= tasks[taskId].reward */\n      lt\n      iszero\n        /* \"contracts/solidity/TaskRegistry.sol\":2727:2802  require(msg.value >= tasks[taskId].reward, \"Insufficient funds for reward\") */\n      tag_64\n      jumpi\n      mload(0x40)\n      0x08c379a000000000000000000000000000000000000000000000000000000000\n      dup2\n      mstore\n      0x04\n      add\n      tag_65\n      swap1\n      tag_66\n      jump\t// in\n    tag_65:\n      mload(0x40)\n      dup1\n      swap2\n      sub\n      swap1\n      revert\n    tag_64:\n        /* \"contracts/solidity/TaskRegistry.sol\":2846:2850  true */\n      0x01\n        /* \"contracts/solidity/TaskRegistry.sol\":2821:2826  tasks */\n      0x00\n        /* \"contracts/solidity/TaskRegistry.sol\":2821:2834  tasks[taskId] */\n      0x00\n        /* \"contracts/solidity/TaskRegistry.sol\":2827:2833  taskId */\n      dup4\n        /* \"contracts/solidity/TaskRegistry.sol\":2821:2834  tasks[taskId] */\n      dup2\n      mstore\n      0x20\n      add\n      swap1\n      dup2\n      mstore\n      0x20\n      add\n      0x00\n      keccak256\n        /* \"contracts/solidity/TaskRegistry.sol\":2821:2843  tasks[taskId].approved */\n      0x06\n      add\n      0x01\n        /* \"contracts/solidity/TaskRegistry.sol\":2821:2850  tasks[taskId].approved = true */\n      0x0100\n      exp\n      dup2\n      sload\n      dup2\n      0xff\n      mul\n      not\n      and\n      swap1\n      dup4\n      iszero\n      iszero\n      mul\n      or\n      swap1\n      sstore\n      pop\n        /* \"contracts/solidity/TaskRegistry.sol\":2905:2930  address payable recipient */\n      0x00\n        /* \"contracts/solidity/TaskRegistry.sol\":2941:2946  tasks */\n      0x00\n        /* \"contracts/solidity/TaskRegistry.sol\":2941:2954  tasks[taskId] */\n      0x00\n        /* \"contracts/solidity/TaskRegistry.sol\":2947:2953  taskId */\n      dup4\n        /* \"contracts/solidity/TaskRegistry.sol\":2941:2954  tasks[taskId] */\n      dup2\n      mstore\n      0x20\n      add\n      swap1\n      dup2\n      mstore\n      0x20\n      add\n      0x00\n      keccak256\n        /* \"contracts/solidity/TaskRegistry.sol\":2941:2965  tasks[taskId].assignedTo */\n      0x02\n      add\n      0x00\n      swap1\n      sload\n      swap1\n      0x0100\n      exp\n      swap1\n      div\n      0xffffffffffffffffffffffffffffffffffffffff\n      and\n        /* \"contracts/solidity/TaskRegistry.sol\":2905:2966  address payable recipient = payable(tasks[taskId].assignedTo) */\n      swap1\n      pop\n        /* \"contracts/solidity/TaskRegistry.sol\":2976:2985  recipient */\n      dup1\n        /* \"contracts/solidity/TaskRegistry.sol\":2976:2994  recipient.transfer */\n      0xffffffffffffffffffffffffffffffffffffffff\n      and\n        /* \"contracts/solidity/TaskRegistry.sol\":2976:3016  recipient.transfer(tasks[taskId].reward) */\n      0x08fc\n        /* \"contracts/solidity/TaskRegistry.sol\":2995:3000  tasks */\n      0x00\n        /* \"contracts/solidity/TaskRegistry.sol\":2995:3008  tasks[taskId] */\n      0x00\n        /* \"contracts/solidity/TaskRegistry.sol\":3001:3007  taskId */\n      dup6\n        /* \"contracts/solidity/TaskRegistry.sol\":2995:3008  tasks[taskId] */\n      dup2\n      mstore\n      0x20\n      add\n      swap1\n      dup2\n      mstore\n      0x20\n      add\n      0x00\n      keccak256\n        /* \"contracts/solidity/TaskRegistry.sol\":2995:3015  tasks[taskId].reward */\n      0x05\n      add\n      sload\n        /* \"contracts/solidity/TaskRegistry.sol\":2976:3016  recipient.transfer(tasks[taskId].reward) */\n      swap1\n      dup2\n      iszero\n      mul\n      swap1\n      mload(0x40)\n      0x00\n      mload(0x40)\n      dup1\n      dup4\n      sub\n      dup2\n      dup6\n      dup9\n      dup9\n      call\n      swap4\n      pop\n      pop\n      pop\n      pop\n      iszero\n      dup1\n      iszero\n      tag_68\n      jumpi\n      returndatacopy(0x00, 0x00, returndatasize)\n      revert(0x00, returndatasize)\n    tag_68:\n      pop\n        /* \"contracts/solidity/TaskRegistry.sol\":3061:3071  msg.sender */\n      caller\n        /* \"contracts/solidity/TaskRegistry.sol\":3040:3072  TaskApproved(taskId, msg.sender) */\n      0xffffffffffffffffffffffffffffffffffffffff\n      and\n        /* \"contracts/solidity/TaskRegistry.sol\":3053:3059  taskId */\n      dup3\n        /* \"contracts/solidity/TaskRegistry.sol\":3040:3072  TaskApproved(taskId, msg.sender) */\n      0xb664fa2a6a4e034515db6ca96da0095c8d853e3349904bd555c50d1ac9a63595\n      mload(0x40)\n      mload(0x40)\n      dup1\n      swap2\n      sub\n      swap1\n      log3\n        /* \"contracts/solidity/TaskRegistry.sol\":3113:3118  tasks */\n      0x00\n        /* \"contracts/solidity/TaskRegistry.sol\":3113:3126  tasks[taskId] */\n      0x00\n        /* \"contracts/solidity/TaskRegistry.sol\":3119:3125  taskId */\n      dup4\n        /* \"contracts/solidity/TaskRegistry.sol\":3113:3126  tasks[taskId] */\n      dup2\n      mstore\n      0x20\n      add\n      swap1\n      dup2\n      mstore\n      0x20\n      add\n      0x00\n      keccak256\n        /* \"contracts/solidity/TaskRegistry.sol\":3113:3137  tasks[taskId].assignedTo */\n      0x02\n      add\n      0x00\n      swap1\n      sload\n      swap1\n      0x0100\n      exp\n      swap1\n      div\n      0xffffffffffffffffffffffffffffffffffffffff\n      and\n        /* \"contracts/solidity/TaskRegistry.sol\":3087:3160  RewardTransferred(taskId, tasks[taskId].assignedTo, tasks[taskId].reward) */\n      0xffffffffffffffffffffffffffffffffffffffff\n      and\n        /* \"contracts/solidity/TaskRegistry.sol\":3105:3111  taskId */\n      dup3\n        /* \"contracts/solidity/TaskRegistry.sol\":3087:3160  RewardTransferred(taskId, tasks[taskId].assignedTo, tasks[taskId].reward) */\n      0x99f2f3325e35634c09536d4983b1b2b0c9313e74f2b74508c7a1a521f6fce9ab\n        /* \"contracts/solidity/TaskRegistry.sol\":3139:3144  tasks */\n      0x00\n        /* \"contracts/solidity/TaskRegistry.sol\":3139:3152  tasks[taskId] */\n      0x00\n        /* \"contracts/solidity/TaskRegistry.sol\":3145:3151  taskId */\n      dup7\n        /* \"contracts/solidity/TaskRegistry.sol\":3139:3152  tasks[taskId] */\n      dup2\n      mstore\n      0x20\n      add\n      swap1\n      dup2\n      mstore\n      0x20\n      add\n      0x00\n      keccak256\n        /* \"contracts/solidity/TaskRegistry.sol\":3139:3159  tasks[taskId].reward */\n      0x05\n      add\n      sload\n        /* \"contracts/solidity/TaskRegistry.sol\":3087:3160  RewardTransferred(taskId, tasks[taskId].assignedTo, tasks[taskId].reward) */\n      mload(0x40)\n      tag_69\n      swap2\n      swap1\n      tag_30\n      jump\t// in\n    tag_69:\n      mload(0x40)\n      dup1\n      swap2\n      sub\n      swap1\n      log3\n        /* \"contracts/solidity/TaskRegistry.sol\":2486:3167  {... */\n      pop\n        /* \"contracts/solidity/TaskRegistry.sol\":2434:3167  function approveTask(uint256 taskId) public payable {... */\n      pop\n      jump\t// out\n        /* \"contracts/solidity/TaskRegistry.sol\":3224:3656  function getTask(uint256 taskId) public view returns (... */\n    tag_19:\n        /* \"contracts/solidity/TaskRegistry.sol\":3287:3294  uint256 */\n      0x00\n        /* \"contracts/solidity/TaskRegistry.sol\":3296:3303  address */\n      0x00\n        /* \"contracts/solidity/TaskRegistry.sol\":3305:3312  address */\n      0x00\n        /* \"contracts/solidity/TaskRegistry.sol\":3314:3327  string memory */\n      0x60\n        /* \"contracts/solidity/TaskRegistry.sol\":3329:3342  string memory */\n      dup1\n        /* \"contracts/solidity/TaskRegistry.sol\":3344:3351  uint256 */\n      0x00\n        /* \"contracts/solidity/TaskRegistry.sol\":3353:3357  bool */\n      0x00\n        /* \"contracts/solidity/TaskRegistry.sol\":3359:3363  bool */\n      0x00\n        /* \"contracts/solidity/TaskRegistry.sol\":3380:3396  Task memory task */\n      0x00\n        /* \"contracts/solidity/TaskRegistry.sol\":3399:3404  tasks */\n      0x00\n        /* \"contracts/solidity/TaskRegistry.sol\":3399:3412  tasks[taskId] */\n      0x00\n        /* \"contracts/solidity/TaskRegistry.sol\":3405:3411  taskId */\n      dup12\n        /* \"contracts/solidity/TaskRegistry.sol\":3399:3412  tasks[taskId] */\n      dup2\n      mstore\n      0x20\n      add\n      swap1\n      dup2\n      mstore\n      0x20\n      add\n      0x00\n      keccak256\n        /* \"contracts/solidity/TaskRegistry.sol\":3380:3412  Task memory task = tasks[taskId] */\n      mload(0x40)\n      dup1\n      0x0100\n      add\n      0x40\n      mstore\n      swap1\n      dup2\n      0x00\n      dup3\n      add\n      sload\n      dup2\n      mstore\n      0x20\n      add\n      0x01\n      dup3\n      add\n      0x00\n      swap1\n      sload\n      swap1\n      0x0100\n      exp\n      swap1\n      div\n      0xffffffffffffffffffffffffffffffffffffffff\n      and\n      0xffffffffffffffffffffffffffffffffffffffff\n      and\n      0xffffffffffffffffffffffffffffffffffffffff\n      and\n      dup2\n      mstore\n      0x20\n      add\n      0x02\n      dup3\n      add\n      0x00\n      swap1\n      sload\n      swap1\n      0x0100\n      exp\n      swap1\n      div\n      0xffffffffffffffffffffffffffffffffffffffff\n      and\n      0xffffffffffffffffffffffffffffffffffffffff\n      and\n      0xffffffffffffffffffffffffffffffffffffffff\n      and\n      dup2\n      mstore\n      0x20\n      add\n      0x03\n      dup3\n      add\n      dup1\n      sload\n      tag_71\n      swap1\n      tag_72\n      jump\t// in\n    tag_71:\n      dup1\n      0x1f\n      add\n      0x20\n      dup1\n      swap2\n      div\n      mul\n      0x20\n      add\n      mload(0x40)\n      swap1\n      dup2\n      add\n      0x40\n      mstore\n      dup1\n      swap3\n      swap2\n      swap1\n      dup2\n      dup2\n      mstore\n      0x20\n      add\n      dup3\n      dup1\n      sload\n      tag_73\n      swap1\n      tag_72\n      jump\t// in\n    tag_73:\n      dup1\n      iszero\n      tag_74\n      jumpi\n      dup1\n      0x1f\n      lt\n      tag_75\n      jumpi\n      0x0100\n      dup1\n      dup4\n      sload\n      div\n      mul\n      dup4\n      mstore\n      swap2\n      0x20\n      add\n      swap2\n      jump(tag_74)\n    tag_75:\n      dup3\n      add\n      swap2\n      swap1\n      0x00\n      mstore\n      keccak256(0x00, 0x20)\n      swap1\n    tag_76:\n      dup2\n      sload\n      dup2\n      mstore\n      swap1\n      0x01\n      add\n      swap1\n      0x20\n      add\n      dup1\n      dup4\n      gt\n      tag_76\n      jumpi\n      dup3\n      swap1\n      sub\n      0x1f\n      and\n      dup3\n      add\n      swap2\n    tag_74:\n      pop\n      pop\n      pop\n      pop\n      pop\n      dup2\n      mstore\n      0x20\n      add\n      0x04\n      dup3\n      add\n      dup1\n      sload\n      tag_77\n      swap1\n      tag_72\n      jump\t// in\n    tag_77:\n      dup1\n      0x1f\n      add\n      0x20\n      dup1\n      swap2\n      div\n      mul\n      0x20\n      add\n      mload(0x40)\n      swap1\n      dup2\n      add\n      0x40\n      mstore\n      dup1\n      swap3\n      swap2\n      swap1\n      dup2\n      dup2\n      mstore\n      0x20\n      add\n      dup3\n      dup1\n      sload\n      tag_78\n      swap1\n      tag_72\n      jump\t// in\n    tag_78:\n      dup1\n      iszero\n      tag_79\n      jumpi\n      dup1\n      0x1f\n      lt\n      tag_80\n      jumpi\n      0x0100\n      dup1\n      dup4\n      sload\n      div\n      mul\n      dup4\n      mstore\n      swap2\n      0x20\n      add\n      swap2\n      jump(tag_79)\n    tag_80:\n      dup3\n      add\n      swap2\n      swap1\n      0x00\n      mstore\n      keccak256(0x00, 0x20)\n      swap1\n    tag_81:\n      dup2\n      sload\n      dup2\n      mstore\n      swap1\n      0x01\n      add\n      swap1\n      0x20\n      add\n      dup1\n      dup4\n      gt\n      tag_81\n      jumpi\n      dup3\n      swap1\n      sub\n      0x1f\n      and\n      dup3\n      add\n      swap2\n    tag_79:\n      pop\n      pop\n      pop\n      pop\n      pop\n      dup2\n      mstore\n      0x20\n      add\n      0x05\n      dup3\n      add\n      sload\n      dup2\n      mstore\n      0x20\n      add\n      0x06\n      dup3\n      add\n      0x00\n      swap1\n      sload\n      swap1\n      0x0100\n      exp\n      swap1\n      div\n      0xff\n      and\n      iszero\n      iszero\n      iszero\n      iszero\n      dup2\n      mstore\n      0x20\n      add\n      0x06\n      dup3\n      add\n      0x01\n      swap1\n      sload\n      swap1\n      0x0100\n      exp\n      swap1\n      div\n      0xff\n      and\n      iszero\n      iszero\n      iszero\n      iszero\n      dup2\n      mstore\n      pop\n      pop\n      swap1\n      pop\n        /* \"contracts/solidity/TaskRegistry.sol\":3443:3447  task */\n      dup1\n        /* \"contracts/solidity/TaskRegistry.sol\":3443:3450  task.id */\n      0x00\n      add\n      mload\n        /* \"contracts/solidity/TaskRegistry.sol\":3464:3468  task */\n      dup2\n        /* \"contracts/solidity/TaskRegistry.sol\":3464:3476  task.creator */\n      0x20\n      add\n      mload\n        /* \"contracts/solidity/TaskRegistry.sol\":3490:3494  task */\n      dup3\n        /* \"contracts/solidity/TaskRegistry.sol\":3490:3505  task.assignedTo */\n      0x40\n      add\n      mload\n        /* \"contracts/solidity/TaskRegistry.sol\":3519:3523  task */\n      dup4\n        /* \"contracts/solidity/TaskRegistry.sol\":3519:3529  task.title */\n      0x60\n      add\n      mload\n        /* \"contracts/solidity/TaskRegistry.sol\":3543:3547  task */\n      dup5\n        /* \"contracts/solidity/TaskRegistry.sol\":3543:3559  task.description */\n      0x80\n      add\n      mload\n        /* \"contracts/solidity/TaskRegistry.sol\":3573:3577  task */\n      dup6\n        /* \"contracts/solidity/TaskRegistry.sol\":3573:3584  task.reward */\n      0xa0\n      add\n      mload\n        /* \"contracts/solidity/TaskRegistry.sol\":3598:3602  task */\n      dup7\n        /* \"contracts/solidity/TaskRegistry.sol\":3598:3612  task.completed */\n      0xc0\n      add\n      mload\n        /* \"contracts/solidity/TaskRegistry.sol\":3626:3630  task */\n      dup8\n        /* \"contracts/solidity/TaskRegistry.sol\":3626:3639  task.approved */\n      0xe0\n      add\n      mload\n        /* \"contracts/solidity/TaskRegistry.sol\":3422:3649  return (... */\n      swap9\n      pop\n      swap9\n      pop\n      swap9\n      pop\n      swap9\n      pop\n      swap9\n      pop\n      swap9\n      pop\n      swap9\n      pop\n      swap9\n      pop\n      pop\n        /* \"contracts/solidity/TaskRegistry.sol\":3224:3656  function getTask(uint256 taskId) public view returns (... */\n      swap2\n      swap4\n      swap6\n      swap8\n      pop\n      swap2\n      swap4\n      swap6\n      swap8\n      jump\t// out\n        /* \"contracts/solidity/TaskRegistry.sol\":3662:3817  function withdraw() public {... */\n    tag_24:\n        /* \"contracts/solidity/TaskRegistry.sol\":3721:3726  owner */\n      0x02\n      0x00\n      swap1\n      sload\n      swap1\n      0x0100\n      exp\n      swap1\n      div\n      0xffffffffffffffffffffffffffffffffffffffff\n      and\n        /* \"contracts/solidity/TaskRegistry.sol\":3707:3726  msg.sender == owner */\n      0xffffffffffffffffffffffffffffffffffffffff\n      and\n        /* \"contracts/solidity/TaskRegistry.sol\":3707:3717  msg.sender */\n      caller\n        /* \"contracts/solidity/TaskRegistry.sol\":3707:3726  msg.sender == owner */\n      0xffffffffffffffffffffffffffffffffffffffff\n      and\n      eq\n        /* \"contracts/solidity/TaskRegistry.sol\":3699:3754  require(msg.sender == owner, \"Only owner can withdraw\") */\n      tag_83\n      jumpi\n      mload(0x40)\n      0x08c379a000000000000000000000000000000000000000000000000000000000\n      dup2\n      mstore\n      0x04\n      add\n      tag_84\n      swap1\n      tag_85\n      jump\t// in\n    tag_84:\n      mload(0x40)\n      dup1\n      swap2\n      sub\n      swap1\n      revert\n    tag_83:\n        /* \"contracts/solidity/TaskRegistry.sol\":3772:3777  owner */\n      0x02\n      0x00\n      swap1\n      sload\n      swap1\n      0x0100\n      exp\n      swap1\n      div\n      0xffffffffffffffffffffffffffffffffffffffff\n      and\n        /* \"contracts/solidity/TaskRegistry.sol\":3764:3787  payable(owner).transfer */\n      0xffffffffffffffffffffffffffffffffffffffff\n      and\n        /* \"contracts/solidity/TaskRegistry.sol\":3764:3810  payable(owner).transfer(address(this).balance) */\n      0x08fc\n        /* \"contracts/solidity/TaskRegistry.sol\":3788:3809  address(this).balance */\n      selfbalance\n        /* \"contracts/solidity/TaskRegistry.sol\":3764:3810  payable(owner).transfer(address(this).balance) */\n      swap1\n      dup2\n      iszero\n      mul\n      swap1\n      mload(0x40)\n      0x00\n      mload(0x40)\n      dup1\n      dup4\n      sub\n      dup2\n      dup6\n      dup9\n      dup9\n      call\n      swap4\n      pop\n      pop\n      pop\n      pop\n      iszero\n      dup1\n      iszero\n      tag_87\n      jumpi\n      returndatacopy(0x00, 0x00, returndatasize)\n      revert(0x00, returndatasize)\n    tag_87:\n      pop\n        /* \"contracts/solidity/TaskRegistry.sol\":3662:3817  function withdraw() public {... */\n      jump\t// out\n        /* \"contracts/solidity/TaskRegistry.sol\":1043:1503  function createTask(string memory title, string memory description, uint256 reward) public payable returns (uint256) {... */\n    tag_28:\n        /* \"contracts/solidity/TaskRegistry.sol\":1151:1158  uint256 */\n      0x00\n        /* \"contracts/solidity/TaskRegistry.sol\":1170:1179  taskCount */\n      0x01\n      0x00\n        /* \"contracts/solidity/TaskRegistry.sol\":1170:1181  taskCount++ */\n      dup2\n      sload\n      dup1\n      swap3\n      swap2\n      swap1\n      tag_89\n      swap1\n      tag_90\n      jump\t// in\n    tag_89:\n      swap2\n      swap1\n      pop\n      sstore\n      pop\n        /* \"contracts/solidity/TaskRegistry.sol\":1210:1397  Task(... */\n      mload(0x40)\n      dup1\n      0x0100\n      add\n      0x40\n      mstore\n      dup1\n        /* \"contracts/solidity/TaskRegistry.sol\":1228:1237  taskCount */\n      sload(0x01)\n        /* \"contracts/solidity/TaskRegistry.sol\":1210:1397  Task(... */\n      dup2\n      mstore\n      0x20\n      add\n        /* \"contracts/solidity/TaskRegistry.sol\":1251:1261  msg.sender */\n      caller\n        /* \"contracts/solidity/TaskRegistry.sol\":1210:1397  Task(... */\n      0xffffffffffffffffffffffffffffffffffffffff\n      and\n      dup2\n      mstore\n      0x20\n      add\n        /* \"contracts/solidity/TaskRegistry.sol\":1283:1284  0 */\n      0x00\n        /* \"contracts/solidity/TaskRegistry.sol\":1210:1397  Task(... */\n      0xffffffffffffffffffffffffffffffffffffffff\n      and\n      dup2\n      mstore\n      0x20\n      add\n        /* \"contracts/solidity/TaskRegistry.sol\":1299:1304  title */\n      dup6\n        /* \"contracts/solidity/TaskRegistry.sol\":1210:1397  Task(... */\n      dup2\n      mstore\n      0x20\n      add\n        /* \"contracts/solidity/TaskRegistry.sol\":1318:1329  description */\n      dup5\n        /* \"contracts/solidity/TaskRegistry.sol\":1210:1397  Task(... */\n      dup2\n      mstore\n      0x20\n      add\n        /* \"contracts/solidity/TaskRegistry.sol\":1343:1349  reward */\n      dup4\n        /* \"contracts/solidity/TaskRegistry.sol\":1210:1397  Task(... */\n      dup2\n      mstore\n      0x20\n      add\n        /* \"contracts/solidity/TaskRegistry.sol\":1363:1368  false */\n      0x00\n        /* \"contracts/solidity/TaskRegistry.sol\":1210:1397  Task(... */\n      iszero\n      iszero\n      dup2\n      mstore\n      0x20\n      add\n        /* \"contracts/solidity/TaskRegistry.sol\":1382:1387  false */\n      0x00\n        /* \"contracts/solidity/TaskRegistry.sol\":1210:1397  Task(... */\n      iszero\n      iszero\n      dup2\n      mstore\n      pop\n        /* \"contracts/solidity/TaskRegistry.sol\":1191:1196  tasks */\n      0x00\n        /* \"contracts/solidity/TaskRegistry.sol\":1191:1207  tasks[taskCount] */\n      0x00\n        /* \"contracts/solidity/TaskRegistry.sol\":1197:1206  taskCount */\n      sload(0x01)\n        /* \"contracts/solidity/TaskRegistry.sol\":1191:1207  tasks[taskCount] */\n      dup2\n      mstore\n      0x20\n      add\n      swap1\n      dup2\n      mstore\n      0x20\n      add\n      0x00\n      keccak256\n        /* \"contracts/solidity/TaskRegistry.sol\":1191:1397  tasks[taskCount] = Task(... */\n      0x00\n      dup3\n      add\n      mload\n      dup2\n      0x00\n      add\n      sstore\n      0x20\n      dup3\n      add\n      mload\n      dup2\n      0x01\n      add\n      exp(0x0100, 0x00)\n      dup2\n      sload\n      dup2\n      0xffffffffffffffffffffffffffffffffffffffff\n      mul\n      not\n      and\n      swap1\n      dup4\n      0xffffffffffffffffffffffffffffffffffffffff\n      and\n      mul\n      or\n      swap1\n      sstore\n      pop\n      0x40\n      dup3\n      add\n      mload\n      dup2\n      0x02\n      add\n      exp(0x0100, 0x00)\n      dup2\n      sload\n      dup2\n      0xffffffffffffffffffffffffffffffffffffffff\n      mul\n      not\n      and\n      swap1\n      dup4\n      0xffffffffffffffffffffffffffffffffffffffff\n      and\n      mul\n      or\n      swap1\n      sstore\n      pop\n      0x60\n      dup3\n      add\n      mload\n      dup2\n      0x03\n      add\n      swap1\n      dup2\n      tag_91\n      swap2\n      swap1\n      tag_92\n      jump\t// in\n    tag_91:\n      pop\n      0x80\n      dup3\n      add\n      mload\n      dup2\n      0x04\n      add\n      swap1\n      dup2\n      tag_93\n      swap2\n      swap1\n      tag_92\n      jump\t// in\n    tag_93:\n      pop\n      0xa0\n      dup3\n      add\n      mload\n      dup2\n      0x05\n      add\n      sstore\n      0xc0\n      dup3\n      add\n      mload\n      dup2\n      0x06\n      add\n      exp(0x0100, 0x00)\n      dup2\n      sload\n      dup2\n      0xff\n      mul\n      not\n      and\n      swap1\n      dup4\n      iszero\n      iszero\n      mul\n      or\n      swap1\n      sstore\n      pop\n      0xe0\n      dup3\n      add\n      mload\n      dup2\n      0x06\n      add\n      exp(0x0100, 0x01)\n      dup2\n      sload\n      dup2\n      0xff\n      mul\n      not\n      and\n      swap1\n      dup4\n      iszero\n      iszero\n      mul\n      or\n      swap1\n      sstore\n      pop\n      swap1\n      pop\n      pop\n        /* \"contracts/solidity/TaskRegistry.sol\":1444:1454  msg.sender */\n      caller\n        /* \"contracts/solidity/TaskRegistry.sol\":1421:1470  TaskCreated(taskCount, msg.sender, title, reward) */\n      0xffffffffffffffffffffffffffffffffffffffff\n      and\n        /* \"contracts/solidity/TaskRegistry.sol\":1433:1442  taskCount */\n      sload(0x01)\n        /* \"contracts/solidity/TaskRegistry.sol\":1421:1470  TaskCreated(taskCount, msg.sender, title, reward) */\n      0x9e3c9757475c00b86393e183b68033bb76e48fa164849c7428ad17f62e1954a7\n        /* \"contracts/solidity/TaskRegistry.sol\":1456:1461  title */\n      dup7\n        /* \"contracts/solidity/TaskRegistry.sol\":1463:1469  reward */\n      dup6\n        /* \"contracts/solidity/TaskRegistry.sol\":1421:1470  TaskCreated(taskCount, msg.sender, title, reward) */\n      mload(0x40)\n      tag_94\n      swap3\n      swap2\n      swap1\n      tag_95\n      jump\t// in\n    tag_94:\n      mload(0x40)\n      dup1\n      swap2\n      sub\n      swap1\n      log3\n        /* \"contracts/solidity/TaskRegistry.sol\":1487:1496  taskCount */\n      sload(0x01)\n        /* \"contracts/solidity/TaskRegistry.sol\":1480:1496  return taskCount */\n      swap1\n      pop\n        /* \"contracts/solidity/TaskRegistry.sol\":1043:1503  function createTask(string memory title, string memory description, uint256 reward) public payable returns (uint256) {... */\n      swap4\n      swap3\n      pop\n      pop\n      pop\n      jump\t// out\n        /* \"contracts/solidity/TaskRegistry.sol\":1573:1938  function assignTask(uint256 taskId, address childAddress) public {... */\n    tag_35:\n        /* \"contracts/solidity/TaskRegistry.sol\":1681:1691  msg.sender */\n      caller\n        /* \"contracts/solidity/TaskRegistry.sol\":1656:1691  tasks[taskId].creator == msg.sender */\n      0xffffffffffffffffffffffffffffffffffffffff\n      and\n        /* \"contracts/solidity/TaskRegistry.sol\":1656:1661  tasks */\n      0x00\n        /* \"contracts/solidity/TaskRegistry.sol\":1656:1669  tasks[taskId] */\n      0x00\n        /* \"contracts/solidity/TaskRegistry.sol\":1662:1668  taskId */\n      dup5\n        /* \"contracts/solidity/TaskRegistry.sol\":1656:1669  tasks[taskId] */\n      dup2\n      mstore\n      0x20\n      add\n      swap1\n      dup2\n      mstore\n      0x20\n      add\n      0x00\n      keccak256\n        /* \"contracts/solidity/TaskRegistry.sol\":1656:1677  tasks[taskId].creator */\n      0x01\n      add\n      0x00\n      swap1\n      sload\n      swap1\n      0x0100\n      exp\n      swap1\n      div\n      0xffffffffffffffffffffffffffffffffffffffff\n      and\n        /* \"contracts/solidity/TaskRegistry.sol\":1656:1691  tasks[taskId].creator == msg.sender */\n      0xffffffffffffffffffffffffffffffffffffffff\n      and\n      eq\n        /* \"contracts/solidity/TaskRegistry.sol\":1648:1733  require(tasks[taskId].creator == msg.sender, \"Only task creator can assign the task\") */\n      tag_97\n      jumpi\n      mload(0x40)\n      0x08c379a000000000000000000000000000000000000000000000000000000000\n      dup2\n      mstore\n      0x04\n      add\n      tag_98\n      swap1\n      tag_99\n      jump\t// in\n    tag_98:\n      mload(0x40)\n      dup1\n      swap2\n      sub\n      swap1\n      revert\n    tag_97:\n        /* \"contracts/solidity/TaskRegistry.sol\":1787:1788  0 */\n      0x00\n        /* \"contracts/solidity/TaskRegistry.sol\":1751:1789  tasks[taskId].assignedTo == address(0) */\n      0xffffffffffffffffffffffffffffffffffffffff\n      and\n        /* \"contracts/solidity/TaskRegistry.sol\":1751:1756  tasks */\n      0x00\n        /* \"contracts/solidity/TaskRegistry.sol\":1751:1764  tasks[taskId] */\n      0x00\n        /* \"contracts/solidity/TaskRegistry.sol\":1757:1763  taskId */\n      dup5\n        /* \"contracts/solidity/TaskRegistry.sol\":1751:1764  tasks[taskId] */\n      dup2\n      mstore\n      0x20\n      add\n      swap1\n      dup2\n      mstore\n      0x20\n      add\n      0x00\n      keccak256\n        /* \"contracts/solidity/TaskRegistry.sol\":1751:1775  tasks[taskId].assignedTo */\n      0x02\n      add\n      0x00\n      swap1\n      sload\n      swap1\n      0x0100\n      exp\n      swap1\n      div\n      0xffffffffffffffffffffffffffffffffffffffff\n      and\n        /* \"contracts/solidity/TaskRegistry.sol\":1751:1789  tasks[taskId].assignedTo == address(0) */\n      0xffffffffffffffffffffffffffffffffffffffff\n      and\n      eq\n        /* \"contracts/solidity/TaskRegistry.sol\":1743:1815  require(tasks[taskId].assignedTo == address(0), \"Task already assigned\") */\n      tag_100\n      jumpi\n      mload(0x40)\n      0x08c379a000000000000000000000000000000000000000000000000000000000\n      dup2\n      mstore\n      0x04\n      add\n      tag_101\n      swap1\n      tag_102\n      jump\t// in\n    tag_101:\n      mload(0x40)\n      dup1\n      swap2\n      sub\n      swap1\n      revert\n    tag_100:\n        /* \"contracts/solidity/TaskRegistry.sol\":1861:1873  childAddress */\n      dup1\n        /* \"contracts/solidity/TaskRegistry.sol\":1834:1839  tasks */\n      0x00\n        /* \"contracts/solidity/TaskRegistry.sol\":1834:1847  tasks[taskId] */\n      0x00\n        /* \"contracts/solidity/TaskRegistry.sol\":1840:1846  taskId */\n      dup5\n        /* \"contracts/solidity/TaskRegistry.sol\":1834:1847  tasks[taskId] */\n      dup2\n      mstore\n      0x20\n      add\n      swap1\n      dup2\n      mstore\n      0x20\n      add\n      0x00\n      keccak256\n        /* \"contracts/solidity/TaskRegistry.sol\":1834:1858  tasks[taskId].assignedTo */\n      0x02\n      add\n      0x00\n        /* \"contracts/solidity/TaskRegistry.sol\":1834:1873  tasks[taskId].assignedTo = childAddress */\n      0x0100\n      exp\n      dup2\n      sload\n      dup2\n      0xffffffffffffffffffffffffffffffffffffffff\n      mul\n      not\n      and\n      swap1\n      dup4\n      0xffffffffffffffffffffffffffffffffffffffff\n      and\n      mul\n      or\n      swap1\n      sstore\n      pop\n        /* \"contracts/solidity/TaskRegistry.sol\":1918:1930  childAddress */\n      dup1\n        /* \"contracts/solidity/TaskRegistry.sol\":1897:1931  TaskAssigned(taskId, childAddress) */\n      0xffffffffffffffffffffffffffffffffffffffff\n      and\n        /* \"contracts/solidity/TaskRegistry.sol\":1910:1916  taskId */\n      dup3\n        /* \"contracts/solidity/TaskRegistry.sol\":1897:1931  TaskAssigned(taskId, childAddress) */\n      0x52476d55ecef5cf13caa64038f297fe6bbf865d9584a98b8722a15a6d5db128f\n      mload(0x40)\n      mload(0x40)\n      dup1\n      swap2\n      sub\n      swap1\n      log3\n        /* \"contracts/solidity/TaskRegistry.sol\":1573:1938  function assignTask(uint256 taskId, address childAddress) public {... */\n      pop\n      pop\n      jump\t// out\n        /* \"contracts/solidity/TaskRegistry.sol\":389:426  mapping(uint256 => Task) public tasks */\n    tag_39:\n      mstore(0x20, 0x00)\n      dup1\n      0x00\n      mstore\n      keccak256(0x00, 0x40)\n      0x00\n      swap2\n      pop\n      swap1\n      pop\n      dup1\n      0x00\n      add\n      sload\n      swap1\n      dup1\n      0x01\n      add\n      0x00\n      swap1\n      sload\n      swap1\n      0x0100\n      exp\n      swap1\n      div\n      0xffffffffffffffffffffffffffffffffffffffff\n      and\n      swap1\n      dup1\n      0x02\n      add\n      0x00\n      swap1\n      sload\n      swap1\n      0x0100\n      exp\n      swap1\n      div\n      0xffffffffffffffffffffffffffffffffffffffff\n      and\n      swap1\n      dup1\n      0x03\n      add\n      dup1\n      sload\n      tag_103\n      swap1\n      tag_72\n      jump\t// in\n    tag_103:\n      dup1\n      0x1f\n      add\n      0x20\n      dup1\n      swap2\n      div\n      mul\n      0x20\n      add\n      mload(0x40)\n      swap1\n      dup2\n      add\n      0x40\n      mstore\n      dup1\n      swap3\n      swap2\n      swap1\n      dup2\n      dup2\n      mstore\n      0x20\n      add\n      dup3\n      dup1\n      sload\n      tag_104\n      swap1\n      tag_72\n      jump\t// in\n    tag_104:\n      dup1\n      iszero\n      tag_105\n      jumpi\n      dup1\n      0x1f\n      lt\n      tag_106\n      jumpi\n      0x0100\n      dup1\n      dup4\n      sload\n      div\n      mul\n      dup4\n      mstore\n      swap2\n      0x20\n      add\n      swap2\n      jump(tag_105)\n    tag_106:\n      dup3\n      add\n      swap2\n      swap1\n      0x00\n      mstore\n      keccak256(0x00, 0x20)\n      swap1\n    tag_107:\n      dup2\n      sload\n      dup2\n      mstore\n      swap1\n      0x01\n      add\n      swap1\n      0x20\n      add\n      dup1\n      dup4\n      gt\n      tag_107\n      jumpi\n      dup3\n      swap1\n      sub\n      0x1f\n      and\n      dup3\n      add\n      swap2\n    tag_105:\n      pop\n      pop\n      pop\n      pop\n      pop\n      swap1\n      dup1\n      0x04\n      add\n      dup1\n      sload\n      tag_108\n      swap1\n      tag_72\n      jump\t// in\n    tag_108:\n      dup1\n      0x1f\n      add\n      0x20\n      dup1\n      swap2\n      div\n      mul\n      0x20\n      add\n      mload(0x40)\n      swap1\n      dup2\n      add\n      0x40\n      mstore\n      dup1\n      swap3\n      swap2\n      swap1\n      dup2\n      dup2\n      mstore\n      0x20\n      add\n      dup3\n      dup1\n      sload\n      tag_109\n      swap1\n      tag_72\n      jump\t// in\n    tag_109:\n      dup1\n      iszero\n      tag_110\n      jumpi\n      dup1\n      0x1f\n      lt\n      tag_111\n      jumpi\n      0x0100\n      dup1\n      dup4\n      sload\n      div\n      mul\n      dup4\n      mstore\n      swap2\n      0x20\n      add\n      swap2\n      jump(tag_110)\n    tag_111:\n      dup3\n      add\n      swap2\n      swap1\n      0x00\n      mstore\n      keccak256(0x00, 0x20)\n      swap1\n    tag_112:\n      dup2\n      sload\n      dup2\n      mstore\n      swap1\n      0x01\n      add\n      swap1\n      0x20\n      add\n      dup1\n      dup4\n      gt\n      tag_112\n      jumpi\n      dup3\n      swap1\n      sub\n      0x1f\n      and\n      dup3\n      add\n      swap2\n    tag_110:\n      pop\n      pop\n      pop\n      pop\n      pop\n      swap1\n      dup1\n      0x05\n      add\n      sload\n      swap1\n      dup1\n      0x06\n      add\n      0x00\n      swap1\n      sload\n      swap1\n      0x0100\n      exp\n      swap1\n      div\n      0xff\n      and\n      swap1\n      dup1\n      0x06\n      add\n      0x01\n      swap1\n      sload\n      swap1\n      0x0100\n      exp\n      swap1\n      div\n      0xff\n      and\n      swap1\n      pop\n      dup9\n      jump\t// out\n        /* \"contracts/solidity/TaskRegistry.sol\":471:491  address public owner */\n    tag_43:\n      0x02\n      0x00\n      swap1\n      sload\n      swap1\n      0x0100\n      exp\n      swap1\n      div\n      0xffffffffffffffffffffffffffffffffffffffff\n      and\n      dup2\n      jump\t// out\n        /* \"contracts/solidity/TaskRegistry.sol\":432:460  uint256 public taskCount = 0 */\n    tag_48:\n      sload(0x01)\n      dup2\n      jump\t// out\n        /* \"contracts/solidity/TaskRegistry.sol\":2020:2349  function completeTask(uint256 taskId) public {... */\n    tag_53:\n        /* \"contracts/solidity/TaskRegistry.sol\":2111:2121  msg.sender */\n      caller\n        /* \"contracts/solidity/TaskRegistry.sol\":2083:2121  tasks[taskId].assignedTo == msg.sender */\n      0xffffffffffffffffffffffffffffffffffffffff\n      and\n        /* \"contracts/solidity/TaskRegistry.sol\":2083:2088  tasks */\n      0x00\n        /* \"contracts/solidity/TaskRegistry.sol\":2083:2096  tasks[taskId] */\n      0x00\n        /* \"contracts/solidity/TaskRegistry.sol\":2089:2095  taskId */\n      dup4\n        /* \"contracts/solidity/TaskRegistry.sol\":2083:2096  tasks[taskId] */\n      dup2\n      mstore\n      0x20\n      add\n      swap1\n      dup2\n      mstore\n      0x20\n      add\n      0x00\n      keccak256\n        /* \"contracts/solidity/TaskRegistry.sol\":2083:2107  tasks[taskId].assignedTo */\n      0x02\n      add\n      0x00\n      swap1\n      sload\n      swap1\n      0x0100\n      exp\n      swap1\n      div\n      0xffffffffffffffffffffffffffffffffffffffff\n      and\n        /* \"contracts/solidity/TaskRegistry.sol\":2083:2121  tasks[taskId].assignedTo == msg.sender */\n      0xffffffffffffffffffffffffffffffffffffffff\n      and\n      eq\n        /* \"contracts/solidity/TaskRegistry.sol\":2075:2167  require(tasks[taskId].assignedTo == msg.sender, \"Only assigned child can complete the task\") */\n      tag_114\n      jumpi\n      mload(0x40)\n      0x08c379a000000000000000000000000000000000000000000000000000000000\n      dup2\n      mstore\n      0x04\n      add\n      tag_115\n      swap1\n      tag_116\n      jump\t// in\n    tag_115:\n      mload(0x40)\n      dup1\n      swap2\n      sub\n      swap1\n      revert\n    tag_114:\n        /* \"contracts/solidity/TaskRegistry.sol\":2186:2191  tasks */\n      0x00\n        /* \"contracts/solidity/TaskRegistry.sol\":2186:2199  tasks[taskId] */\n      0x00\n        /* \"contracts/solidity/TaskRegistry.sol\":2192:2198  taskId */\n      dup3\n        /* \"contracts/solidity/TaskRegistry.sol\":2186:2199  tasks[taskId] */\n      dup2\n      mstore\n      0x20\n      add\n      swap1\n      dup2\n      mstore\n      0x20\n      add\n      0x00\n      keccak256\n        /* \"contracts/solidity/TaskRegistry.sol\":2186:2209  tasks[taskId].completed */\n      0x06\n      add\n      0x00\n      swap1\n      sload\n      swap1\n      0x0100\n      exp\n      swap1\n      div\n      0xff\n      and\n        /* \"contracts/solidity/TaskRegistry.sol\":2185:2209  !tasks[taskId].completed */\n      iszero\n        /* \"contracts/solidity/TaskRegistry.sol\":2177:2236  require(!tasks[taskId].completed, \"Task already completed\") */\n      tag_117\n      jumpi\n      mload(0x40)\n      0x08c379a000000000000000000000000000000000000000000000000000000000\n      dup2\n      mstore\n      0x04\n      add\n      tag_118\n      swap1\n      tag_119\n      jump\t// in\n    tag_118:\n      mload(0x40)\n      dup1\n      swap2\n      sub\n      swap1\n      revert\n    tag_117:\n        /* \"contracts/solidity/TaskRegistry.sol\":2281:2285  true */\n      0x01\n        /* \"contracts/solidity/TaskRegistry.sol\":2255:2260  tasks */\n      0x00\n        /* \"contracts/solidity/TaskRegistry.sol\":2255:2268  tasks[taskId] */\n      0x00\n        /* \"contracts/solidity/TaskRegistry.sol\":2261:2267  taskId */\n      dup4\n        /* \"contracts/solidity/TaskRegistry.sol\":2255:2268  tasks[taskId] */\n      dup2\n      mstore\n      0x20\n      add\n      swap1\n      dup2\n      mstore\n      0x20\n      add\n      0x00\n      keccak256\n        /* \"contracts/solidity/TaskRegistry.sol\":2255:2278  tasks[taskId].completed */\n      0x06\n      add\n      0x00\n        /* \"contracts/solidity/TaskRegistry.sol\":2255:2285  tasks[taskId].completed = true */\n      0x0100\n      exp\n      dup2\n      sload\n      dup2\n      0xff\n      mul\n      not\n      and\n      swap1\n      dup4\n      iszero\n      iszero\n      mul\n      or\n      swap1\n      sstore\n      pop\n        /* \"contracts/solidity/TaskRegistry.sol\":2331:2341  msg.sender */\n      caller\n        /* \"contracts/solidity/TaskRegistry.sol\":2309:2342  TaskCompleted(taskId, msg.sender) */\n      0xffffffffffffffffffffffffffffffffffffffff\n      and\n        /* \"contracts/solidity/TaskRegistry.sol\":2323:2329  taskId */\n      dup2\n        /* \"contracts/solidity/TaskRegistry.sol\":2309:2342  TaskCompleted(taskId, msg.sender) */\n      0xbb5889c77948badf90e8a5c73d55265e5f5d6e4837a79a78c5669691b897faed\n      mload(0x40)\n      mload(0x40)\n      dup1\n      swap2\n      sub\n      swap1\n      log3\n        /* \"contracts/solidity/TaskRegistry.sol\":2020:2349  function completeTask(uint256 taskId) public {... */\n      pop\n      jump\t// out\n        /* \"#utility.yul\":7:82   */\n    tag_120:\n        /* \"#utility.yul\":40:46   */\n      0x00\n        /* \"#utility.yul\":73:75   */\n      0x40\n        /* \"#utility.yul\":67:76   */\n      mload\n        /* \"#utility.yul\":57:76   */\n      swap1\n      pop\n        /* \"#utility.yul\":7:82   */\n      swap1\n      jump\t// out\n        /* \"#utility.yul\":88:205   */\n    tag_121:\n        /* \"#utility.yul\":197:198   */\n      0x00\n        /* \"#utility.yul\":194:195   */\n      0x00\n        /* \"#utility.yul\":187:199   */\n      revert\n        /* \"#utility.yul\":211:328   */\n    tag_122:\n        /* \"#utility.yul\":320:321   */\n      0x00\n        /* \"#utility.yul\":317:318   */\n      0x00\n        /* \"#utility.yul\":310:322   */\n      revert\n        /* \"#utility.yul\":334:411   */\n    tag_123:\n        /* \"#utility.yul\":371:378   */\n      0x00\n        /* \"#utility.yul\":400:405   */\n      dup2\n        /* \"#utility.yul\":389:405   */\n      swap1\n      pop\n        /* \"#utility.yul\":334:411   */\n      swap2\n      swap1\n      pop\n      jump\t// out\n        /* \"#utility.yul\":417:539   */\n    tag_124:\n        /* \"#utility.yul\":490:514   */\n      tag_189\n        /* \"#utility.yul\":508:513   */\n      dup2\n        /* \"#utility.yul\":490:514   */\n      tag_123\n      jump\t// in\n    tag_189:\n        /* \"#utility.yul\":483:488   */\n      dup2\n        /* \"#utility.yul\":480:515   */\n      eq\n        /* \"#utility.yul\":470:533   */\n      tag_190\n      jumpi\n        /* \"#utility.yul\":529:530   */\n      0x00\n        /* \"#utility.yul\":526:527   */\n      0x00\n        /* \"#utility.yul\":519:531   */\n      revert\n        /* \"#utility.yul\":470:533   */\n    tag_190:\n        /* \"#utility.yul\":417:539   */\n      pop\n      jump\t// out\n        /* \"#utility.yul\":545:684   */\n    tag_125:\n        /* \"#utility.yul\":591:596   */\n      0x00\n        /* \"#utility.yul\":629:635   */\n      dup2\n        /* \"#utility.yul\":616:636   */\n      calldataload\n        /* \"#utility.yul\":607:636   */\n      swap1\n      pop\n        /* \"#utility.yul\":645:678   */\n      tag_192\n        /* \"#utility.yul\":672:677   */\n      dup2\n        /* \"#utility.yul\":645:678   */\n      tag_124\n      jump\t// in\n    tag_192:\n        /* \"#utility.yul\":545:684   */\n      swap3\n      swap2\n      pop\n      pop\n      jump\t// out\n        /* \"#utility.yul\":690:1019   */\n    tag_14:\n        /* \"#utility.yul\":749:755   */\n      0x00\n        /* \"#utility.yul\":798:800   */\n      0x20\n        /* \"#utility.yul\":786:795   */\n      dup3\n        /* \"#utility.yul\":777:784   */\n      dup5\n        /* \"#utility.yul\":773:796   */\n      sub\n        /* \"#utility.yul\":769:801   */\n      slt\n        /* \"#utility.yul\":766:885   */\n      iszero\n      tag_194\n      jumpi\n        /* \"#utility.yul\":804:883   */\n      tag_195\n      tag_121\n      jump\t// in\n    tag_195:\n        /* \"#utility.yul\":766:885   */\n    tag_194:\n        /* \"#utility.yul\":924:925   */\n      0x00\n        /* \"#utility.yul\":949:1002   */\n      tag_196\n        /* \"#utility.yul\":994:1001   */\n      dup5\n        /* \"#utility.yul\":985:991   */\n      dup3\n        /* \"#utility.yul\":974:983   */\n      dup6\n        /* \"#utility.yul\":970:992   */\n      add\n        /* \"#utility.yul\":949:1002   */\n      tag_125\n      jump\t// in\n    tag_196:\n        /* \"#utility.yul\":939:1002   */\n      swap2\n      pop\n        /* \"#utility.yul\":895:1012   */\n      pop\n        /* \"#utility.yul\":690:1019   */\n      swap3\n      swap2\n      pop\n      pop\n      jump\t// out\n        /* \"#utility.yul\":1025:1143   */\n    tag_126:\n        /* \"#utility.yul\":1112:1136   */\n      tag_198\n        /* \"#utility.yul\":1130:1135   */\n      dup2\n        /* \"#utility.yul\":1112:1136   */\n      tag_123\n      jump\t// in\n    tag_198:\n        /* \"#utility.yul\":1107:1110   */\n      dup3\n        /* \"#utility.yul\":1100:1137   */\n      mstore\n        /* \"#utility.yul\":1025:1143   */\n      pop\n      pop\n      jump\t// out\n        /* \"#utility.yul\":1149:1275   */\n    tag_127:\n        /* \"#utility.yul\":1186:1193   */\n      0x00\n        /* \"#utility.yul\":1226:1268   */\n      0xffffffffffffffffffffffffffffffffffffffff\n        /* \"#utility.yul\":1219:1224   */\n      dup3\n        /* \"#utility.yul\":1215:1269   */\n      and\n        /* \"#utility.yul\":1204:1269   */\n      swap1\n      pop\n        /* \"#utility.yul\":1149:1275   */\n      swap2\n      swap1\n      pop\n      jump\t// out\n        /* \"#utility.yul\":1281:1377   */\n    tag_128:\n        /* \"#utility.yul\":1318:1325   */\n      0x00\n        /* \"#utility.yul\":1347:1371   */\n      tag_201\n        /* \"#utility.yul\":1365:1370   */\n      dup3\n        /* \"#utility.yul\":1347:1371   */\n      tag_127\n      jump\t// in\n    tag_201:\n        /* \"#utility.yul\":1336:1371   */\n      swap1\n      pop\n        /* \"#utility.yul\":1281:1377   */\n      swap2\n      swap1\n      pop\n      jump\t// out\n        /* \"#utility.yul\":1383:1501   */\n    tag_129:\n        /* \"#utility.yul\":1470:1494   */\n      tag_203\n        /* \"#utility.yul\":1488:1493   */\n      dup2\n        /* \"#utility.yul\":1470:1494   */\n      tag_128\n      jump\t// in\n    tag_203:\n        /* \"#utility.yul\":1465:1468   */\n      dup3\n        /* \"#utility.yul\":1458:1495   */\n      mstore\n        /* \"#utility.yul\":1383:1501   */\n      pop\n      pop\n      jump\t// out\n        /* \"#utility.yul\":1507:1606   */\n    tag_130:\n        /* \"#utility.yul\":1559:1565   */\n      0x00\n        /* \"#utility.yul\":1593:1598   */\n      dup2\n        /* \"#utility.yul\":1587:1599   */\n      mload\n        /* \"#utility.yul\":1577:1599   */\n      swap1\n      pop\n        /* \"#utility.yul\":1507:1606   */\n      swap2\n      swap1\n      pop\n      jump\t// out\n        /* \"#utility.yul\":1612:1781   */\n    tag_131:\n        /* \"#utility.yul\":1696:1707   */\n      0x00\n        /* \"#utility.yul\":1730:1736   */\n      dup3\n        /* \"#utility.yul\":1725:1728   */\n      dup3\n        /* \"#utility.yul\":1718:1737   */\n      mstore\n        /* \"#utility.yul\":1770:1774   */\n      0x20\n        /* \"#utility.yul\":1765:1768   */\n      dup3\n        /* \"#utility.yul\":1761:1775   */\n      add\n        /* \"#utility.yul\":1746:1775   */\n      swap1\n      pop\n        /* \"#utility.yul\":1612:1781   */\n      swap3\n      swap2\n      pop\n      pop\n      jump\t// out\n        /* \"#utility.yul\":1787:1926   */\n    tag_132:\n        /* \"#utility.yul\":1876:1882   */\n      dup3\n        /* \"#utility.yul\":1871:1874   */\n      dup2\n        /* \"#utility.yul\":1866:1869   */\n      dup4\n        /* \"#utility.yul\":1860:1883   */\n      mcopy\n        /* \"#utility.yul\":1917:1918   */\n      0x00\n        /* \"#utility.yul\":1908:1914   */\n      dup4\n        /* \"#utility.yul\":1903:1906   */\n      dup4\n        /* \"#utility.yul\":1899:1915   */\n      add\n        /* \"#utility.yul\":1892:1919   */\n      mstore\n        /* \"#utility.yul\":1787:1926   */\n      pop\n      pop\n      pop\n      jump\t// out\n        /* \"#utility.yul\":1932:2034   */\n    tag_133:\n        /* \"#utility.yul\":1973:1979   */\n      0x00\n        /* \"#utility.yul\":2024:2026   */\n      0x1f\n        /* \"#utility.yul\":2020:2027   */\n      not\n        /* \"#utility.yul\":2015:2017   */\n      0x1f\n        /* \"#utility.yul\":2008:2013   */\n      dup4\n        /* \"#utility.yul\":2004:2018   */\n      add\n        /* \"#utility.yul\":2000:2028   */\n      and\n        /* \"#utility.yul\":1990:2028   */\n      swap1\n      pop\n        /* \"#utility.yul\":1932:2034   */\n      swap2\n      swap1\n      pop\n      jump\t// out\n        /* \"#utility.yul\":2040:2417   */\n    tag_134:\n        /* \"#utility.yul\":2128:2131   */\n      0x00\n        /* \"#utility.yul\":2156:2195   */\n      tag_209\n        /* \"#utility.yul\":2189:2194   */\n      dup3\n        /* \"#utility.yul\":2156:2195   */\n      tag_130\n      jump\t// in\n    tag_209:\n        /* \"#utility.yul\":2211:2282   */\n      tag_210\n        /* \"#utility.yul\":2275:2281   */\n      dup2\n        /* \"#utility.yul\":2270:2273   */\n      dup6\n        /* \"#utility.yul\":2211:2282   */\n      tag_131\n      jump\t// in\n    tag_210:\n        /* \"#utility.yul\":2204:2282   */\n      swap4\n      pop\n        /* \"#utility.yul\":2291:2356   */\n      tag_211\n        /* \"#utility.yul\":2349:2355   */\n      dup2\n        /* \"#utility.yul\":2344:2347   */\n      dup6\n        /* \"#utility.yul\":2337:2341   */\n      0x20\n        /* \"#utility.yul\":2330:2335   */\n      dup7\n        /* \"#utility.yul\":2326:2342   */\n      add\n        /* \"#utility.yul\":2291:2356   */\n      tag_132\n      jump\t// in\n    tag_211:\n        /* \"#utility.yul\":2381:2410   */\n      tag_212\n        /* \"#utility.yul\":2403:2409   */\n      dup2\n        /* \"#utility.yul\":2381:2410   */\n      tag_133\n      jump\t// in\n    tag_212:\n        /* \"#utility.yul\":2376:2379   */\n      dup5\n        /* \"#utility.yul\":2372:2411   */\n      add\n        /* \"#utility.yul\":2365:2411   */\n      swap2\n      pop\n        /* \"#utility.yul\":2132:2417   */\n      pop\n        /* \"#utility.yul\":2040:2417   */\n      swap3\n      swap2\n      pop\n      pop\n      jump\t// out\n        /* \"#utility.yul\":2423:2513   */\n    tag_135:\n        /* \"#utility.yul\":2457:2464   */\n      0x00\n        /* \"#utility.yul\":2500:2505   */\n      dup2\n        /* \"#utility.yul\":2493:2506   */\n      iszero\n        /* \"#utility.yul\":2486:2507   */\n      iszero\n        /* \"#utility.yul\":2475:2507   */\n      swap1\n      pop\n        /* \"#utility.yul\":2423:2513   */\n      swap2\n      swap1\n      pop\n      jump\t// out\n        /* \"#utility.yul\":2519:2628   */\n    tag_136:\n        /* \"#utility.yul\":2600:2621   */\n      tag_215\n        /* \"#utility.yul\":2615:2620   */\n      dup2\n        /* \"#utility.yul\":2600:2621   */\n      tag_135\n      jump\t// in\n    tag_215:\n        /* \"#utility.yul\":2595:2598   */\n      dup3\n        /* \"#utility.yul\":2588:2622   */\n      mstore\n        /* \"#utility.yul\":2519:2628   */\n      pop\n      pop\n      jump\t// out\n        /* \"#utility.yul\":2634:3789   */\n    tag_21:\n        /* \"#utility.yul\":2951:2955   */\n      0x00\n        /* \"#utility.yul\":2989:2992   */\n      0x0100\n        /* \"#utility.yul\":2978:2987   */\n      dup3\n        /* \"#utility.yul\":2974:2993   */\n      add\n        /* \"#utility.yul\":2966:2993   */\n      swap1\n      pop\n        /* \"#utility.yul\":3003:3074   */\n      tag_217\n        /* \"#utility.yul\":3071:3072   */\n      0x00\n        /* \"#utility.yul\":3060:3069   */\n      dup4\n        /* \"#utility.yul\":3056:3073   */\n      add\n        /* \"#utility.yul\":3047:3053   */\n      dup12\n        /* \"#utility.yul\":3003:3074   */\n      tag_126\n      jump\t// in\n    tag_217:\n        /* \"#utility.yul\":3084:3156   */\n      tag_218\n        /* \"#utility.yul\":3152:3154   */\n      0x20\n        /* \"#utility.yul\":3141:3150   */\n      dup4\n        /* \"#utility.yul\":3137:3155   */\n      add\n        /* \"#utility.yul\":3128:3134   */\n      dup11\n        /* \"#utility.yul\":3084:3156   */\n      tag_129\n      jump\t// in\n    tag_218:\n        /* \"#utility.yul\":3166:3238   */\n      tag_219\n        /* \"#utility.yul\":3234:3236   */\n      0x40\n        /* \"#utility.yul\":3223:3232   */\n      dup4\n        /* \"#utility.yul\":3219:3237   */\n      add\n        /* \"#utility.yul\":3210:3216   */\n      dup10\n        /* \"#utility.yul\":3166:3238   */\n      tag_129\n      jump\t// in\n    tag_219:\n        /* \"#utility.yul\":3285:3294   */\n      dup2\n        /* \"#utility.yul\":3279:3283   */\n      dup2\n        /* \"#utility.yul\":3275:3295   */\n      sub\n        /* \"#utility.yul\":3270:3272   */\n      0x60\n        /* \"#utility.yul\":3259:3268   */\n      dup4\n        /* \"#utility.yul\":3255:3273   */\n      add\n        /* \"#utility.yul\":3248:3296   */\n      mstore\n        /* \"#utility.yul\":3313:3391   */\n      tag_220\n        /* \"#utility.yul\":3386:3390   */\n      dup2\n        /* \"#utility.yul\":3377:3383   */\n      dup9\n        /* \"#utility.yul\":3313:3391   */\n      tag_134\n      jump\t// in\n    tag_220:\n        /* \"#utility.yul\":3305:3391   */\n      swap1\n      pop\n        /* \"#utility.yul\":3439:3448   */\n      dup2\n        /* \"#utility.yul\":3433:3437   */\n      dup2\n        /* \"#utility.yul\":3429:3449   */\n      sub\n        /* \"#utility.yul\":3423:3426   */\n      0x80\n        /* \"#utility.yul\":3412:3421   */\n      dup4\n        /* \"#utility.yul\":3408:3427   */\n      add\n        /* \"#utility.yul\":3401:3450   */\n      mstore\n        /* \"#utility.yul\":3467:3545   */\n      tag_221\n        /* \"#utility.yul\":3540:3544   */\n      dup2\n        /* \"#utility.yul\":3531:3537   */\n      dup8\n        /* \"#utility.yul\":3467:3545   */\n      tag_134\n      jump\t// in\n    tag_221:\n        /* \"#utility.yul\":3459:3545   */\n      swap1\n      pop\n        /* \"#utility.yul\":3555:3628   */\n      tag_222\n        /* \"#utility.yul\":3623:3626   */\n      0xa0\n        /* \"#utility.yul\":3612:3621   */\n      dup4\n        /* \"#utility.yul\":3608:3627   */\n      add\n        /* \"#utility.yul\":3599:3605   */\n      dup7\n        /* \"#utility.yul\":3555:3628   */\n      tag_126\n      jump\t// in\n    tag_222:\n        /* \"#utility.yul\":3638:3705   */\n      tag_223\n        /* \"#utility.yul\":3700:3703   */\n      0xc0\n        /* \"#utility.yul\":3689:3698   */\n      dup4\n        /* \"#utility.yul\":3685:3704   */\n      add\n        /* \"#utility.yul\":3676:3682   */\n      dup6\n        /* \"#utility.yul\":3638:3705   */\n      tag_136\n      jump\t// in\n    tag_223:\n        /* \"#utility.yul\":3715:3782   */\n      tag_224\n        /* \"#utility.yul\":3777:3780   */\n      0xe0\n        /* \"#utility.yul\":3766:3775   */\n      dup4\n        /* \"#utility.yul\":3762:3781   */\n      add\n        /* \"#utility.yul\":3753:3759   */\n      dup5\n        /* \"#utility.yul\":3715:3782   */\n      tag_136\n      jump\t// in\n    tag_224:\n        /* \"#utility.yul\":2634:3789   */\n      swap10\n      swap9\n      pop\n      pop\n      pop\n      pop\n      pop\n      pop\n      pop\n      pop\n      pop\n      jump\t// out\n        /* \"#utility.yul\":3795:3912   */\n    tag_137:\n        /* \"#utility.yul\":3904:3905   */\n      0x00\n        /* \"#utility.yul\":3901:3902   */\n      0x00\n        /* \"#utility.yul\":3894:3906   */\n      revert\n        /* \"#utility.yul\":3918:4035   */\n    tag_138:\n        /* \"#utility.yul\":4027:4028   */\n      0x00\n        /* \"#utility.yul\":4024:4025   */\n      0x00\n        /* \"#utility.yul\":4017:4029   */\n      revert\n        /* \"#utility.yul\":4041:4221   */\n    tag_139:\n        /* \"#utility.yul\":4089:4166   */\n      0x4e487b7100000000000000000000000000000000000000000000000000000000\n        /* \"#utility.yul\":4086:4087   */\n      0x00\n        /* \"#utility.yul\":4079:4167   */\n      mstore\n        /* \"#utility.yul\":4186:4190   */\n      0x41\n        /* \"#utility.yul\":4183:4184   */\n      0x04\n        /* \"#utility.yul\":4176:4191   */\n      mstore\n        /* \"#utility.yul\":4210:4214   */\n      0x24\n        /* \"#utility.yul\":4207:4208   */\n      0x00\n        /* \"#utility.yul\":4200:4215   */\n      revert\n        /* \"#utility.yul\":4227:4508   */\n    tag_140:\n        /* \"#utility.yul\":4310:4337   */\n      tag_229\n        /* \"#utility.yul\":4332:4336   */\n      dup3\n        /* \"#utility.yul\":4310:4337   */\n      tag_133\n      jump\t// in\n    tag_229:\n        /* \"#utility.yul\":4302:4308   */\n      dup2\n        /* \"#utility.yul\":4298:4338   */\n      add\n        /* \"#utility.yul\":4440:4446   */\n      dup2\n        /* \"#utility.yul\":4428:4438   */\n      dup2\n        /* \"#utility.yul\":4425:4447   */\n      lt\n        /* \"#utility.yul\":4404:4422   */\n      0xffffffffffffffff\n        /* \"#utility.yul\":4392:4402   */\n      dup3\n        /* \"#utility.yul\":4389:4423   */\n      gt\n        /* \"#utility.yul\":4386:4448   */\n      or\n        /* \"#utility.yul\":4383:4471   */\n      iszero\n      tag_230\n      jumpi\n        /* \"#utility.yul\":4451:4469   */\n      tag_231\n      tag_139\n      jump\t// in\n    tag_231:\n        /* \"#utility.yul\":4383:4471   */\n    tag_230:\n        /* \"#utility.yul\":4491:4501   */\n      dup1\n        /* \"#utility.yul\":4487:4489   */\n      0x40\n        /* \"#utility.yul\":4480:4502   */\n      mstore\n        /* \"#utility.yul\":4270:4508   */\n      pop\n        /* \"#utility.yul\":4227:4508   */\n      pop\n      pop\n      jump\t// out\n        /* \"#utility.yul\":4514:4643   */\n    tag_141:\n        /* \"#utility.yul\":4548:4554   */\n      0x00\n        /* \"#utility.yul\":4575:4595   */\n      tag_233\n      tag_120\n      jump\t// in\n    tag_233:\n        /* \"#utility.yul\":4565:4595   */\n      swap1\n      pop\n        /* \"#utility.yul\":4604:4637   */\n      tag_234\n        /* \"#utility.yul\":4632:4636   */\n      dup3\n        /* \"#utility.yul\":4624:4630   */\n      dup3\n        /* \"#utility.yul\":4604:4637   */\n      tag_140\n      jump\t// in\n    tag_234:\n        /* \"#utility.yul\":4514:4643   */\n      swap2\n      swap1\n      pop\n      jump\t// out\n        /* \"#utility.yul\":4649:4957   */\n    tag_142:\n        /* \"#utility.yul\":4711:4715   */\n      0x00\n        /* \"#utility.yul\":4801:4819   */\n      0xffffffffffffffff\n        /* \"#utility.yul\":4793:4799   */\n      dup3\n        /* \"#utility.yul\":4790:4820   */\n      gt\n        /* \"#utility.yul\":4787:4843   */\n      iszero\n      tag_236\n      jumpi\n        /* \"#utility.yul\":4823:4841   */\n      tag_237\n      tag_139\n      jump\t// in\n    tag_237:\n        /* \"#utility.yul\":4787:4843   */\n    tag_236:\n        /* \"#utility.yul\":4861:4890   */\n      tag_238\n        /* \"#utility.yul\":4883:4889   */\n      dup3\n        /* \"#utility.yul\":4861:4890   */\n      tag_133\n      jump\t// in\n    tag_238:\n        /* \"#utility.yul\":4853:4890   */\n      swap1\n      pop\n        /* \"#utility.yul\":4945:4949   */\n      0x20\n        /* \"#utility.yul\":4939:4943   */\n      dup2\n        /* \"#utility.yul\":4935:4950   */\n      add\n        /* \"#utility.yul\":4927:4950   */\n      swap1\n      pop\n        /* \"#utility.yul\":4649:4957   */\n      swap2\n      swap1\n      pop\n      jump\t// out\n        /* \"#utility.yul\":4963:5111   */\n    tag_143:\n        /* \"#utility.yul\":5061:5067   */\n      dup3\n        /* \"#utility.yul\":5056:5059   */\n      dup2\n        /* \"#utility.yul\":5051:5054   */\n      dup4\n        /* \"#utility.yul\":5038:5068   */\n      calldatacopy\n        /* \"#utility.yul\":5102:5103   */\n      0x00\n        /* \"#utility.yul\":5093:5099   */\n      dup4\n        /* \"#utility.yul\":5088:5091   */\n      dup4\n        /* \"#utility.yul\":5084:5100   */\n      add\n        /* \"#utility.yul\":5077:5104   */\n      mstore\n        /* \"#utility.yul\":4963:5111   */\n      pop\n      pop\n      pop\n      jump\t// out\n        /* \"#utility.yul\":5117:5542   */\n    tag_144:\n        /* \"#utility.yul\":5195:5200   */\n      0x00\n        /* \"#utility.yul\":5220:5286   */\n      tag_241\n        /* \"#utility.yul\":5236:5285   */\n      tag_242\n        /* \"#utility.yul\":5278:5284   */\n      dup5\n        /* \"#utility.yul\":5236:5285   */\n      tag_142\n      jump\t// in\n    tag_242:\n        /* \"#utility.yul\":5220:5286   */\n      tag_141\n      jump\t// in\n    tag_241:\n        /* \"#utility.yul\":5211:5286   */\n      swap1\n      pop\n        /* \"#utility.yul\":5309:5315   */\n      dup3\n        /* \"#utility.yul\":5302:5307   */\n      dup2\n        /* \"#utility.yul\":5295:5316   */\n      mstore\n        /* \"#utility.yul\":5347:5351   */\n      0x20\n        /* \"#utility.yul\":5340:5345   */\n      dup2\n        /* \"#utility.yul\":5336:5352   */\n      add\n        /* \"#utility.yul\":5385:5388   */\n      dup5\n        /* \"#utility.yul\":5376:5382   */\n      dup5\n        /* \"#utility.yul\":5371:5374   */\n      dup5\n        /* \"#utility.yul\":5367:5383   */\n      add\n        /* \"#utility.yul\":5364:5389   */\n      gt\n        /* \"#utility.yul\":5361:5473   */\n      iszero\n      tag_243\n      jumpi\n        /* \"#utility.yul\":5392:5471   */\n      tag_244\n      tag_138\n      jump\t// in\n    tag_244:\n        /* \"#utility.yul\":5361:5473   */\n    tag_243:\n        /* \"#utility.yul\":5482:5536   */\n      tag_245\n        /* \"#utility.yul\":5529:5535   */\n      dup5\n        /* \"#utility.yul\":5524:5527   */\n      dup3\n        /* \"#utility.yul\":5519:5522   */\n      dup6\n        /* \"#utility.yul\":5482:5536   */\n      tag_143\n      jump\t// in\n    tag_245:\n        /* \"#utility.yul\":5201:5542   */\n      pop\n        /* \"#utility.yul\":5117:5542   */\n      swap4\n      swap3\n      pop\n      pop\n      pop\n      jump\t// out\n        /* \"#utility.yul\":5562:5902   */\n    tag_145:\n        /* \"#utility.yul\":5618:5623   */\n      0x00\n        /* \"#utility.yul\":5667:5670   */\n      dup3\n        /* \"#utility.yul\":5660:5664   */\n      0x1f\n        /* \"#utility.yul\":5652:5658   */\n      dup4\n        /* \"#utility.yul\":5648:5665   */\n      add\n        /* \"#utility.yul\":5644:5671   */\n      slt\n        /* \"#utility.yul\":5634:5756   */\n      tag_247\n      jumpi\n        /* \"#utility.yul\":5675:5754   */\n      tag_248\n      tag_137\n      jump\t// in\n    tag_248:\n        /* \"#utility.yul\":5634:5756   */\n    tag_247:\n        /* \"#utility.yul\":5792:5798   */\n      dup2\n        /* \"#utility.yul\":5779:5799   */\n      calldataload\n        /* \"#utility.yul\":5817:5896   */\n      tag_249\n        /* \"#utility.yul\":5892:5895   */\n      dup5\n        /* \"#utility.yul\":5884:5890   */\n      dup3\n        /* \"#utility.yul\":5877:5881   */\n      0x20\n        /* \"#utility.yul\":5869:5875   */\n      dup7\n        /* \"#utility.yul\":5865:5882   */\n      add\n        /* \"#utility.yul\":5817:5896   */\n      tag_144\n      jump\t// in\n    tag_249:\n        /* \"#utility.yul\":5808:5896   */\n      swap2\n      pop\n        /* \"#utility.yul\":5624:5902   */\n      pop\n        /* \"#utility.yul\":5562:5902   */\n      swap3\n      swap2\n      pop\n      pop\n      jump\t// out\n        /* \"#utility.yul\":5908:6887   */\n    tag_27:\n        /* \"#utility.yul\":6005:6011   */\n      0x00\n        /* \"#utility.yul\":6013:6019   */\n      0x00\n        /* \"#utility.yul\":6021:6027   */\n      0x00\n        /* \"#utility.yul\":6070:6072   */\n      0x60\n        /* \"#utility.yul\":6058:6067   */\n      dup5\n        /* \"#utility.yul\":6049:6056   */\n      dup7\n        /* \"#utility.yul\":6045:6068   */\n      sub\n        /* \"#utility.yul\":6041:6073   */\n      slt\n        /* \"#utility.yul\":6038:6157   */\n      iszero\n      tag_251\n      jumpi\n        /* \"#utility.yul\":6076:6155   */\n      tag_252\n      tag_121\n      jump\t// in\n    tag_252:\n        /* \"#utility.yul\":6038:6157   */\n    tag_251:\n        /* \"#utility.yul\":6224:6225   */\n      0x00\n        /* \"#utility.yul\":6213:6222   */\n      dup5\n        /* \"#utility.yul\":6209:6226   */\n      add\n        /* \"#utility.yul\":6196:6227   */\n      calldataload\n        /* \"#utility.yul\":6254:6272   */\n      0xffffffffffffffff\n        /* \"#utility.yul\":6246:6252   */\n      dup2\n        /* \"#utility.yul\":6243:6273   */\n      gt\n        /* \"#utility.yul\":6240:6357   */\n      iszero\n      tag_253\n      jumpi\n        /* \"#utility.yul\":6276:6355   */\n      tag_254\n      tag_122\n      jump\t// in\n    tag_254:\n        /* \"#utility.yul\":6240:6357   */\n    tag_253:\n        /* \"#utility.yul\":6381:6444   */\n      tag_255\n        /* \"#utility.yul\":6436:6443   */\n      dup7\n        /* \"#utility.yul\":6427:6433   */\n      dup3\n        /* \"#utility.yul\":6416:6425   */\n      dup8\n        /* \"#utility.yul\":6412:6434   */\n      add\n        /* \"#utility.yul\":6381:6444   */\n      tag_145\n      jump\t// in\n    tag_255:\n        /* \"#utility.yul\":6371:6444   */\n      swap4\n      pop\n        /* \"#utility.yul\":6167:6454   */\n      pop\n        /* \"#utility.yul\":6521:6523   */\n      0x20\n        /* \"#utility.yul\":6510:6519   */\n      dup5\n        /* \"#utility.yul\":6506:6524   */\n      add\n        /* \"#utility.yul\":6493:6525   */\n      calldataload\n        /* \"#utility.yul\":6552:6570   */\n      0xffffffffffffffff\n        /* \"#utility.yul\":6544:6550   */\n      dup2\n        /* \"#utility.yul\":6541:6571   */\n      gt\n        /* \"#utility.yul\":6538:6655   */\n      iszero\n      tag_256\n      jumpi\n        /* \"#utility.yul\":6574:6653   */\n      tag_257\n      tag_122\n      jump\t// in\n    tag_257:\n        /* \"#utility.yul\":6538:6655   */\n    tag_256:\n        /* \"#utility.yul\":6679:6742   */\n      tag_258\n        /* \"#utility.yul\":6734:6741   */\n      dup7\n        /* \"#utility.yul\":6725:6731   */\n      dup3\n        /* \"#utility.yul\":6714:6723   */\n      dup8\n        /* \"#utility.yul\":6710:6732   */\n      add\n        /* \"#utility.yul\":6679:6742   */\n      tag_145\n      jump\t// in\n    tag_258:\n        /* \"#utility.yul\":6669:6742   */\n      swap3\n      pop\n        /* \"#utility.yul\":6464:6752   */\n      pop\n        /* \"#utility.yul\":6791:6793   */\n      0x40\n        /* \"#utility.yul\":6817:6870   */\n      tag_259\n        /* \"#utility.yul\":6862:6869   */\n      dup7\n        /* \"#utility.yul\":6853:6859   */\n      dup3\n        /* \"#utility.yul\":6842:6851   */\n      dup8\n        /* \"#utility.yul\":6838:6860   */\n      add\n        /* \"#utility.yul\":6817:6870   */\n      tag_125\n      jump\t// in\n    tag_259:\n        /* \"#utility.yul\":6807:6870   */\n      swap2\n      pop\n        /* \"#utility.yul\":6762:6880   */\n      pop\n        /* \"#utility.yul\":5908:6887   */\n      swap3\n      pop\n      swap3\n      pop\n      swap3\n      jump\t// out\n        /* \"#utility.yul\":6893:7115   */\n    tag_30:\n        /* \"#utility.yul\":6986:6990   */\n      0x00\n        /* \"#utility.yul\":7024:7026   */\n      0x20\n        /* \"#utility.yul\":7013:7022   */\n      dup3\n        /* \"#utility.yul\":7009:7027   */\n      add\n        /* \"#utility.yul\":7001:7027   */\n      swap1\n      pop\n        /* \"#utility.yul\":7037:7108   */\n      tag_261\n        /* \"#utility.yul\":7105:7106   */\n      0x00\n        /* \"#utility.yul\":7094:7103   */\n      dup4\n        /* \"#utility.yul\":7090:7107   */\n      add\n        /* \"#utility.yul\":7081:7087   */\n      dup5\n        /* \"#utility.yul\":7037:7108   */\n      tag_126\n      jump\t// in\n    tag_261:\n        /* \"#utility.yul\":6893:7115   */\n      swap3\n      swap2\n      pop\n      pop\n      jump\t// out\n        /* \"#utility.yul\":7121:7243   */\n    tag_146:\n        /* \"#utility.yul\":7194:7218   */\n      tag_263\n        /* \"#utility.yul\":7212:7217   */\n      dup2\n        /* \"#utility.yul\":7194:7218   */\n      tag_128\n      jump\t// in\n    tag_263:\n        /* \"#utility.yul\":7187:7192   */\n      dup2\n        /* \"#utility.yul\":7184:7219   */\n      eq\n        /* \"#utility.yul\":7174:7237   */\n      tag_264\n      jumpi\n        /* \"#utility.yul\":7233:7234   */\n      0x00\n        /* \"#utility.yul\":7230:7231   */\n      0x00\n        /* \"#utility.yul\":7223:7235   */\n      revert\n        /* \"#utility.yul\":7174:7237   */\n    tag_264:\n        /* \"#utility.yul\":7121:7243   */\n      pop\n      jump\t// out\n        /* \"#utility.yul\":7249:7388   */\n    tag_147:\n        /* \"#utility.yul\":7295:7300   */\n      0x00\n        /* \"#utility.yul\":7333:7339   */\n      dup2\n        /* \"#utility.yul\":7320:7340   */\n      calldataload\n        /* \"#utility.yul\":7311:7340   */\n      swap1\n      pop\n        /* \"#utility.yul\":7349:7382   */\n      tag_266\n        /* \"#utility.yul\":7376:7381   */\n      dup2\n        /* \"#utility.yul\":7349:7382   */\n      tag_146\n      jump\t// in\n    tag_266:\n        /* \"#utility.yul\":7249:7388   */\n      swap3\n      swap2\n      pop\n      pop\n      jump\t// out\n        /* \"#utility.yul\":7394:7868   */\n    tag_34:\n        /* \"#utility.yul\":7462:7468   */\n      0x00\n        /* \"#utility.yul\":7470:7476   */\n      0x00\n        /* \"#utility.yul\":7519:7521   */\n      0x40\n        /* \"#utility.yul\":7507:7516   */\n      dup4\n        /* \"#utility.yul\":7498:7505   */\n      dup6\n        /* \"#utility.yul\":7494:7517   */\n      sub\n        /* \"#utility.yul\":7490:7522   */\n      slt\n        /* \"#utility.yul\":7487:7606   */\n      iszero\n      tag_268\n      jumpi\n        /* \"#utility.yul\":7525:7604   */\n      tag_269\n      tag_121\n      jump\t// in\n    tag_269:\n        /* \"#utility.yul\":7487:7606   */\n    tag_268:\n        /* \"#utility.yul\":7645:7646   */\n      0x00\n        /* \"#utility.yul\":7670:7723   */\n      tag_270\n        /* \"#utility.yul\":7715:7722   */\n      dup6\n        /* \"#utility.yul\":7706:7712   */\n      dup3\n        /* \"#utility.yul\":7695:7704   */\n      dup7\n        /* \"#utility.yul\":7691:7713   */\n      add\n        /* \"#utility.yul\":7670:7723   */\n      tag_125\n      jump\t// in\n    tag_270:\n        /* \"#utility.yul\":7660:7723   */\n      swap3\n      pop\n        /* \"#utility.yul\":7616:7733   */\n      pop\n        /* \"#utility.yul\":7772:7774   */\n      0x20\n        /* \"#utility.yul\":7798:7851   */\n      tag_271\n        /* \"#utility.yul\":7843:7850   */\n      dup6\n        /* \"#utility.yul\":7834:7840   */\n      dup3\n        /* \"#utility.yul\":7823:7832   */\n      dup7\n        /* \"#utility.yul\":7819:7841   */\n      add\n        /* \"#utility.yul\":7798:7851   */\n      tag_147\n      jump\t// in\n    tag_271:\n        /* \"#utility.yul\":7788:7851   */\n      swap2\n      pop\n        /* \"#utility.yul\":7743:7861   */\n      pop\n        /* \"#utility.yul\":7394:7868   */\n      swap3\n      pop\n      swap3\n      swap1\n      pop\n      jump\t// out\n        /* \"#utility.yul\":7874:8096   */\n    tag_45:\n        /* \"#utility.yul\":7967:7971   */\n      0x00\n        /* \"#utility.yul\":8005:8007   */\n      0x20\n        /* \"#utility.yul\":7994:8003   */\n      dup3\n        /* \"#utility.yul\":7990:8008   */\n      add\n        /* \"#utility.yul\":7982:8008   */\n      swap1\n      pop\n        /* \"#utility.yul\":8018:8089   */\n      tag_273\n        /* \"#utility.yul\":8086:8087   */\n      0x00\n        /* \"#utility.yul\":8075:8084   */\n      dup4\n        /* \"#utility.yul\":8071:8088   */\n      add\n        /* \"#utility.yul\":8062:8068   */\n      dup5\n        /* \"#utility.yul\":8018:8089   */\n      tag_129\n      jump\t// in\n    tag_273:\n        /* \"#utility.yul\":7874:8096   */\n      swap3\n      swap2\n      pop\n      pop\n      jump\t// out\n        /* \"#utility.yul\":8102:8327   */\n    tag_148:\n        /* \"#utility.yul\":8242:8276   */\n      0x4f6e6c79207461736b2063726561746f722063616e20617070726f7665207468\n        /* \"#utility.yul\":8238:8239   */\n      0x00\n        /* \"#utility.yul\":8230:8236   */\n      dup3\n        /* \"#utility.yul\":8226:8240   */\n      add\n        /* \"#utility.yul\":8219:8277   */\n      mstore\n        /* \"#utility.yul\":8311:8319   */\n      0x65207461736b0000000000000000000000000000000000000000000000000000\n        /* \"#utility.yul\":8306:8308   */\n      0x20\n        /* \"#utility.yul\":8298:8304   */\n      dup3\n        /* \"#utility.yul\":8294:8309   */\n      add\n        /* \"#utility.yul\":8287:8320   */\n      mstore\n        /* \"#utility.yul\":8102:8327   */\n      pop\n      jump\t// out\n        /* \"#utility.yul\":8333:8699   */\n    tag_149:\n        /* \"#utility.yul\":8475:8478   */\n      0x00\n        /* \"#utility.yul\":8496:8563   */\n      tag_276\n        /* \"#utility.yul\":8560:8562   */\n      0x26\n        /* \"#utility.yul\":8555:8558   */\n      dup4\n        /* \"#utility.yul\":8496:8563   */\n      tag_131\n      jump\t// in\n    tag_276:\n        /* \"#utility.yul\":8489:8563   */\n      swap2\n      pop\n        /* \"#utility.yul\":8572:8665   */\n      tag_277\n        /* \"#utility.yul\":8661:8664   */\n      dup3\n        /* \"#utility.yul\":8572:8665   */\n      tag_148\n      jump\t// in\n    tag_277:\n        /* \"#utility.yul\":8690:8692   */\n      0x40\n        /* \"#utility.yul\":8685:8688   */\n      dup3\n        /* \"#utility.yul\":8681:8693   */\n      add\n        /* \"#utility.yul\":8674:8693   */\n      swap1\n      pop\n        /* \"#utility.yul\":8333:8699   */\n      swap2\n      swap1\n      pop\n      jump\t// out\n        /* \"#utility.yul\":8705:9124   */\n    tag_57:\n        /* \"#utility.yul\":8871:8875   */\n      0x00\n        /* \"#utility.yul\":8909:8911   */\n      0x20\n        /* \"#utility.yul\":8898:8907   */\n      dup3\n        /* \"#utility.yul\":8894:8912   */\n      add\n        /* \"#utility.yul\":8886:8912   */\n      swap1\n      pop\n        /* \"#utility.yul\":8958:8967   */\n      dup2\n        /* \"#utility.yul\":8952:8956   */\n      dup2\n        /* \"#utility.yul\":8948:8968   */\n      sub\n        /* \"#utility.yul\":8944:8945   */\n      0x00\n        /* \"#utility.yul\":8933:8942   */\n      dup4\n        /* \"#utility.yul\":8929:8946   */\n      add\n        /* \"#utility.yul\":8922:8969   */\n      mstore\n        /* \"#utility.yul\":8986:9117   */\n      tag_279\n        /* \"#utility.yul\":9112:9116   */\n      dup2\n        /* \"#utility.yul\":8986:9117   */\n      tag_149\n      jump\t// in\n    tag_279:\n        /* \"#utility.yul\":8978:9117   */\n      swap1\n      pop\n        /* \"#utility.yul\":8705:9124   */\n      swap2\n      swap1\n      pop\n      jump\t// out\n        /* \"#utility.yul\":9130:9302   */\n    tag_150:\n        /* \"#utility.yul\":9270:9294   */\n      0x5461736b206e6f7420636f6d706c657465642079657400000000000000000000\n        /* \"#utility.yul\":9266:9267   */\n      0x00\n        /* \"#utility.yul\":9258:9264   */\n      dup3\n        /* \"#utility.yul\":9254:9268   */\n      add\n        /* \"#utility.yul\":9247:9295   */\n      mstore\n        /* \"#utility.yul\":9130:9302   */\n      pop\n      jump\t// out\n        /* \"#utility.yul\":9308:9674   */\n    tag_151:\n        /* \"#utility.yul\":9450:9453   */\n      0x00\n        /* \"#utility.yul\":9471:9538   */\n      tag_282\n        /* \"#utility.yul\":9535:9537   */\n      0x16\n        /* \"#utility.yul\":9530:9533   */\n      dup4\n        /* \"#utility.yul\":9471:9538   */\n      tag_131\n      jump\t// in\n    tag_282:\n        /* \"#utility.yul\":9464:9538   */\n      swap2\n      pop\n        /* \"#utility.yul\":9547:9640   */\n      tag_283\n        /* \"#utility.yul\":9636:9639   */\n      dup3\n        /* \"#utility.yul\":9547:9640   */\n      tag_150\n      jump\t// in\n    tag_283:\n        /* \"#utility.yul\":9665:9667   */\n      0x20\n        /* \"#utility.yul\":9660:9663   */\n      dup3\n        /* \"#utility.yul\":9656:9668   */\n      add\n        /* \"#utility.yul\":9649:9668   */\n      swap1\n      pop\n        /* \"#utility.yul\":9308:9674   */\n      swap2\n      swap1\n      pop\n      jump\t// out\n        /* \"#utility.yul\":9680:10099   */\n    tag_60:\n        /* \"#utility.yul\":9846:9850   */\n      0x00\n        /* \"#utility.yul\":9884:9886   */\n      0x20\n        /* \"#utility.yul\":9873:9882   */\n      dup3\n        /* \"#utility.yul\":9869:9887   */\n      add\n        /* \"#utility.yul\":9861:9887   */\n      swap1\n      pop\n        /* \"#utility.yul\":9933:9942   */\n      dup2\n        /* \"#utility.yul\":9927:9931   */\n      dup2\n        /* \"#utility.yul\":9923:9943   */\n      sub\n        /* \"#utility.yul\":9919:9920   */\n      0x00\n        /* \"#utility.yul\":9908:9917   */\n      dup4\n        /* \"#utility.yul\":9904:9921   */\n      add\n        /* \"#utility.yul\":9897:9944   */\n      mstore\n        /* \"#utility.yul\":9961:10092   */\n      tag_285\n        /* \"#utility.yul\":10087:10091   */\n      dup2\n        /* \"#utility.yul\":9961:10092   */\n      tag_151\n      jump\t// in\n    tag_285:\n        /* \"#utility.yul\":9953:10092   */\n      swap1\n      pop\n        /* \"#utility.yul\":9680:10099   */\n      swap2\n      swap1\n      pop\n      jump\t// out\n        /* \"#utility.yul\":10105:10276   */\n    tag_152:\n        /* \"#utility.yul\":10245:10268   */\n      0x5461736b20616c726561647920617070726f7665640000000000000000000000\n        /* \"#utility.yul\":10241:10242   */\n      0x00\n        /* \"#utility.yul\":10233:10239   */\n      dup3\n        /* \"#utility.yul\":10229:10243   */\n      add\n        /* \"#utility.yul\":10222:10269   */\n      mstore\n        /* \"#utility.yul\":10105:10276   */\n      pop\n      jump\t// out\n        /* \"#utility.yul\":10282:10648   */\n    tag_153:\n        /* \"#utility.yul\":10424:10427   */\n      0x00\n        /* \"#utility.yul\":10445:10512   */\n      tag_288\n        /* \"#utility.yul\":10509:10511   */\n      0x15\n        /* \"#utility.yul\":10504:10507   */\n      dup4\n        /* \"#utility.yul\":10445:10512   */\n      tag_131\n      jump\t// in\n    tag_288:\n        /* \"#utility.yul\":10438:10512   */\n      swap2\n      pop\n        /* \"#utility.yul\":10521:10614   */\n      tag_289\n        /* \"#utility.yul\":10610:10613   */\n      dup3\n        /* \"#utility.yul\":10521:10614   */\n      tag_152\n      jump\t// in\n    tag_289:\n        /* \"#utility.yul\":10639:10641   */\n      0x20\n        /* \"#utility.yul\":10634:10637   */\n      dup3\n        /* \"#utility.yul\":10630:10642   */\n      add\n        /* \"#utility.yul\":10623:10642   */\n      swap1\n      pop\n        /* \"#utility.yul\":10282:10648   */\n      swap2\n      swap1\n      pop\n      jump\t// out\n        /* \"#utility.yul\":10654:11073   */\n    tag_63:\n        /* \"#utility.yul\":10820:10824   */\n      0x00\n        /* \"#utility.yul\":10858:10860   */\n      0x20\n        /* \"#utility.yul\":10847:10856   */\n      dup3\n        /* \"#utility.yul\":10843:10861   */\n      add\n        /* \"#utility.yul\":10835:10861   */\n      swap1\n      pop\n        /* \"#utility.yul\":10907:10916   */\n      dup2\n        /* \"#utility.yul\":10901:10905   */\n      dup2\n        /* \"#utility.yul\":10897:10917   */\n      sub\n        /* \"#utility.yul\":10893:10894   */\n      0x00\n        /* \"#utility.yul\":10882:10891   */\n      dup4\n        /* \"#utility.yul\":10878:10895   */\n      add\n        /* \"#utility.yul\":10871:10918   */\n      mstore\n        /* \"#utility.yul\":10935:11066   */\n      tag_291\n        /* \"#utility.yul\":11061:11065   */\n      dup2\n        /* \"#utility.yul\":10935:11066   */\n      tag_153\n      jump\t// in\n    tag_291:\n        /* \"#utility.yul\":10927:11066   */\n      swap1\n      pop\n        /* \"#utility.yul\":10654:11073   */\n      swap2\n      swap1\n      pop\n      jump\t// out\n        /* \"#utility.yul\":11079:11258   */\n    tag_154:\n        /* \"#utility.yul\":11219:11250   */\n      0x496e73756666696369656e742066756e647320666f7220726577617264000000\n        /* \"#utility.yul\":11215:11216   */\n      0x00\n        /* \"#utility.yul\":11207:11213   */\n      dup3\n        /* \"#utility.yul\":11203:11217   */\n      add\n        /* \"#utility.yul\":11196:11251   */\n      mstore\n        /* \"#utility.yul\":11079:11258   */\n      pop\n      jump\t// out\n        /* \"#utility.yul\":11264:11630   */\n    tag_155:\n        /* \"#utility.yul\":11406:11409   */\n      0x00\n        /* \"#utility.yul\":11427:11494   */\n      tag_294\n        /* \"#utility.yul\":11491:11493   */\n      0x1d\n        /* \"#utility.yul\":11486:11489   */\n      dup4\n        /* \"#utility.yul\":11427:11494   */\n      tag_131\n      jump\t// in\n    tag_294:\n        /* \"#utility.yul\":11420:11494   */\n      swap2\n      pop\n        /* \"#utility.yul\":11503:11596   */\n      tag_295\n        /* \"#utility.yul\":11592:11595   */\n      dup3\n        /* \"#utility.yul\":11503:11596   */\n      tag_154\n      jump\t// in\n    tag_295:\n        /* \"#utility.yul\":11621:11623   */\n      0x20\n        /* \"#utility.yul\":11616:11619   */\n      dup3\n        /* \"#utility.yul\":11612:11624   */\n      add\n        /* \"#utility.yul\":11605:11624   */\n      swap1\n      pop\n        /* \"#utility.yul\":11264:11630   */\n      swap2\n      swap1\n      pop\n      jump\t// out\n        /* \"#utility.yul\":11636:12055   */\n    tag_66:\n        /* \"#utility.yul\":11802:11806   */\n      0x00\n        /* \"#utility.yul\":11840:11842   */\n      0x20\n        /* \"#utility.yul\":11829:11838   */\n      dup3\n        /* \"#utility.yul\":11825:11843   */\n      add\n        /* \"#utility.yul\":11817:11843   */\n      swap1\n      pop\n        /* \"#utility.yul\":11889:11898   */\n      dup2\n        /* \"#utility.yul\":11883:11887   */\n      dup2\n        /* \"#utility.yul\":11879:11899   */\n      sub\n        /* \"#utility.yul\":11875:11876   */\n      0x00\n        /* \"#utility.yul\":11864:11873   */\n      dup4\n        /* \"#utility.yul\":11860:11877   */\n      add\n        /* \"#utility.yul\":11853:11900   */\n      mstore\n        /* \"#utility.yul\":11917:12048   */\n      tag_297\n        /* \"#utility.yul\":12043:12047   */\n      dup2\n        /* \"#utility.yul\":11917:12048   */\n      tag_155\n      jump\t// in\n    tag_297:\n        /* \"#utility.yul\":11909:12048   */\n      swap1\n      pop\n        /* \"#utility.yul\":11636:12055   */\n      swap2\n      swap1\n      pop\n      jump\t// out\n        /* \"#utility.yul\":12061:12241   */\n    tag_156:\n        /* \"#utility.yul\":12109:12186   */\n      0x4e487b7100000000000000000000000000000000000000000000000000000000\n        /* \"#utility.yul\":12106:12107   */\n      0x00\n        /* \"#utility.yul\":12099:12187   */\n      mstore\n        /* \"#utility.yul\":12206:12210   */\n      0x22\n        /* \"#utility.yul\":12203:12204   */\n      0x04\n        /* \"#utility.yul\":12196:12211   */\n      mstore\n        /* \"#utility.yul\":12230:12234   */\n      0x24\n        /* \"#utility.yul\":12227:12228   */\n      0x00\n        /* \"#utility.yul\":12220:12235   */\n      revert\n        /* \"#utility.yul\":12247:12567   */\n    tag_72:\n        /* \"#utility.yul\":12291:12297   */\n      0x00\n        /* \"#utility.yul\":12328:12329   */\n      0x02\n        /* \"#utility.yul\":12322:12326   */\n      dup3\n        /* \"#utility.yul\":12318:12330   */\n      div\n        /* \"#utility.yul\":12308:12330   */\n      swap1\n      pop\n        /* \"#utility.yul\":12375:12376   */\n      0x01\n        /* \"#utility.yul\":12369:12373   */\n      dup3\n        /* \"#utility.yul\":12365:12377   */\n      and\n        /* \"#utility.yul\":12396:12414   */\n      dup1\n        /* \"#utility.yul\":12386:12467   */\n      tag_300\n      jumpi\n        /* \"#utility.yul\":12452:12456   */\n      0x7f\n        /* \"#utility.yul\":12444:12450   */\n      dup3\n        /* \"#utility.yul\":12440:12457   */\n      and\n        /* \"#utility.yul\":12430:12457   */\n      swap2\n      pop\n        /* \"#utility.yul\":12386:12467   */\n    tag_300:\n        /* \"#utility.yul\":12514:12516   */\n      0x20\n        /* \"#utility.yul\":12506:12512   */\n      dup3\n        /* \"#utility.yul\":12503:12517   */\n      lt\n        /* \"#utility.yul\":12483:12501   */\n      dup2\n        /* \"#utility.yul\":12480:12518   */\n      sub\n        /* \"#utility.yul\":12477:12561   */\n      tag_301\n      jumpi\n        /* \"#utility.yul\":12533:12551   */\n      tag_302\n      tag_156\n      jump\t// in\n    tag_302:\n        /* \"#utility.yul\":12477:12561   */\n    tag_301:\n        /* \"#utility.yul\":12298:12567   */\n      pop\n        /* \"#utility.yul\":12247:12567   */\n      swap2\n      swap1\n      pop\n      jump\t// out\n        /* \"#utility.yul\":12573:12746   */\n    tag_157:\n        /* \"#utility.yul\":12713:12738   */\n      0x4f6e6c79206f776e65722063616e207769746864726177000000000000000000\n        /* \"#utility.yul\":12709:12710   */\n      0x00\n        /* \"#utility.yul\":12701:12707   */\n      dup3\n        /* \"#utility.yul\":12697:12711   */\n      add\n        /* \"#utility.yul\":12690:12739   */\n      mstore\n        /* \"#utility.yul\":12573:12746   */\n      pop\n      jump\t// out\n        /* \"#utility.yul\":12752:13118   */\n    tag_158:\n        /* \"#utility.yul\":12894:12897   */\n      0x00\n        /* \"#utility.yul\":12915:12982   */\n      tag_305\n        /* \"#utility.yul\":12979:12981   */\n      0x17\n        /* \"#utility.yul\":12974:12977   */\n      dup4\n        /* \"#utility.yul\":12915:12982   */\n      tag_131\n      jump\t// in\n    tag_305:\n        /* \"#utility.yul\":12908:12982   */\n      swap2\n      pop\n        /* \"#utility.yul\":12991:13084   */\n      tag_306\n        /* \"#utility.yul\":13080:13083   */\n      dup3\n        /* \"#utility.yul\":12991:13084   */\n      tag_157\n      jump\t// in\n    tag_306:\n        /* \"#utility.yul\":13109:13111   */\n      0x20\n        /* \"#utility.yul\":13104:13107   */\n      dup3\n        /* \"#utility.yul\":13100:13112   */\n      add\n        /* \"#utility.yul\":13093:13112   */\n      swap1\n      pop\n        /* \"#utility.yul\":12752:13118   */\n      swap2\n      swap1\n      pop\n      jump\t// out\n        /* \"#utility.yul\":13124:13543   */\n    tag_85:\n        /* \"#utility.yul\":13290:13294   */\n      0x00\n        /* \"#utility.yul\":13328:13330   */\n      0x20\n        /* \"#utility.yul\":13317:13326   */\n      dup3\n        /* \"#utility.yul\":13313:13331   */\n      add\n        /* \"#utility.yul\":13305:13331   */\n      swap1\n      pop\n        /* \"#utility.yul\":13377:13386   */\n      dup2\n        /* \"#utility.yul\":13371:13375   */\n      dup2\n        /* \"#utility.yul\":13367:13387   */\n      sub\n        /* \"#utility.yul\":13363:13364   */\n      0x00\n        /* \"#utility.yul\":13352:13361   */\n      dup4\n        /* \"#utility.yul\":13348:13365   */\n      add\n        /* \"#utility.yul\":13341:13388   */\n      mstore\n        /* \"#utility.yul\":13405:13536   */\n      tag_308\n        /* \"#utility.yul\":13531:13535   */\n      dup2\n        /* \"#utility.yul\":13405:13536   */\n      tag_158\n      jump\t// in\n    tag_308:\n        /* \"#utility.yul\":13397:13536   */\n      swap1\n      pop\n        /* \"#utility.yul\":13124:13543   */\n      swap2\n      swap1\n      pop\n      jump\t// out\n        /* \"#utility.yul\":13549:13729   */\n    tag_159:\n        /* \"#utility.yul\":13597:13674   */\n      0x4e487b7100000000000000000000000000000000000000000000000000000000\n        /* \"#utility.yul\":13594:13595   */\n      0x00\n        /* \"#utility.yul\":13587:13675   */\n      mstore\n        /* \"#utility.yul\":13694:13698   */\n      0x11\n        /* \"#utility.yul\":13691:13692   */\n      0x04\n        /* \"#utility.yul\":13684:13699   */\n      mstore\n        /* \"#utility.yul\":13718:13722   */\n      0x24\n        /* \"#utility.yul\":13715:13716   */\n      0x00\n        /* \"#utility.yul\":13708:13723   */\n      revert\n        /* \"#utility.yul\":13735:13968   */\n    tag_90:\n        /* \"#utility.yul\":13774:13777   */\n      0x00\n        /* \"#utility.yul\":13797:13821   */\n      tag_311\n        /* \"#utility.yul\":13815:13820   */\n      dup3\n        /* \"#utility.yul\":13797:13821   */\n      tag_123\n      jump\t// in\n    tag_311:\n        /* \"#utility.yul\":13788:13821   */\n      swap2\n      pop\n        /* \"#utility.yul\":13843:13909   */\n      0xffffffffffffffffffffffffffffffffffffffffffffffffffffffffffffffff\n        /* \"#utility.yul\":13836:13841   */\n      dup3\n        /* \"#utility.yul\":13833:13910   */\n      sub\n        /* \"#utility.yul\":13830:13933   */\n      tag_312\n      jumpi\n        /* \"#utility.yul\":13913:13931   */\n      tag_313\n      tag_159\n      jump\t// in\n    tag_313:\n        /* \"#utility.yul\":13830:13933   */\n    tag_312:\n        /* \"#utility.yul\":13960:13961   */\n      0x01\n        /* \"#utility.yul\":13953:13958   */\n      dup3\n        /* \"#utility.yul\":13949:13962   */\n      add\n        /* \"#utility.yul\":13942:13962   */\n      swap1\n      pop\n        /* \"#utility.yul\":13735:13968   */\n      swap2\n      swap1\n      pop\n      jump\t// out\n        /* \"#utility.yul\":13974:14115   */\n    tag_160:\n        /* \"#utility.yul\":14023:14027   */\n      0x00\n        /* \"#utility.yul\":14046:14049   */\n      dup2\n        /* \"#utility.yul\":14038:14049   */\n      swap1\n      pop\n        /* \"#utility.yul\":14069:14072   */\n      dup2\n        /* \"#utility.yul\":14066:14067   */\n      0x00\n        /* \"#utility.yul\":14059:14073   */\n      mstore\n        /* \"#utility.yul\":14103:14107   */\n      0x20\n        /* \"#utility.yul\":14100:14101   */\n      0x00\n        /* \"#utility.yul\":14090:14108   */\n      keccak256\n        /* \"#utility.yul\":14082:14108   */\n      swap1\n      pop\n        /* \"#utility.yul\":13974:14115   */\n      swap2\n      swap1\n      pop\n      jump\t// out\n        /* \"#utility.yul\":14121:14214   */\n    tag_161:\n        /* \"#utility.yul\":14158:14164   */\n      0x00\n        /* \"#utility.yul\":14205:14207   */\n      0x20\n        /* \"#utility.yul\":14200:14202   */\n      0x1f\n        /* \"#utility.yul\":14193:14198   */\n      dup4\n        /* \"#utility.yul\":14189:14203   */\n      add\n        /* \"#utility.yul\":14185:14208   */\n      div\n        /* \"#utility.yul\":14175:14208   */\n      swap1\n      pop\n        /* \"#utility.yul\":14121:14214   */\n      swap2\n      swap1\n      pop\n      jump\t// out\n        /* \"#utility.yul\":14220:14327   */\n    tag_162:\n        /* \"#utility.yul\":14264:14272   */\n      0x00\n        /* \"#utility.yul\":14314:14319   */\n      dup3\n        /* \"#utility.yul\":14308:14312   */\n      dup3\n        /* \"#utility.yul\":14304:14320   */\n      shl\n        /* \"#utility.yul\":14283:14320   */\n      swap1\n      pop\n        /* \"#utility.yul\":14220:14327   */\n      swap3\n      swap2\n      pop\n      pop\n      jump\t// out\n        /* \"#utility.yul\":14333:14726   */\n    tag_163:\n        /* \"#utility.yul\":14402:14408   */\n      0x00\n        /* \"#utility.yul\":14452:14453   */\n      0x08\n        /* \"#utility.yul\":14440:14450   */\n      dup4\n        /* \"#utility.yul\":14436:14454   */\n      mul\n        /* \"#utility.yul\":14475:14572   */\n      tag_318\n        /* \"#utility.yul\":14505:14571   */\n      0xffffffffffffffffffffffffffffffffffffffffffffffffffffffffffffffff\n        /* \"#utility.yul\":14494:14503   */\n      dup3\n        /* \"#utility.yul\":14475:14572   */\n      tag_162\n      jump\t// in\n    tag_318:\n        /* \"#utility.yul\":14593:14632   */\n      tag_319\n        /* \"#utility.yul\":14623:14631   */\n      dup7\n        /* \"#utility.yul\":14612:14621   */\n      dup4\n        /* \"#utility.yul\":14593:14632   */\n      tag_162\n      jump\t// in\n    tag_319:\n        /* \"#utility.yul\":14581:14632   */\n      swap6\n      pop\n        /* \"#utility.yul\":14665:14669   */\n      dup1\n        /* \"#utility.yul\":14661:14670   */\n      not\n        /* \"#utility.yul\":14654:14659   */\n      dup5\n        /* \"#utility.yul\":14650:14671   */\n      and\n        /* \"#utility.yul\":14641:14671   */\n      swap4\n      pop\n        /* \"#utility.yul\":14714:14718   */\n      dup1\n        /* \"#utility.yul\":14704:14712   */\n      dup7\n        /* \"#utility.yul\":14700:14719   */\n      and\n        /* \"#utility.yul\":14693:14698   */\n      dup5\n        /* \"#utility.yul\":14690:14720   */\n      or\n        /* \"#utility.yul\":14680:14720   */\n      swap3\n      pop\n        /* \"#utility.yul\":14409:14726   */\n      pop\n      pop\n        /* \"#utility.yul\":14333:14726   */\n      swap4\n      swap3\n      pop\n      pop\n      pop\n      jump\t// out\n        /* \"#utility.yul\":14732:14792   */\n    tag_164:\n        /* \"#utility.yul\":14760:14763   */\n      0x00\n        /* \"#utility.yul\":14781:14786   */\n      dup2\n        /* \"#utility.yul\":14774:14786   */\n      swap1\n      pop\n        /* \"#utility.yul\":14732:14792   */\n      swap2\n      swap1\n      pop\n      jump\t// out\n        /* \"#utility.yul\":14798:14940   */\n    tag_165:\n        /* \"#utility.yul\":14848:14857   */\n      0x00\n        /* \"#utility.yul\":14881:14934   */\n      tag_322\n        /* \"#utility.yul\":14899:14933   */\n      tag_323\n        /* \"#utility.yul\":14908:14932   */\n      tag_324\n        /* \"#utility.yul\":14926:14931   */\n      dup5\n        /* \"#utility.yul\":14908:14932   */\n      tag_123\n      jump\t// in\n    tag_324:\n        /* \"#utility.yul\":14899:14933   */\n      tag_164\n      jump\t// in\n    tag_323:\n        /* \"#utility.yul\":14881:14934   */\n      tag_123\n      jump\t// in\n    tag_322:\n        /* \"#utility.yul\":14868:14934   */\n      swap1\n      pop\n        /* \"#utility.yul\":14798:14940   */\n      swap2\n      swap1\n      pop\n      jump\t// out\n        /* \"#utility.yul\":14946:15021   */\n    tag_166:\n        /* \"#utility.yul\":14989:14992   */\n      0x00\n        /* \"#utility.yul\":15010:15015   */\n      dup2\n        /* \"#utility.yul\":15003:15015   */\n      swap1\n      pop\n        /* \"#utility.yul\":14946:15021   */\n      swap2\n      swap1\n      pop\n      jump\t// out\n        /* \"#utility.yul\":15027:15296   */\n    tag_167:\n        /* \"#utility.yul\":15137:15176   */\n      tag_327\n        /* \"#utility.yul\":15168:15175   */\n      dup4\n        /* \"#utility.yul\":15137:15176   */\n      tag_165\n      jump\t// in\n    tag_327:\n        /* \"#utility.yul\":15198:15289   */\n      tag_328\n        /* \"#utility.yul\":15247:15288   */\n      tag_329\n        /* \"#utility.yul\":15271:15287   */\n      dup3\n        /* \"#utility.yul\":15247:15288   */\n      tag_166\n      jump\t// in\n    tag_329:\n        /* \"#utility.yul\":15239:15245   */\n      dup5\n        /* \"#utility.yul\":15232:15236   */\n      dup5\n        /* \"#utility.yul\":15226:15237   */\n      sload\n        /* \"#utility.yul\":15198:15289   */\n      tag_163\n      jump\t// in\n    tag_328:\n        /* \"#utility.yul\":15192:15196   */\n      dup3\n        /* \"#utility.yul\":15185:15290   */\n      sstore\n        /* \"#utility.yul\":15103:15296   */\n      pop\n        /* \"#utility.yul\":15027:15296   */\n      pop\n      pop\n      pop\n      jump\t// out\n        /* \"#utility.yul\":15302:15375   */\n    tag_168:\n        /* \"#utility.yul\":15347:15350   */\n      0x00\n        /* \"#utility.yul\":15368:15369   */\n      0x00\n        /* \"#utility.yul\":15361:15369   */\n      swap1\n      pop\n        /* \"#utility.yul\":15302:15375   */\n      swap1\n      jump\t// out\n        /* \"#utility.yul\":15381:15570   */\n    tag_169:\n        /* \"#utility.yul\":15458:15490   */\n      tag_332\n      tag_168\n      jump\t// in\n    tag_332:\n        /* \"#utility.yul\":15499:15564   */\n      tag_333\n        /* \"#utility.yul\":15557:15563   */\n      dup2\n        /* \"#utility.yul\":15549:15555   */\n      dup5\n        /* \"#utility.yul\":15543:15547   */\n      dup5\n        /* \"#utility.yul\":15499:15564   */\n      tag_167\n      jump\t// in\n    tag_333:\n        /* \"#utility.yul\":15434:15570   */\n      pop\n        /* \"#utility.yul\":15381:15570   */\n      pop\n      pop\n      jump\t// out\n        /* \"#utility.yul\":15576:15762   */\n    tag_170:\n        /* \"#utility.yul\":15636:15756   */\n    tag_335:\n        /* \"#utility.yul\":15653:15656   */\n      dup2\n        /* \"#utility.yul\":15646:15651   */\n      dup2\n        /* \"#utility.yul\":15643:15657   */\n      lt\n        /* \"#utility.yul\":15636:15756   */\n      iszero\n      tag_337\n      jumpi\n        /* \"#utility.yul\":15707:15746   */\n      tag_338\n        /* \"#utility.yul\":15744:15745   */\n      0x00\n        /* \"#utility.yul\":15737:15742   */\n      dup3\n        /* \"#utility.yul\":15707:15746   */\n      tag_169\n      jump\t// in\n    tag_338:\n        /* \"#utility.yul\":15680:15681   */\n      0x01\n        /* \"#utility.yul\":15673:15678   */\n      dup2\n        /* \"#utility.yul\":15669:15682   */\n      add\n        /* \"#utility.yul\":15660:15682   */\n      swap1\n      pop\n        /* \"#utility.yul\":15636:15756   */\n      jump(tag_335)\n    tag_337:\n        /* \"#utility.yul\":15576:15762   */\n      pop\n      pop\n      jump\t// out\n        /* \"#utility.yul\":15768:16311   */\n    tag_171:\n        /* \"#utility.yul\":15869:15871   */\n      0x1f\n        /* \"#utility.yul\":15864:15867   */\n      dup3\n        /* \"#utility.yul\":15861:15872   */\n      gt\n        /* \"#utility.yul\":15858:16304   */\n      iszero\n      tag_340\n      jumpi\n        /* \"#utility.yul\":15903:15941   */\n      tag_341\n        /* \"#utility.yul\":15935:15940   */\n      dup2\n        /* \"#utility.yul\":15903:15941   */\n      tag_160\n      jump\t// in\n    tag_341:\n        /* \"#utility.yul\":15987:16016   */\n      tag_342\n        /* \"#utility.yul\":16005:16015   */\n      dup5\n        /* \"#utility.yul\":15987:16016   */\n      tag_161\n      jump\t// in\n    tag_342:\n        /* \"#utility.yul\":15977:15985   */\n      dup2\n        /* \"#utility.yul\":15973:16017   */\n      add\n        /* \"#utility.yul\":16170:16172   */\n      0x20\n        /* \"#utility.yul\":16158:16168   */\n      dup6\n        /* \"#utility.yul\":16155:16173   */\n      lt\n        /* \"#utility.yul\":16152:16201   */\n      iszero\n      tag_343\n      jumpi\n        /* \"#utility.yul\":16191:16199   */\n      dup2\n        /* \"#utility.yul\":16176:16199   */\n      swap1\n      pop\n        /* \"#utility.yul\":16152:16201   */\n    tag_343:\n        /* \"#utility.yul\":16214:16294   */\n      tag_344\n        /* \"#utility.yul\":16270:16292   */\n      tag_345\n        /* \"#utility.yul\":16288:16291   */\n      dup6\n        /* \"#utility.yul\":16270:16292   */\n      tag_161\n      jump\t// in\n    tag_345:\n        /* \"#utility.yul\":16260:16268   */\n      dup4\n        /* \"#utility.yul\":16256:16293   */\n      add\n        /* \"#utility.yul\":16243:16254   */\n      dup3\n        /* \"#utility.yul\":16214:16294   */\n      tag_170\n      jump\t// in\n    tag_344:\n        /* \"#utility.yul\":15873:16304   */\n      pop\n      pop\n        /* \"#utility.yul\":15858:16304   */\n    tag_340:\n        /* \"#utility.yul\":15768:16311   */\n      pop\n      pop\n      pop\n      jump\t// out\n        /* \"#utility.yul\":16317:16434   */\n    tag_172:\n        /* \"#utility.yul\":16371:16379   */\n      0x00\n        /* \"#utility.yul\":16421:16426   */\n      dup3\n        /* \"#utility.yul\":16415:16419   */\n      dup3\n        /* \"#utility.yul\":16411:16427   */\n      shr\n        /* \"#utility.yul\":16390:16427   */\n      swap1\n      pop\n        /* \"#utility.yul\":16317:16434   */\n      swap3\n      swap2\n      pop\n      pop\n      jump\t// out\n        /* \"#utility.yul\":16440:16609   */\n    tag_173:\n        /* \"#utility.yul\":16484:16490   */\n      0x00\n        /* \"#utility.yul\":16517:16568   */\n      tag_348\n        /* \"#utility.yul\":16565:16566   */\n      0x00\n        /* \"#utility.yul\":16561:16567   */\n      not\n        /* \"#utility.yul\":16553:16558   */\n      dup5\n        /* \"#utility.yul\":16550:16551   */\n      0x08\n        /* \"#utility.yul\":16546:16559   */\n      mul\n        /* \"#utility.yul\":16517:16568   */\n      tag_172\n      jump\t// in\n    tag_348:\n        /* \"#utility.yul\":16513:16569   */\n      not\n        /* \"#utility.yul\":16598:16602   */\n      dup1\n        /* \"#utility.yul\":16592:16596   */\n      dup4\n        /* \"#utility.yul\":16588:16603   */\n      and\n        /* \"#utility.yul\":16578:16603   */\n      swap2\n      pop\n        /* \"#utility.yul\":16491:16609   */\n      pop\n        /* \"#utility.yul\":16440:16609   */\n      swap3\n      swap2\n      pop\n      pop\n      jump\t// out\n        /* \"#utility.yul\":16614:16909   */\n    tag_174:\n        /* \"#utility.yul\":16690:16694   */\n      0x00\n        /* \"#utility.yul\":16836:16865   */\n      tag_350\n        /* \"#utility.yul\":16861:16864   */\n      dup4\n        /* \"#utility.yul\":16855:16859   */\n      dup4\n        /* \"#utility.yul\":16836:16865   */\n      tag_173\n      jump\t// in\n    tag_350:\n        /* \"#utility.yul\":16828:16865   */\n      swap2\n      pop\n        /* \"#utility.yul\":16898:16901   */\n      dup3\n        /* \"#utility.yul\":16895:16896   */\n      0x02\n        /* \"#utility.yul\":16891:16902   */\n      mul\n        /* \"#utility.yul\":16885:16889   */\n      dup3\n        /* \"#utility.yul\":16882:16903   */\n      or\n        /* \"#utility.yul\":16874:16903   */\n      swap1\n      pop\n        /* \"#utility.yul\":16614:16909   */\n      swap3\n      swap2\n      pop\n      pop\n      jump\t// out\n        /* \"#utility.yul\":16914:18309   */\n    tag_92:\n        /* \"#utility.yul\":17031:17068   */\n      tag_352\n        /* \"#utility.yul\":17064:17067   */\n      dup3\n        /* \"#utility.yul\":17031:17068   */\n      tag_130\n      jump\t// in\n    tag_352:\n        /* \"#utility.yul\":17133:17151   */\n      0xffffffffffffffff\n        /* \"#utility.yul\":17125:17131   */\n      dup2\n        /* \"#utility.yul\":17122:17152   */\n      gt\n        /* \"#utility.yul\":17119:17175   */\n      iszero\n      tag_353\n      jumpi\n        /* \"#utility.yul\":17155:17173   */\n      tag_354\n      tag_139\n      jump\t// in\n    tag_354:\n        /* \"#utility.yul\":17119:17175   */\n    tag_353:\n        /* \"#utility.yul\":17199:17237   */\n      tag_355\n        /* \"#utility.yul\":17231:17235   */\n      dup3\n        /* \"#utility.yul\":17225:17236   */\n      sload\n        /* \"#utility.yul\":17199:17237   */\n      tag_72\n      jump\t// in\n    tag_355:\n        /* \"#utility.yul\":17284:17351   */\n      tag_356\n        /* \"#utility.yul\":17344:17350   */\n      dup3\n        /* \"#utility.yul\":17336:17342   */\n      dup3\n        /* \"#utility.yul\":17330:17334   */\n      dup6\n        /* \"#utility.yul\":17284:17351   */\n      tag_171\n      jump\t// in\n    tag_356:\n        /* \"#utility.yul\":17378:17379   */\n      0x00\n        /* \"#utility.yul\":17402:17406   */\n      0x20\n        /* \"#utility.yul\":17389:17406   */\n      swap1\n      pop\n        /* \"#utility.yul\":17434:17436   */\n      0x1f\n        /* \"#utility.yul\":17426:17432   */\n      dup4\n        /* \"#utility.yul\":17423:17437   */\n      gt\n        /* \"#utility.yul\":17451:17452   */\n      0x01\n        /* \"#utility.yul\":17446:18064   */\n      dup2\n      eq\n      tag_358\n      jumpi\n        /* \"#utility.yul\":18108:18109   */\n      0x00\n        /* \"#utility.yul\":18125:18131   */\n      dup5\n        /* \"#utility.yul\":18122:18199   */\n      iszero\n      tag_359\n      jumpi\n        /* \"#utility.yul\":18174:18183   */\n      dup3\n        /* \"#utility.yul\":18169:18172   */\n      dup8\n        /* \"#utility.yul\":18165:18184   */\n      add\n        /* \"#utility.yul\":18159:18185   */\n      mload\n        /* \"#utility.yul\":18150:18185   */\n      swap1\n      pop\n        /* \"#utility.yul\":18122:18199   */\n    tag_359:\n        /* \"#utility.yul\":18225:18292   */\n      tag_360\n        /* \"#utility.yul\":18285:18291   */\n      dup6\n        /* \"#utility.yul\":18278:18283   */\n      dup3\n        /* \"#utility.yul\":18225:18292   */\n      tag_174\n      jump\t// in\n    tag_360:\n        /* \"#utility.yul\":18219:18223   */\n      dup7\n        /* \"#utility.yul\":18212:18293   */\n      sstore\n        /* \"#utility.yul\":18081:18303   */\n      pop\n        /* \"#utility.yul\":17416:18303   */\n      jump(tag_357)\n        /* \"#utility.yul\":17446:18064   */\n    tag_358:\n        /* \"#utility.yul\":17498:17502   */\n      0x1f\n        /* \"#utility.yul\":17494:17503   */\n      not\n        /* \"#utility.yul\":17486:17492   */\n      dup5\n        /* \"#utility.yul\":17482:17504   */\n      and\n        /* \"#utility.yul\":17532:17569   */\n      tag_361\n        /* \"#utility.yul\":17564:17568   */\n      dup7\n        /* \"#utility.yul\":17532:17569   */\n      tag_160\n      jump\t// in\n    tag_361:\n        /* \"#utility.yul\":17591:17592   */\n      0x00\n        /* \"#utility.yul\":17605:17813   */\n    tag_362:\n        /* \"#utility.yul\":17619:17626   */\n      dup3\n        /* \"#utility.yul\":17616:17617   */\n      dup2\n        /* \"#utility.yul\":17613:17627   */\n      lt\n        /* \"#utility.yul\":17605:17813   */\n      iszero\n      tag_364\n      jumpi\n        /* \"#utility.yul\":17698:17707   */\n      dup5\n        /* \"#utility.yul\":17693:17696   */\n      dup10\n        /* \"#utility.yul\":17689:17708   */\n      add\n        /* \"#utility.yul\":17683:17709   */\n      mload\n        /* \"#utility.yul\":17675:17681   */\n      dup3\n        /* \"#utility.yul\":17668:17710   */\n      sstore\n        /* \"#utility.yul\":17749:17750   */\n      0x01\n        /* \"#utility.yul\":17741:17747   */\n      dup3\n        /* \"#utility.yul\":17737:17751   */\n      add\n        /* \"#utility.yul\":17727:17751   */\n      swap2\n      pop\n        /* \"#utility.yul\":17796:17798   */\n      0x20\n        /* \"#utility.yul\":17785:17794   */\n      dup6\n        /* \"#utility.yul\":17781:17799   */\n      add\n        /* \"#utility.yul\":17768:17799   */\n      swap5\n      pop\n        /* \"#utility.yul\":17642:17646   */\n      0x20\n        /* \"#utility.yul\":17639:17640   */\n      dup2\n        /* \"#utility.yul\":17635:17647   */\n      add\n        /* \"#utility.yul\":17630:17647   */\n      swap1\n      pop\n        /* \"#utility.yul\":17605:17813   */\n      jump(tag_362)\n    tag_364:\n        /* \"#utility.yul\":17841:17847   */\n      dup7\n        /* \"#utility.yul\":17832:17839   */\n      dup4\n        /* \"#utility.yul\":17829:17848   */\n      lt\n        /* \"#utility.yul\":17826:18005   */\n      iszero\n      tag_365\n      jumpi\n        /* \"#utility.yul\":17899:17908   */\n      dup5\n        /* \"#utility.yul\":17894:17897   */\n      dup10\n        /* \"#utility.yul\":17890:17909   */\n      add\n        /* \"#utility.yul\":17884:17910   */\n      mload\n        /* \"#utility.yul\":17942:17990   */\n      tag_366\n        /* \"#utility.yul\":17984:17988   */\n      0x1f\n        /* \"#utility.yul\":17976:17982   */\n      dup10\n        /* \"#utility.yul\":17972:17989   */\n      and\n        /* \"#utility.yul\":17961:17970   */\n      dup3\n        /* \"#utility.yul\":17942:17990   */\n      tag_173\n      jump\t// in\n    tag_366:\n        /* \"#utility.yul\":17934:17940   */\n      dup4\n        /* \"#utility.yul\":17927:17991   */\n      sstore\n        /* \"#utility.yul\":17849:18005   */\n      pop\n        /* \"#utility.yul\":17826:18005   */\n    tag_365:\n        /* \"#utility.yul\":18051:18052   */\n      0x01\n        /* \"#utility.yul\":18047:18048   */\n      0x02\n        /* \"#utility.yul\":18039:18045   */\n      dup9\n        /* \"#utility.yul\":18035:18049   */\n      mul\n        /* \"#utility.yul\":18031:18053   */\n      add\n        /* \"#utility.yul\":18025:18029   */\n      dup9\n        /* \"#utility.yul\":18018:18054   */\n      sstore\n        /* \"#utility.yul\":17453:18064   */\n      pop\n      pop\n      pop\n        /* \"#utility.yul\":17416:18303   */\n    tag_357:\n      pop\n        /* \"#utility.yul\":17006:18309   */\n      pop\n      pop\n      pop\n        /* \"#utility.yul\":16914:18309   */\n      pop\n      pop\n      jump\t// out\n        /* \"#utility.yul\":18315:18738   */\n    tag_95:\n        /* \"#utility.yul\":18456:18460   */\n      0x00\n        /* \"#utility.yul\":18494:18496   */\n      0x40\n        /* \"#utility.yul\":18483:18492   */\n      dup3\n        /* \"#utility.yul\":18479:18497   */\n      add\n        /* \"#utility.yul\":18471:18497   */\n      swap1\n      pop\n        /* \"#utility.yul\":18543:18552   */\n      dup2\n        /* \"#utility.yul\":18537:18541   */\n      dup2\n        /* \"#utility.yul\":18533:18553   */\n      sub\n        /* \"#utility.yul\":18529:18530   */\n      0x00\n        /* \"#utility.yul\":18518:18527   */\n      dup4\n        /* \"#utility.yul\":18514:18531   */\n      add\n        /* \"#utility.yul\":18507:18554   */\n      mstore\n        /* \"#utility.yul\":18571:18649   */\n      tag_368\n        /* \"#utility.yul\":18644:18648   */\n      dup2\n        /* \"#utility.yul\":18635:18641   */\n      dup6\n        /* \"#utility.yul\":18571:18649   */\n      tag_134\n      jump\t// in\n    tag_368:\n        /* \"#utility.yul\":18563:18649   */\n      swap1\n      pop\n        /* \"#utility.yul\":18659:18731   */\n      tag_369\n        /* \"#utility.yul\":18727:18729   */\n      0x20\n        /* \"#utility.yul\":18716:18725   */\n      dup4\n        /* \"#utility.yul\":18712:18730   */\n      add\n        /* \"#utility.yul\":18703:18709   */\n      dup5\n        /* \"#utility.yul\":18659:18731   */\n      tag_126\n      jump\t// in\n    tag_369:\n        /* \"#utility.yul\":18315:18738   */\n      swap4\n      swap3\n      pop\n      pop\n      pop\n      jump\t// out\n        /* \"#utility.yul\":18744:18968   */\n    tag_175:\n        /* \"#utility.yul\":18884:18918   */\n      0x4f6e6c79207461736b2063726561746f722063616e2061737369676e20746865\n        /* \"#utility.yul\":18880:18881   */\n      0x00\n        /* \"#utility.yul\":18872:18878   */\n      dup3\n        /* \"#utility.yul\":18868:18882   */\n      add\n        /* \"#utility.yul\":18861:18919   */\n      mstore\n        /* \"#utility.yul\":18953:18960   */\n      0x207461736b000000000000000000000000000000000000000000000000000000\n        /* \"#utility.yul\":18948:18950   */\n      0x20\n        /* \"#utility.yul\":18940:18946   */\n      dup3\n        /* \"#utility.yul\":18936:18951   */\n      add\n        /* \"#utility.yul\":18929:18961   */\n      mstore\n        /* \"#utility.yul\":18744:18968   */\n      pop\n      jump\t// out\n        /* \"#utility.yul\":18974:19340   */\n    tag_176:\n        /* \"#utility.yul\":19116:19119   */\n      0x00\n        /* \"#utility.yul\":19137:19204   */\n      tag_372\n        /* \"#utility.yul\":19201:19203   */\n      0x25\n        /* \"#utility.yul\":19196:19199   */\n      dup4\n        /* \"#utility.yul\":19137:19204   */\n      tag_131\n      jump\t// in\n    tag_372:\n        /* \"#utility.yul\":19130:19204   */\n      swap2\n      pop\n        /* \"#utility.yul\":19213:19306   */\n      tag_373\n        /* \"#utility.yul\":19302:19305   */\n      dup3\n        /* \"#utility.yul\":19213:19306   */\n      tag_175\n      jump\t// in\n    tag_373:\n        /* \"#utility.yul\":19331:19333   */\n      0x40\n        /* \"#utility.yul\":19326:19329   */\n      dup3\n        /* \"#utility.yul\":19322:19334   */\n      add\n        /* \"#utility.yul\":19315:19334   */\n      swap1\n      pop\n        /* \"#utility.yul\":18974:19340   */\n      swap2\n      swap1\n      pop\n      jump\t// out\n        /* \"#utility.yul\":19346:19765   */\n    tag_99:\n        /* \"#utility.yul\":19512:19516   */\n      0x00\n        /* \"#utility.yul\":19550:19552   */\n      0x20\n        /* \"#utility.yul\":19539:19548   */\n      dup3\n        /* \"#utility.yul\":19535:19553   */\n      add\n        /* \"#utility.yul\":19527:19553   */\n      swap1\n      pop\n        /* \"#utility.yul\":19599:19608   */\n      dup2\n        /* \"#utility.yul\":19593:19597   */\n      dup2\n        /* \"#utility.yul\":19589:19609   */\n      sub\n        /* \"#utility.yul\":19585:19586   */\n      0x00\n        /* \"#utility.yul\":19574:19583   */\n      dup4\n        /* \"#utility.yul\":19570:19587   */\n      add\n        /* \"#utility.yul\":19563:19610   */\n      mstore\n        /* \"#utility.yul\":19627:19758   */\n      tag_375\n        /* \"#utility.yul\":19753:19757   */\n      dup2\n        /* \"#utility.yul\":19627:19758   */\n      tag_176\n      jump\t// in\n    tag_375:\n        /* \"#utility.yul\":19619:19758   */\n      swap1\n      pop\n        /* \"#utility.yul\":19346:19765   */\n      swap2\n      swap1\n      pop\n      jump\t// out\n        /* \"#utility.yul\":19771:19942   */\n    tag_177:\n        /* \"#utility.yul\":19911:19934   */\n      0x5461736b20616c72656164792061737369676e65640000000000000000000000\n        /* \"#utility.yul\":19907:19908   */\n      0x00\n        /* \"#utility.yul\":19899:19905   */\n      dup3\n        /* \"#utility.yul\":19895:19909   */\n      add\n        /* \"#utility.yul\":19888:19935   */\n      mstore\n        /* \"#utility.yul\":19771:19942   */\n      pop\n      jump\t// out\n        /* \"#utility.yul\":19948:20314   */\n    tag_178:\n        /* \"#utility.yul\":20090:20093   */\n      0x00\n        /* \"#utility.yul\":20111:20178   */\n      tag_378\n        /* \"#utility.yul\":20175:20177   */\n      0x15\n        /* \"#utility.yul\":20170:20173   */\n      dup4\n        /* \"#utility.yul\":20111:20178   */\n      tag_131\n      jump\t// in\n    tag_378:\n        /* \"#utility.yul\":20104:20178   */\n      swap2\n      pop\n        /* \"#utility.yul\":20187:20280   */\n      tag_379\n        /* \"#utility.yul\":20276:20279   */\n      dup3\n        /* \"#utility.yul\":20187:20280   */\n      tag_177\n      jump\t// in\n    tag_379:\n        /* \"#utility.yul\":20305:20307   */\n      0x20\n        /* \"#utility.yul\":20300:20303   */\n      dup3\n        /* \"#utility.yul\":20296:20308   */\n      add\n        /* \"#utility.yul\":20289:20308   */\n      swap1\n      pop\n        /* \"#utility.yul\":19948:20314   */\n      swap2\n      swap1\n      pop\n      jump\t// out\n        /* \"#utility.yul\":20320:20739   */\n    tag_102:\n        /* \"#utility.yul\":20486:20490   */\n      0x00\n        /* \"#utility.yul\":20524:20526   */\n      0x20\n        /* \"#utility.yul\":20513:20522   */\n      dup3\n        /* \"#utility.yul\":20509:20527   */\n      add\n        /* \"#utility.yul\":20501:20527   */\n      swap1\n      pop\n        /* \"#utility.yul\":20573:20582   */\n      dup2\n        /* \"#utility.yul\":20567:20571   */\n      dup2\n        /* \"#utility.yul\":20563:20583   */\n      sub\n        /* \"#utility.yul\":20559:20560   */\n      0x00\n        /* \"#utility.yul\":20548:20557   */\n      dup4\n        /* \"#utility.yul\":20544:20561   */\n      add\n        /* \"#utility.yul\":20537:20584   */\n      mstore\n        /* \"#utility.yul\":20601:20732   */\n      tag_381\n        /* \"#utility.yul\":20727:20731   */\n      dup2\n        /* \"#utility.yul\":20601:20732   */\n      tag_178\n      jump\t// in\n    tag_381:\n        /* \"#utility.yul\":20593:20732   */\n      swap1\n      pop\n        /* \"#utility.yul\":20320:20739   */\n      swap2\n      swap1\n      pop\n      jump\t// out\n        /* \"#utility.yul\":20745:20973   */\n    tag_179:\n        /* \"#utility.yul\":20885:20919   */\n      0x4f6e6c792061737369676e6564206368696c642063616e20636f6d706c657465\n        /* \"#utility.yul\":20881:20882   */\n      0x00\n        /* \"#utility.yul\":20873:20879   */\n      dup3\n        /* \"#utility.yul\":20869:20883   */\n      add\n        /* \"#utility.yul\":20862:20920   */\n      mstore\n        /* \"#utility.yul\":20954:20965   */\n      0x20746865207461736b0000000000000000000000000000000000000000000000\n        /* \"#utility.yul\":20949:20951   */\n      0x20\n        /* \"#utility.yul\":20941:20947   */\n      dup3\n        /* \"#utility.yul\":20937:20952   */\n      add\n        /* \"#utility.yul\":20930:20966   */\n      mstore\n        /* \"#utility.yul\":20745:20973   */\n      pop\n      jump\t// out\n        /* \"#utility.yul\":20979:21345   */\n    tag_180:\n        /* \"#utility.yul\":21121:21124   */\n      0x00\n        /* \"#utility.yul\":21142:21209   */\n      tag_384\n        /* \"#utility.yul\":21206:21208   */\n      0x29\n        /* \"#utility.yul\":21201:21204   */\n      dup4\n        /* \"#utility.yul\":21142:21209   */\n      tag_131\n      jump\t// in\n    tag_384:\n        /* \"#utility.yul\":21135:21209   */\n      swap2\n      pop\n        /* \"#utility.yul\":21218:21311   */\n      tag_385\n        /* \"#utility.yul\":21307:21310   */\n      dup3\n        /* \"#utility.yul\":21218:21311   */\n      tag_179\n      jump\t// in\n    tag_385:\n        /* \"#utility.yul\":21336:21338   */\n      0x40\n        /* \"#utility.yul\":21331:21334   */\n      dup3\n        /* \"#utility.yul\":21327:21339   */\n      add\n        /* \"#utility.yul\":21320:21339   */\n      swap1\n      pop\n        /* \"#utility.yul\":20979:21345   */\n      swap2\n      swap1\n      pop\n      jump\t// out\n        /* \"#utility.yul\":21351:21770   */\n    tag_116:\n        /* \"#utility.yul\":21517:21521   */\n      0x00\n        /* \"#utility.yul\":21555:21557   */\n      0x20\n        /* \"#utility.yul\":21544:21553   */\n      dup3\n        /* \"#utility.yul\":21540:21558   */\n      add\n        /* \"#utility.yul\":21532:21558   */\n      swap1\n      pop\n        /* \"#utility.yul\":21604:21613   */\n      dup2\n        /* \"#utility.yul\":21598:21602   */\n      dup2\n        /* \"#utility.yul\":21594:21614   */\n      sub\n        /* \"#utility.yul\":21590:21591   */\n      0x00\n        /* \"#utility.yul\":21579:21588   */\n      dup4\n        /* \"#utility.yul\":21575:21592   */\n      add\n        /* \"#utility.yul\":21568:21615   */\n      mstore\n        /* \"#utility.yul\":21632:21763   */\n      tag_387\n        /* \"#utility.yul\":21758:21762   */\n      dup2\n        /* \"#utility.yul\":21632:21763   */\n      tag_180\n      jump\t// in\n    tag_387:\n        /* \"#utility.yul\":21624:21763   */\n      swap1\n      pop\n        /* \"#utility.yul\":21351:21770   */\n      swap2\n      swap1\n      pop\n      jump\t// out\n        /* \"#utility.yul\":21776:21948   */\n    tag_181:\n        /* \"#utility.yul\":21916:21940   */\n      0x5461736b20616c726561647920636f6d706c6574656400000000000000000000\n        /* \"#utility.yul\":21912:21913   */\n      0x00\n        /* \"#utility.yul\":21904:21910   */\n      dup3\n        /* \"#utility.yul\":21900:21914   */\n      add\n        /* \"#utility.yul\":21893:21941   */\n      mstore\n        /* \"#utility.yul\":21776:21948   */\n      pop\n      jump\t// out\n        /* \"#utility.yul\":21954:22320   */\n    tag_182:\n        /* \"#utility.yul\":22096:22099   */\n      0x00\n        /* \"#utility.yul\":22117:22184   */\n      tag_390\n        /* \"#utility.yul\":22181:22183   */\n      0x16\n        /* \"#utility.yul\":22176:22179   */\n      dup4\n        /* \"#utility.yul\":22117:22184   */\n      tag_131\n      jump\t// in\n    tag_390:\n        /* \"#utility.yul\":22110:22184   */\n      swap2\n      pop\n        /* \"#utility.yul\":22193:22286   */\n      tag_391\n        /* \"#utility.yul\":22282:22285   */\n      dup3\n        /* \"#utility.yul\":22193:22286   */\n      tag_181\n      jump\t// in\n    tag_391:\n        /* \"#utility.yul\":22311:22313   */\n      0x20\n        /* \"#utility.yul\":22306:22309   */\n      dup3\n        /* \"#utility.yul\":22302:22314   */\n      add\n        /* \"#utility.yul\":22295:22314   */\n      swap1\n      pop\n        /* \"#utility.yul\":21954:22320   */\n      swap2\n      swap1\n      pop\n      jump\t// out\n        /* \"#utility.yul\":22326:22745   */\n    tag_119:\n        /* \"#utility.yul\":22492:22496   */\n      0x00\n        /* \"#utility.yul\":22530:22532   */\n      0x20\n        /* \"#utility.yul\":22519:22528   */\n      dup3\n        /* \"#utility.yul\":22515:22533   */\n      add\n        /* \"#utility.yul\":22507:22533   */\n      swap1\n      pop\n        /* \"#utility.yul\":22579:22588   */\n      dup2\n        /* \"#utility.yul\":22573:22577   */\n      dup2\n        /* \"#utility.yul\":22569:22589   */\n      sub\n        /* \"#utility.yul\":22565:22566   */\n      0x00\n        /* \"#utility.yul\":22554:22563   */\n      dup4\n        /* \"#utility.yul\":22550:22567   */\n      add\n        /* \"#utility.yul\":22543:22590   */\n      mstore\n        /* \"#utility.yul\":22607:22738   */\n      tag_393\n        /* \"#utility.yul\":22733:22737   */\n      dup2\n        /* \"#utility.yul\":22607:22738   */\n      tag_182\n      jump\t// in\n    tag_393:\n        /* \"#utility.yul\":22599:22738   */\n      swap1\n      pop\n        /* \"#utility.yul\":22326:22745   */\n      swap2\n      swap1\n      pop\n      jump\t// out\n\n    auxdata: 0xa2646970667358221220bdf6a407f6c162f390b29151d62338e1703f41c1fc4fa31d1687da246c76569a64736f6c634300081e0033\n}\n",
				"bytecode": {
					"linkReferences": {},
					"object": "60806040525f6001553480156012575f5ffd5b503360025f6101000a81548173ffffffffffffffffffffffffffffffffffffffff021916908373ffffffffffffffffffffffffffffffffffffffff160217905550611bcd806100605f395ff3fe608060405260043610610085575f3560e01c80635293ee81116100585780635293ee811461012e5780638d977672146101565780638da5cb5b14610199578063b6cb58a5146101c3578063e1e29558146101ed57610085565b80630a07fae6146100895780631d65e77e146100a55780633ccfd60b146100e857806341a4e30a146100fe575b5f5ffd5b6100a3600480360381019061009e9190611034565b610215565b005b3480156100b0575f5ffd5b506100cb60048036038101906100c69190611034565b610560565b6040516100df989796959493929190611137565b60405180910390f35b3480156100f3575f5ffd5b506100fc6107dd565b005b610118600480360381019061011391906112ed565b6108d3565b6040516101259190611375565b60405180910390f35b348015610139575f5ffd5b50610154600480360381019061014f91906113b8565b610ad4565b005b348015610161575f5ffd5b5061017c60048036038101906101779190611034565b610cad565b604051610190989796959493929190611137565b60405180910390f35b3480156101a4575f5ffd5b506101ad610e53565b6040516101ba91906113f6565b60405180910390f35b3480156101ce575f5ffd5b506101d7610e78565b6040516101e49190611375565b60405180910390f35b3480156101f8575f5ffd5b50610213600480360381019061020e9190611034565b610e7e565b005b3373ffffffffffffffffffffffffffffffffffffffff165f5f8381526020019081526020015f206001015f9054906101000a900473ffffffffffffffffffffffffffffffffffffffff1673ffffffffffffffffffffffffffffffffffffffff16146102b5576040517f08c379a00000000000000000000000000000000000000000000000000000000081526004016102ac9061147f565b60405180910390fd5b5f5f8281526020019081526020015f206006015f9054906101000a900460ff16610314576040517f08c379a000000000000000000000000000000000000000000000000000000000815260040161030b906114e7565b60405180910390fd5b5f5f8281526020019081526020015f2060060160019054906101000a900460ff1615610375576040517f08c379a000000000000000000000000000000000000000000000000000000000815260040161036c9061154f565b60405180910390fd5b5f5f8281526020019081526020015f20600501543410156103cb576040517f08c379a00000000000000000000000000000000000000000000000000000000081526004016103c2906115b7565b60405180910390fd5b60015f5f8381526020019081526020015f2060060160016101000a81548160ff0219169083151502179055505f5f5f8381526020019081526020015f206002015f9054906101000a900473ffffffffffffffffffffffffffffffffffffffff1690508073ffffffffffffffffffffffffffffffffffffffff166108fc5f5f8581526020019081526020015f206005015490811502906040515f60405180830381858888f19350505050158015610483573d5f5f3e3d5ffd5b503373ffffffffffffffffffffffffffffffffffffffff16827fb664fa2a6a4e034515db6ca96da0095c8d853e3349904bd555c50d1ac9a6359560405160405180910390a35f5f8381526020019081526020015f206002015f9054906101000a900473ffffffffffffffffffffffffffffffffffffffff1673ffffffffffffffffffffffffffffffffffffffff16827f99f2f3325e35634c09536d4983b1b2b0c9313e74f2b74508c7a1a521f6fce9ab5f5f8681526020019081526020015f20600501546040516105549190611375565b60405180910390a35050565b5f5f5f6060805f5f5f5f5f5f8b81526020019081526020015f20604051806101000160405290815f8201548152602001600182015f9054906101000a900473ffffffffffffffffffffffffffffffffffffffff1673ffffffffffffffffffffffffffffffffffffffff1673ffffffffffffffffffffffffffffffffffffffff168152602001600282015f9054906101000a900473ffffffffffffffffffffffffffffffffffffffff1673ffffffffffffffffffffffffffffffffffffffff1673ffffffffffffffffffffffffffffffffffffffff16815260200160038201805461064990611602565b80601f016020809104026020016040519081016040528092919081815260200182805461067590611602565b80156106c05780601f10610697576101008083540402835291602001916106c0565b820191905f5260205f20905b8154815290600101906020018083116106a357829003601f168201915b505050505081526020016004820180546106d990611602565b80601f016020809104026020016040519081016040528092919081815260200182805461070590611602565b80156107505780601f1061072757610100808354040283529160200191610750565b820191905f5260205f20905b81548152906001019060200180831161073357829003601f168201915b5050505050815260200160058201548152602001600682015f9054906101000a900460ff161515151581526020016006820160019054906101000a900460ff1615151515815250509050805f015181602001518260400151836060015184608001518560a001518660c001518760e001519850985098509850985098509850985050919395975091939597565b60025f9054906101000a900473ffffffffffffffffffffffffffffffffffffffff1673ffffffffffffffffffffffffffffffffffffffff163373ffffffffffffffffffffffffffffffffffffffff161461086c576040517f08c379a00000000000000000000000000000000000000000000000000000000081526004016108639061167c565b60405180910390fd5b60025f9054906101000a900473ffffffffffffffffffffffffffffffffffffffff1673ffffffffffffffffffffffffffffffffffffffff166108fc4790811502906040515f60405180830381858888f193505050501580156108d0573d5f5f3e3d5ffd5b50565b5f60015f8154809291906108e6906116c7565b919050555060405180610100016040528060015481526020013373ffffffffffffffffffffffffffffffffffffffff1681526020015f73ffffffffffffffffffffffffffffffffffffffff1681526020018581526020018481526020018381526020015f151581526020015f15158152505f5f60015481526020019081526020015f205f820151815f01556020820151816001015f6101000a81548173ffffffffffffffffffffffffffffffffffffffff021916908373ffffffffffffffffffffffffffffffffffffffff1602179055506040820151816002015f6101000a81548173ffffffffffffffffffffffffffffffffffffffff021916908373ffffffffffffffffffffffffffffffffffffffff1602179055506060820151816003019081610a1291906118ae565b506080820151816004019081610a2891906118ae565b5060a0820151816005015560c0820151816006015f6101000a81548160ff02191690831515021790555060e08201518160060160016101000a81548160ff0219169083151502179055509050503373ffffffffffffffffffffffffffffffffffffffff166001547f9e3c9757475c00b86393e183b68033bb76e48fa164849c7428ad17f62e1954a78685604051610ac092919061197d565b60405180910390a360015490509392505050565b3373ffffffffffffffffffffffffffffffffffffffff165f5f8481526020019081526020015f206001015f9054906101000a900473ffffffffffffffffffffffffffffffffffffffff1673ffffffffffffffffffffffffffffffffffffffff1614610b74576040517f08c379a0000000000000000000000000000000000000000000000000000000008152600401610b6b90611a1b565b60405180910390fd5b5f73ffffffffffffffffffffffffffffffffffffffff165f5f8481526020019081526020015f206002015f9054906101000a900473ffffffffffffffffffffffffffffffffffffffff1673ffffffffffffffffffffffffffffffffffffffff1614610c14576040517f08c379a0000000000000000000000000000000000000000000000000000000008152600401610c0b90611a83565b60405180910390fd5b805f5f8481526020019081526020015f206002015f6101000a81548173ffffffffffffffffffffffffffffffffffffffff021916908373ffffffffffffffffffffffffffffffffffffffff1602179055508073ffffffffffffffffffffffffffffffffffffffff16827f52476d55ecef5cf13caa64038f297fe6bbf865d9584a98b8722a15a6d5db128f60405160405180910390a35050565b5f602052805f5260405f205f91509050805f015490806001015f9054906101000a900473ffffffffffffffffffffffffffffffffffffffff1690806002015f9054906101000a900473ffffffffffffffffffffffffffffffffffffffff1690806003018054610d1b90611602565b80601f0160208091040260200160405190810160405280929190818152602001828054610d4790611602565b8015610d925780601f10610d6957610100808354040283529160200191610d92565b820191905f5260205f20905b815481529060010190602001808311610d7557829003601f168201915b505050505090806004018054610da790611602565b80601f0160208091040260200160405190810160405280929190818152602001828054610dd390611602565b8015610e1e5780601f10610df557610100808354040283529160200191610e1e565b820191905f5260205f20905b815481529060010190602001808311610e0157829003601f168201915b505050505090806005015490806006015f9054906101000a900460ff16908060060160019054906101000a900460ff16905088565b60025f9054906101000a900473ffffffffffffffffffffffffffffffffffffffff1681565b60015481565b3373ffffffffffffffffffffffffffffffffffffffff165f5f8381526020019081526020015f206002015f9054906101000a900473ffffffffffffffffffffffffffffffffffffffff1673ffffffffffffffffffffffffffffffffffffffff1614610f1e576040517f08c379a0000000000000000000000000000000000000000000000000000000008152600401610f1590611b11565b60405180910390fd5b5f5f8281526020019081526020015f206006015f9054906101000a900460ff1615610f7e576040517f08c379a0000000000000000000000000000000000000000000000000000000008152600401610f7590611b79565b60405180910390fd5b60015f5f8381526020019081526020015f206006015f6101000a81548160ff0219169083151502179055503373ffffffffffffffffffffffffffffffffffffffff16817fbb5889c77948badf90e8a5c73d55265e5f5d6e4837a79a78c5669691b897faed60405160405180910390a350565b5f604051905090565b5f5ffd5b5f5ffd5b5f819050919050565b61101381611001565b811461101d575f5ffd5b50565b5f8135905061102e8161100a565b92915050565b5f6020828403121561104957611048610ff9565b5b5f61105684828501611020565b91505092915050565b61106881611001565b82525050565b5f73ffffffffffffffffffffffffffffffffffffffff82169050919050565b5f6110978261106e565b9050919050565b6110a78161108d565b82525050565b5f81519050919050565b5f82825260208201905092915050565b8281835e5f83830152505050565b5f601f19601f8301169050919050565b5f6110ef826110ad565b6110f981856110b7565b93506111098185602086016110c7565b611112816110d5565b840191505092915050565b5f8115159050919050565b6111318161111d565b82525050565b5f6101008201905061114b5f83018b61105f565b611158602083018a61109e565b611165604083018961109e565b818103606083015261117781886110e5565b9050818103608083015261118b81876110e5565b905061119a60a083018661105f565b6111a760c0830185611128565b6111b460e0830184611128565b9998505050505050505050565b5f5ffd5b5f5ffd5b7f4e487b71000000000000000000000000000000000000000000000000000000005f52604160045260245ffd5b6111ff826110d5565b810181811067ffffffffffffffff8211171561121e5761121d6111c9565b5b80604052505050565b5f611230610ff0565b905061123c82826111f6565b919050565b5f67ffffffffffffffff82111561125b5761125a6111c9565b5b611264826110d5565b9050602081019050919050565b828183375f83830152505050565b5f61129161128c84611241565b611227565b9050828152602081018484840111156112ad576112ac6111c5565b5b6112b8848285611271565b509392505050565b5f82601f8301126112d4576112d36111c1565b5b81356112e484826020860161127f565b91505092915050565b5f5f5f6060848603121561130457611303610ff9565b5b5f84013567ffffffffffffffff81111561132157611320610ffd565b5b61132d868287016112c0565b935050602084013567ffffffffffffffff81111561134e5761134d610ffd565b5b61135a868287016112c0565b925050604061136b86828701611020565b9150509250925092565b5f6020820190506113885f83018461105f565b92915050565b6113978161108d565b81146113a1575f5ffd5b50565b5f813590506113b28161138e565b92915050565b5f5f604083850312156113ce576113cd610ff9565b5b5f6113db85828601611020565b92505060206113ec858286016113a4565b9150509250929050565b5f6020820190506114095f83018461109e565b92915050565b7f4f6e6c79207461736b2063726561746f722063616e20617070726f76652074685f8201527f65207461736b0000000000000000000000000000000000000000000000000000602082015250565b5f6114696026836110b7565b91506114748261140f565b604082019050919050565b5f6020820190508181035f8301526114968161145d565b9050919050565b7f5461736b206e6f7420636f6d706c6574656420796574000000000000000000005f82015250565b5f6114d16016836110b7565b91506114dc8261149d565b602082019050919050565b5f6020820190508181035f8301526114fe816114c5565b9050919050565b7f5461736b20616c726561647920617070726f76656400000000000000000000005f82015250565b5f6115396015836110b7565b915061154482611505565b602082019050919050565b5f6020820190508181035f8301526115668161152d565b9050919050565b7f496e73756666696369656e742066756e647320666f72207265776172640000005f82015250565b5f6115a1601d836110b7565b91506115ac8261156d565b602082019050919050565b5f6020820190508181035f8301526115ce81611595565b9050919050565b7f4e487b71000000000000000000000000000000000000000000000000000000005f52602260045260245ffd5b5f600282049050600182168061161957607f821691505b60208210810361162c5761162b6115d5565b5b50919050565b7f4f6e6c79206f776e65722063616e2077697468647261770000000000000000005f82015250565b5f6116666017836110b7565b915061167182611632565b602082019050919050565b5f6020820190508181035f8301526116938161165a565b9050919050565b7f4e487b71000000000000000000000000000000000000000000000000000000005f52601160045260245ffd5b5f6116d182611001565b91507fffffffffffffffffffffffffffffffffffffffffffffffffffffffffffffffff82036117035761170261169a565b5b600182019050919050565b5f819050815f5260205f209050919050565b5f6020601f8301049050919050565b5f82821b905092915050565b5f6008830261176a7fffffffffffffffffffffffffffffffffffffffffffffffffffffffffffffffff8261172f565b611774868361172f565b95508019841693508086168417925050509392505050565b5f819050919050565b5f6117af6117aa6117a584611001565b61178c565b611001565b9050919050565b5f819050919050565b6117c883611795565b6117dc6117d4826117b6565b84845461173b565b825550505050565b5f5f905090565b6117f36117e4565b6117fe8184846117bf565b505050565b5b81811015611821576118165f826117eb565b600181019050611804565b5050565b601f821115611866576118378161170e565b61184084611720565b8101602085101561184f578190505b61186361185b85611720565b830182611803565b50505b505050565b5f82821c905092915050565b5f6118865f198460080261186b565b1980831691505092915050565b5f61189e8383611877565b9150826002028217905092915050565b6118b7826110ad565b67ffffffffffffffff8111156118d0576118cf6111c9565b5b6118da8254611602565b6118e5828285611825565b5f60209050601f831160018114611916575f8415611904578287015190505b61190e8582611893565b865550611975565b601f1984166119248661170e565b5f5b8281101561194b57848901518255600182019150602085019450602081019050611926565b868310156119685784890151611964601f891682611877565b8355505b6001600288020188555050505b505050505050565b5f6040820190508181035f83015261199581856110e5565b90506119a4602083018461105f565b9392505050565b7f4f6e6c79207461736b2063726561746f722063616e2061737369676e207468655f8201527f207461736b000000000000000000000000000000000000000000000000000000602082015250565b5f611a056025836110b7565b9150611a10826119ab565b604082019050919050565b5f6020820190508181035f830152611a32816119f9565b9050919050565b7f5461736b20616c72656164792061737369676e656400000000000000000000005f82015250565b5f611a6d6015836110b7565b9150611a7882611a39565b602082019050919050565b5f6020820190508181035f830152611a9a81611a61565b9050919050565b7f4f6e6c792061737369676e6564206368696c642063616e20636f6d706c6574655f8201527f20746865207461736b0000000000000000000000000000000000000000000000602082015250565b5f611afb6029836110b7565b9150611b0682611aa1565b604082019050919050565b5f6020820190508181035f830152611b2881611aef565b9050919050565b7f5461736b20616c726561647920636f6d706c65746564000000000000000000005f82015250565b5f611b636016836110b7565b9150611b6e82611b2f565b602082019050919050565b5f6020820190508181035f830152611b9081611b57565b905091905056fea2646970667358221220bdf6a407f6c162f390b29151d62338e1703f41c1fc4fa31d1687da246c76569a64736f6c634300081e0033",
					"opcodes": "PUSH1 0x80 PUSH1 0x40 MSTORE PUSH0 PUSH1 0x1 SSTORE CALLVALUE DUP1 ISZERO PUSH1 0x12 JUMPI PUSH0 PUSH0 REVERT JUMPDEST POP CALLER PUSH1 0x2 PUSH0 PUSH2 0x100 EXP DUP2 SLOAD DUP2 PUSH20 0xFFFFFFFFFFFFFFFFFFFFFFFFFFFFFFFFFFFFFFFF MUL NOT AND SWAP1 DUP4 PUSH20 0xFFFFFFFFFFFFFFFFFFFFFFFFFFFFFFFFFFFFFFFF AND MUL OR SWAP1 SSTORE POP PUSH2 0x1BCD DUP1 PUSH2 0x60 PUSH0 CODECOPY PUSH0 RETURN INVALID PUSH1 0x80 PUSH1 0x40 MSTORE PUSH1 0x4 CALLDATASIZE LT PUSH2 0x85 JUMPI PUSH0 CALLDATALOAD PUSH1 0xE0 SHR DUP1 PUSH4 0x5293EE81 GT PUSH2 0x58 JUMPI DUP1 PUSH4 0x5293EE81 EQ PUSH2 0x12E JUMPI DUP1 PUSH4 0x8D977672 EQ PUSH2 0x156 JUMPI DUP1 PUSH4 0x8DA5CB5B EQ PUSH2 0x199 JUMPI DUP1 PUSH4 0xB6CB58A5 EQ PUSH2 0x1C3 JUMPI DUP1 PUSH4 0xE1E29558 EQ PUSH2 0x1ED JUMPI PUSH2 0x85 JUMP JUMPDEST DUP1 PUSH4 0xA07FAE6 EQ PUSH2 0x89 JUMPI DUP1 PUSH4 0x1D65E77E EQ PUSH2 0xA5 JUMPI DUP1 PUSH4 0x3CCFD60B EQ PUSH2 0xE8 JUMPI DUP1 PUSH4 0x41A4E30A EQ PUSH2 0xFE JUMPI JUMPDEST PUSH0 PUSH0 REVERT JUMPDEST PUSH2 0xA3 PUSH1 0x4 DUP1 CALLDATASIZE SUB DUP2 ADD SWAP1 PUSH2 0x9E SWAP2 SWAP1 PUSH2 0x1034 JUMP JUMPDEST PUSH2 0x215 JUMP JUMPDEST STOP JUMPDEST CALLVALUE DUP1 ISZERO PUSH2 0xB0 JUMPI PUSH0 PUSH0 REVERT JUMPDEST POP PUSH2 0xCB PUSH1 0x4 DUP1 CALLDATASIZE SUB DUP2 ADD SWAP1 PUSH2 0xC6 SWAP2 SWAP1 PUSH2 0x1034 JUMP JUMPDEST PUSH2 0x560 JUMP JUMPDEST PUSH1 0x40 MLOAD PUSH2 0xDF SWAP9 SWAP8 SWAP7 SWAP6 SWAP5 SWAP4 SWAP3 SWAP2 SWAP1 PUSH2 0x1137 JUMP JUMPDEST PUSH1 0x40 MLOAD DUP1 SWAP2 SUB SWAP1 RETURN JUMPDEST CALLVALUE DUP1 ISZERO PUSH2 0xF3 JUMPI PUSH0 PUSH0 REVERT JUMPDEST POP PUSH2 0xFC PUSH2 0x7DD JUMP JUMPDEST STOP JUMPDEST PUSH2 0x118 PUSH1 0x4 DUP1 CALLDATASIZE SUB DUP2 ADD SWAP1 PUSH2 0x113 SWAP2 SWAP1 PUSH2 0x12ED JUMP JUMPDEST PUSH2 0x8D3 JUMP JUMPDEST PUSH1 0x40 MLOAD PUSH2 0x125 SWAP2 SWAP1 PUSH2 0x1375 JUMP JUMPDEST PUSH1 0x40 MLOAD DUP1 SWAP2 SUB SWAP1 RETURN JUMPDEST CALLVALUE DUP1 ISZERO PUSH2 0x139 JUMPI PUSH0 PUSH0 REVERT JUMPDEST POP PUSH2 0x154 PUSH1 0x4 DUP1 CALLDATASIZE SUB DUP2 ADD SWAP1 PUSH2 0x14F SWAP2 SWAP1 PUSH2 0x13B8 JUMP JUMPDEST PUSH2 0xAD4 JUMP JUMPDEST STOP JUMPDEST CALLVALUE DUP1 ISZERO PUSH2 0x161 JUMPI PUSH0 PUSH0 REVERT JUMPDEST POP PUSH2 0x17C PUSH1 0x4 DUP1 CALLDATASIZE SUB DUP2 ADD SWAP1 PUSH2 0x177 SWAP2 SWAP1 PUSH2 0x1034 JUMP JUMPDEST PUSH2 0xCAD JUMP JUMPDEST PUSH1 0x40 MLOAD PUSH2 0x190 SWAP9 SWAP8 SWAP7 SWAP6 SWAP5 SWAP4 SWAP3 SWAP2 SWAP1 PUSH2 0x1137 JUMP JUMPDEST PUSH1 0x40 MLOAD DUP1 SWAP2 SUB SWAP1 RETURN JUMPDEST CALLVALUE DUP1 ISZERO PUSH2 0x1A4 JUMPI PUSH0 PUSH0 REVERT JUMPDEST POP PUSH2 0x1AD PUSH2 0xE53 JUMP JUMPDEST PUSH1 0x40 MLOAD PUSH2 0x1BA SWAP2 SWAP1 PUSH2 0x13F6 JUMP JUMPDEST PUSH1 0x40 MLOAD DUP1 SWAP2 SUB SWAP1 RETURN JUMPDEST CALLVALUE DUP1 ISZERO PUSH2 0x1CE JUMPI PUSH0 PUSH0 REVERT JUMPDEST POP PUSH2 0x1D7 PUSH2 0xE78 JUMP JUMPDEST PUSH1 0x40 MLOAD PUSH2 0x1E4 SWAP2 SWAP1 PUSH2 0x1375 JUMP JUMPDEST PUSH1 0x40 MLOAD DUP1 SWAP2 SUB SWAP1 RETURN JUMPDEST CALLVALUE DUP1 ISZERO PUSH2 0x1F8 JUMPI PUSH0 PUSH0 REVERT JUMPDEST POP PUSH2 0x213 PUSH1 0x4 DUP1 CALLDATASIZE SUB DUP2 ADD SWAP1 PUSH2 0x20E SWAP2 SWAP1 PUSH2 0x1034 JUMP JUMPDEST PUSH2 0xE7E JUMP JUMPDEST STOP JUMPDEST CALLER PUSH20 0xFFFFFFFFFFFFFFFFFFFFFFFFFFFFFFFFFFFFFFFF AND PUSH0 PUSH0 DUP4 DUP2 MSTORE PUSH1 0x20 ADD SWAP1 DUP2 MSTORE PUSH1 0x20 ADD PUSH0 KECCAK256 PUSH1 0x1 ADD PUSH0 SWAP1 SLOAD SWAP1 PUSH2 0x100 EXP SWAP1 DIV PUSH20 0xFFFFFFFFFFFFFFFFFFFFFFFFFFFFFFFFFFFFFFFF AND PUSH20 0xFFFFFFFFFFFFFFFFFFFFFFFFFFFFFFFFFFFFFFFF AND EQ PUSH2 0x2B5 JUMPI PUSH1 0x40 MLOAD PUSH32 0x8C379A000000000000000000000000000000000000000000000000000000000 DUP2 MSTORE PUSH1 0x4 ADD PUSH2 0x2AC SWAP1 PUSH2 0x147F JUMP JUMPDEST PUSH1 0x40 MLOAD DUP1 SWAP2 SUB SWAP1 REVERT JUMPDEST PUSH0 PUSH0 DUP3 DUP2 MSTORE PUSH1 0x20 ADD SWAP1 DUP2 MSTORE PUSH1 0x20 ADD PUSH0 KECCAK256 PUSH1 0x6 ADD PUSH0 SWAP1 SLOAD SWAP1 PUSH2 0x100 EXP SWAP1 DIV PUSH1 0xFF AND PUSH2 0x314 JUMPI PUSH1 0x40 MLOAD PUSH32 0x8C379A000000000000000000000000000000000000000000000000000000000 DUP2 MSTORE PUSH1 0x4 ADD PUSH2 0x30B SWAP1 PUSH2 0x14E7 JUMP JUMPDEST PUSH1 0x40 MLOAD DUP1 SWAP2 SUB SWAP1 REVERT JUMPDEST PUSH0 PUSH0 DUP3 DUP2 MSTORE PUSH1 0x20 ADD SWAP1 DUP2 MSTORE PUSH1 0x20 ADD PUSH0 KECCAK256 PUSH1 0x6 ADD PUSH1 0x1 SWAP1 SLOAD SWAP1 PUSH2 0x100 EXP SWAP1 DIV PUSH1 0xFF AND ISZERO PUSH2 0x375 JUMPI PUSH1 0x40 MLOAD PUSH32 0x8C379A000000000000000000000000000000000000000000000000000000000 DUP2 MSTORE PUSH1 0x4 ADD PUSH2 0x36C SWAP1 PUSH2 0x154F JUMP JUMPDEST PUSH1 0x40 MLOAD DUP1 SWAP2 SUB SWAP1 REVERT JUMPDEST PUSH0 PUSH0 DUP3 DUP2 MSTORE PUSH1 0x20 ADD SWAP1 DUP2 MSTORE PUSH1 0x20 ADD PUSH0 KECCAK256 PUSH1 0x5 ADD SLOAD CALLVALUE LT ISZERO PUSH2 0x3CB JUMPI PUSH1 0x40 MLOAD PUSH32 0x8C379A000000000000000000000000000000000000000000000000000000000 DUP2 MSTORE PUSH1 0x4 ADD PUSH2 0x3C2 SWAP1 PUSH2 0x15B7 JUMP JUMPDEST PUSH1 0x40 MLOAD DUP1 SWAP2 SUB SWAP1 REVERT JUMPDEST PUSH1 0x1 PUSH0 PUSH0 DUP4 DUP2 MSTORE PUSH1 0x20 ADD SWAP1 DUP2 MSTORE PUSH1 0x20 ADD PUSH0 KECCAK256 PUSH1 0x6 ADD PUSH1 0x1 PUSH2 0x100 EXP DUP2 SLOAD DUP2 PUSH1 0xFF MUL NOT AND SWAP1 DUP4 ISZERO ISZERO MUL OR SWAP1 SSTORE POP PUSH0 PUSH0 PUSH0 DUP4 DUP2 MSTORE PUSH1 0x20 ADD SWAP1 DUP2 MSTORE PUSH1 0x20 ADD PUSH0 KECCAK256 PUSH1 0x2 ADD PUSH0 SWAP1 SLOAD SWAP1 PUSH2 0x100 EXP SWAP1 DIV PUSH20 0xFFFFFFFFFFFFFFFFFFFFFFFFFFFFFFFFFFFFFFFF AND SWAP1 POP DUP1 PUSH20 0xFFFFFFFFFFFFFFFFFFFFFFFFFFFFFFFFFFFFFFFF AND PUSH2 0x8FC PUSH0 PUSH0 DUP6 DUP2 MSTORE PUSH1 0x20 ADD SWAP1 DUP2 MSTORE PUSH1 0x20 ADD PUSH0 KECCAK256 PUSH1 0x5 ADD SLOAD SWAP1 DUP2 ISZERO MUL SWAP1 PUSH1 0x40 MLOAD PUSH0 PUSH1 0x40 MLOAD DUP1 DUP4 SUB DUP2 DUP6 DUP9 DUP9 CALL SWAP4 POP POP POP POP ISZERO DUP1 ISZERO PUSH2 0x483 JUMPI RETURNDATASIZE PUSH0 PUSH0 RETURNDATACOPY RETURNDATASIZE PUSH0 REVERT JUMPDEST POP CALLER PUSH20 0xFFFFFFFFFFFFFFFFFFFFFFFFFFFFFFFFFFFFFFFF AND DUP3 PUSH32 0xB664FA2A6A4E034515DB6CA96DA0095C8D853E3349904BD555C50D1AC9A63595 PUSH1 0x40 MLOAD PUSH1 0x40 MLOAD DUP1 SWAP2 SUB SWAP1 LOG3 PUSH0 PUSH0 DUP4 DUP2 MSTORE PUSH1 0x20 ADD SWAP1 DUP2 MSTORE PUSH1 0x20 ADD PUSH0 KECCAK256 PUSH1 0x2 ADD PUSH0 SWAP1 SLOAD SWAP1 PUSH2 0x100 EXP SWAP1 DIV PUSH20 0xFFFFFFFFFFFFFFFFFFFFFFFFFFFFFFFFFFFFFFFF AND PUSH20 0xFFFFFFFFFFFFFFFFFFFFFFFFFFFFFFFFFFFFFFFF AND DUP3 PUSH32 0x99F2F3325E35634C09536D4983B1B2B0C9313E74F2B74508C7A1A521F6FCE9AB PUSH0 PUSH0 DUP7 DUP2 MSTORE PUSH1 0x20 ADD SWAP1 DUP2 MSTORE PUSH1 0x20 ADD PUSH0 KECCAK256 PUSH1 0x5 ADD SLOAD PUSH1 0x40 MLOAD PUSH2 0x554 SWAP2 SWAP1 PUSH2 0x1375 JUMP JUMPDEST PUSH1 0x40 MLOAD DUP1 SWAP2 SUB SWAP1 LOG3 POP POP JUMP JUMPDEST PUSH0 PUSH0 PUSH0 PUSH1 0x60 DUP1 PUSH0 PUSH0 PUSH0 PUSH0 PUSH0 PUSH0 DUP12 DUP2 MSTORE PUSH1 0x20 ADD SWAP1 DUP2 MSTORE PUSH1 0x20 ADD PUSH0 KECCAK256 PUSH1 0x40 MLOAD DUP1 PUSH2 0x100 ADD PUSH1 0x40 MSTORE SWAP1 DUP2 PUSH0 DUP3 ADD SLOAD DUP2 MSTORE PUSH1 0x20 ADD PUSH1 0x1 DUP3 ADD PUSH0 SWAP1 SLOAD SWAP1 PUSH2 0x100 EXP SWAP1 DIV PUSH20 0xFFFFFFFFFFFFFFFFFFFFFFFFFFFFFFFFFFFFFFFF AND PUSH20 0xFFFFFFFFFFFFFFFFFFFFFFFFFFFFFFFFFFFFFFFF AND PUSH20 0xFFFFFFFFFFFFFFFFFFFFFFFFFFFFFFFFFFFFFFFF AND DUP2 MSTORE PUSH1 0x20 ADD PUSH1 0x2 DUP3 ADD PUSH0 SWAP1 SLOAD SWAP1 PUSH2 0x100 EXP SWAP1 DIV PUSH20 0xFFFFFFFFFFFFFFFFFFFFFFFFFFFFFFFFFFFFFFFF AND PUSH20 0xFFFFFFFFFFFFFFFFFFFFFFFFFFFFFFFFFFFFFFFF AND PUSH20 0xFFFFFFFFFFFFFFFFFFFFFFFFFFFFFFFFFFFFFFFF AND DUP2 MSTORE PUSH1 0x20 ADD PUSH1 0x3 DUP3 ADD DUP1 SLOAD PUSH2 0x649 SWAP1 PUSH2 0x1602 JUMP JUMPDEST DUP1 PUSH1 0x1F ADD PUSH1 0x20 DUP1 SWAP2 DIV MUL PUSH1 0x20 ADD PUSH1 0x40 MLOAD SWAP1 DUP2 ADD PUSH1 0x40 MSTORE DUP1 SWAP3 SWAP2 SWAP1 DUP2 DUP2 MSTORE PUSH1 0x20 ADD DUP3 DUP1 SLOAD PUSH2 0x675 SWAP1 PUSH2 0x1602 JUMP JUMPDEST DUP1 ISZERO PUSH2 0x6C0 JUMPI DUP1 PUSH1 0x1F LT PUSH2 0x697 JUMPI PUSH2 0x100 DUP1 DUP4 SLOAD DIV MUL DUP4 MSTORE SWAP2 PUSH1 0x20 ADD SWAP2 PUSH2 0x6C0 JUMP JUMPDEST DUP3 ADD SWAP2 SWAP1 PUSH0 MSTORE PUSH1 0x20 PUSH0 KECCAK256 SWAP1 JUMPDEST DUP2 SLOAD DUP2 MSTORE SWAP1 PUSH1 0x1 ADD SWAP1 PUSH1 0x20 ADD DUP1 DUP4 GT PUSH2 0x6A3 JUMPI DUP3 SWAP1 SUB PUSH1 0x1F AND DUP3 ADD SWAP2 JUMPDEST POP POP POP POP POP DUP2 MSTORE PUSH1 0x20 ADD PUSH1 0x4 DUP3 ADD DUP1 SLOAD PUSH2 0x6D9 SWAP1 PUSH2 0x1602 JUMP JUMPDEST DUP1 PUSH1 0x1F ADD PUSH1 0x20 DUP1 SWAP2 DIV MUL PUSH1 0x20 ADD PUSH1 0x40 MLOAD SWAP1 DUP2 ADD PUSH1 0x40 MSTORE DUP1 SWAP3 SWAP2 SWAP1 DUP2 DUP2 MSTORE PUSH1 0x20 ADD DUP3 DUP1 SLOAD PUSH2 0x705 SWAP1 PUSH2 0x1602 JUMP JUMPDEST DUP1 ISZERO PUSH2 0x750 JUMPI DUP1 PUSH1 0x1F LT PUSH2 0x727 JUMPI PUSH2 0x100 DUP1 DUP4 SLOAD DIV MUL DUP4 MSTORE SWAP2 PUSH1 0x20 ADD SWAP2 PUSH2 0x750 JUMP JUMPDEST DUP3 ADD SWAP2 SWAP1 PUSH0 MSTORE PUSH1 0x20 PUSH0 KECCAK256 SWAP1 JUMPDEST DUP2 SLOAD DUP2 MSTORE SWAP1 PUSH1 0x1 ADD SWAP1 PUSH1 0x20 ADD DUP1 DUP4 GT PUSH2 0x733 JUMPI DUP3 SWAP1 SUB PUSH1 0x1F AND DUP3 ADD SWAP2 JUMPDEST POP POP POP POP POP DUP2 MSTORE PUSH1 0x20 ADD PUSH1 0x5 DUP3 ADD SLOAD DUP2 MSTORE PUSH1 0x20 ADD PUSH1 0x6 DUP3 ADD PUSH0 SWAP1 SLOAD SWAP1 PUSH2 0x100 EXP SWAP1 DIV PUSH1 0xFF AND ISZERO ISZERO ISZERO ISZERO DUP2 MSTORE PUSH1 0x20 ADD PUSH1 0x6 DUP3 ADD PUSH1 0x1 SWAP1 SLOAD SWAP1 PUSH2 0x100 EXP SWAP1 DIV PUSH1 0xFF AND ISZERO ISZERO ISZERO ISZERO DUP2 MSTORE POP POP SWAP1 POP DUP1 PUSH0 ADD MLOAD DUP2 PUSH1 0x20 ADD MLOAD DUP3 PUSH1 0x40 ADD MLOAD DUP4 PUSH1 0x60 ADD MLOAD DUP5 PUSH1 0x80 ADD MLOAD DUP6 PUSH1 0xA0 ADD MLOAD DUP7 PUSH1 0xC0 ADD MLOAD DUP8 PUSH1 0xE0 ADD MLOAD SWAP9 POP SWAP9 POP SWAP9 POP SWAP9 POP SWAP9 POP SWAP9 POP SWAP9 POP SWAP9 POP POP SWAP2 SWAP4 SWAP6 SWAP8 POP SWAP2 SWAP4 SWAP6 SWAP8 JUMP JUMPDEST PUSH1 0x2 PUSH0 SWAP1 SLOAD SWAP1 PUSH2 0x100 EXP SWAP1 DIV PUSH20 0xFFFFFFFFFFFFFFFFFFFFFFFFFFFFFFFFFFFFFFFF AND PUSH20 0xFFFFFFFFFFFFFFFFFFFFFFFFFFFFFFFFFFFFFFFF AND CALLER PUSH20 0xFFFFFFFFFFFFFFFFFFFFFFFFFFFFFFFFFFFFFFFF AND EQ PUSH2 0x86C JUMPI PUSH1 0x40 MLOAD PUSH32 0x8C379A000000000000000000000000000000000000000000000000000000000 DUP2 MSTORE PUSH1 0x4 ADD PUSH2 0x863 SWAP1 PUSH2 0x167C JUMP JUMPDEST PUSH1 0x40 MLOAD DUP1 SWAP2 SUB SWAP1 REVERT JUMPDEST PUSH1 0x2 PUSH0 SWAP1 SLOAD SWAP1 PUSH2 0x100 EXP SWAP1 DIV PUSH20 0xFFFFFFFFFFFFFFFFFFFFFFFFFFFFFFFFFFFFFFFF AND PUSH20 0xFFFFFFFFFFFFFFFFFFFFFFFFFFFFFFFFFFFFFFFF AND PUSH2 0x8FC SELFBALANCE SWAP1 DUP2 ISZERO MUL SWAP1 PUSH1 0x40 MLOAD PUSH0 PUSH1 0x40 MLOAD DUP1 DUP4 SUB DUP2 DUP6 DUP9 DUP9 CALL SWAP4 POP POP POP POP ISZERO DUP1 ISZERO PUSH2 0x8D0 JUMPI RETURNDATASIZE PUSH0 PUSH0 RETURNDATACOPY RETURNDATASIZE PUSH0 REVERT JUMPDEST POP JUMP JUMPDEST PUSH0 PUSH1 0x1 PUSH0 DUP2 SLOAD DUP1 SWAP3 SWAP2 SWAP1 PUSH2 0x8E6 SWAP1 PUSH2 0x16C7 JUMP JUMPDEST SWAP2 SWAP1 POP SSTORE POP PUSH1 0x40 MLOAD DUP1 PUSH2 0x100 ADD PUSH1 0x40 MSTORE DUP1 PUSH1 0x1 SLOAD DUP2 MSTORE PUSH1 0x20 ADD CALLER PUSH20 0xFFFFFFFFFFFFFFFFFFFFFFFFFFFFFFFFFFFFFFFF AND DUP2 MSTORE PUSH1 0x20 ADD PUSH0 PUSH20 0xFFFFFFFFFFFFFFFFFFFFFFFFFFFFFFFFFFFFFFFF AND DUP2 MSTORE PUSH1 0x20 ADD DUP6 DUP2 MSTORE PUSH1 0x20 ADD DUP5 DUP2 MSTORE PUSH1 0x20 ADD DUP4 DUP2 MSTORE PUSH1 0x20 ADD PUSH0 ISZERO ISZERO DUP2 MSTORE PUSH1 0x20 ADD PUSH0 ISZERO ISZERO DUP2 MSTORE POP PUSH0 PUSH0 PUSH1 0x1 SLOAD DUP2 MSTORE PUSH1 0x20 ADD SWAP1 DUP2 MSTORE PUSH1 0x20 ADD PUSH0 KECCAK256 PUSH0 DUP3 ADD MLOAD DUP2 PUSH0 ADD SSTORE PUSH1 0x20 DUP3 ADD MLOAD DUP2 PUSH1 0x1 ADD PUSH0 PUSH2 0x100 EXP DUP2 SLOAD DUP2 PUSH20 0xFFFFFFFFFFFFFFFFFFFFFFFFFFFFFFFFFFFFFFFF MUL NOT AND SWAP1 DUP4 PUSH20 0xFFFFFFFFFFFFFFFFFFFFFFFFFFFFFFFFFFFFFFFF AND MUL OR SWAP1 SSTORE POP PUSH1 0x40 DUP3 ADD MLOAD DUP2 PUSH1 0x2 ADD PUSH0 PUSH2 0x100 EXP DUP2 SLOAD DUP2 PUSH20 0xFFFFFFFFFFFFFFFFFFFFFFFFFFFFFFFFFFFFFFFF MUL NOT AND SWAP1 DUP4 PUSH20 0xFFFFFFFFFFFFFFFFFFFFFFFFFFFFFFFFFFFFFFFF AND MUL OR SWAP1 SSTORE POP PUSH1 0x60 DUP3 ADD MLOAD DUP2 PUSH1 0x3 ADD SWAP1 DUP2 PUSH2 0xA12 SWAP2 SWAP1 PUSH2 0x18AE JUMP JUMPDEST POP PUSH1 0x80 DUP3 ADD MLOAD DUP2 PUSH1 0x4 ADD SWAP1 DUP2 PUSH2 0xA28 SWAP2 SWAP1 PUSH2 0x18AE JUMP JUMPDEST POP PUSH1 0xA0 DUP3 ADD MLOAD DUP2 PUSH1 0x5 ADD SSTORE PUSH1 0xC0 DUP3 ADD MLOAD DUP2 PUSH1 0x6 ADD PUSH0 PUSH2 0x100 EXP DUP2 SLOAD DUP2 PUSH1 0xFF MUL NOT AND SWAP1 DUP4 ISZERO ISZERO MUL OR SWAP1 SSTORE POP PUSH1 0xE0 DUP3 ADD MLOAD DUP2 PUSH1 0x6 ADD PUSH1 0x1 PUSH2 0x100 EXP DUP2 SLOAD DUP2 PUSH1 0xFF MUL NOT AND SWAP1 DUP4 ISZERO ISZERO MUL OR SWAP1 SSTORE POP SWAP1 POP POP CALLER PUSH20 0xFFFFFFFFFFFFFFFFFFFFFFFFFFFFFFFFFFFFFFFF AND PUSH1 0x1 SLOAD PUSH32 0x9E3C9757475C00B86393E183B68033BB76E48FA164849C7428AD17F62E1954A7 DUP7 DUP6 PUSH1 0x40 MLOAD PUSH2 0xAC0 SWAP3 SWAP2 SWAP1 PUSH2 0x197D JUMP JUMPDEST PUSH1 0x40 MLOAD DUP1 SWAP2 SUB SWAP1 LOG3 PUSH1 0x1 SLOAD SWAP1 POP SWAP4 SWAP3 POP POP POP JUMP JUMPDEST CALLER PUSH20 0xFFFFFFFFFFFFFFFFFFFFFFFFFFFFFFFFFFFFFFFF AND PUSH0 PUSH0 DUP5 DUP2 MSTORE PUSH1 0x20 ADD SWAP1 DUP2 MSTORE PUSH1 0x20 ADD PUSH0 KECCAK256 PUSH1 0x1 ADD PUSH0 SWAP1 SLOAD SWAP1 PUSH2 0x100 EXP SWAP1 DIV PUSH20 0xFFFFFFFFFFFFFFFFFFFFFFFFFFFFFFFFFFFFFFFF AND PUSH20 0xFFFFFFFFFFFFFFFFFFFFFFFFFFFFFFFFFFFFFFFF AND EQ PUSH2 0xB74 JUMPI PUSH1 0x40 MLOAD PUSH32 0x8C379A000000000000000000000000000000000000000000000000000000000 DUP2 MSTORE PUSH1 0x4 ADD PUSH2 0xB6B SWAP1 PUSH2 0x1A1B JUMP JUMPDEST PUSH1 0x40 MLOAD DUP1 SWAP2 SUB SWAP1 REVERT JUMPDEST PUSH0 PUSH20 0xFFFFFFFFFFFFFFFFFFFFFFFFFFFFFFFFFFFFFFFF AND PUSH0 PUSH0 DUP5 DUP2 MSTORE PUSH1 0x20 ADD SWAP1 DUP2 MSTORE PUSH1 0x20 ADD PUSH0 KECCAK256 PUSH1 0x2 ADD PUSH0 SWAP1 SLOAD SWAP1 PUSH2 0x100 EXP SWAP1 DIV PUSH20 0xFFFFFFFFFFFFFFFFFFFFFFFFFFFFFFFFFFFFFFFF AND PUSH20 0xFFFFFFFFFFFFFFFFFFFFFFFFFFFFFFFFFFFFFFFF AND EQ PUSH2 0xC14 JUMPI PUSH1 0x40 MLOAD PUSH32 0x8C379A000000000000000000000000000000000000000000000000000000000 DUP2 MSTORE PUSH1 0x4 ADD PUSH2 0xC0B SWAP1 PUSH2 0x1A83 JUMP JUMPDEST PUSH1 0x40 MLOAD DUP1 SWAP2 SUB SWAP1 REVERT JUMPDEST DUP1 PUSH0 PUSH0 DUP5 DUP2 MSTORE PUSH1 0x20 ADD SWAP1 DUP2 MSTORE PUSH1 0x20 ADD PUSH0 KECCAK256 PUSH1 0x2 ADD PUSH0 PUSH2 0x100 EXP DUP2 SLOAD DUP2 PUSH20 0xFFFFFFFFFFFFFFFFFFFFFFFFFFFFFFFFFFFFFFFF MUL NOT AND SWAP1 DUP4 PUSH20 0xFFFFFFFFFFFFFFFFFFFFFFFFFFFFFFFFFFFFFFFF AND MUL OR SWAP1 SSTORE POP DUP1 PUSH20 0xFFFFFFFFFFFFFFFFFFFFFFFFFFFFFFFFFFFFFFFF AND DUP3 PUSH32 0x52476D55ECEF5CF13CAA64038F297FE6BBF865D9584A98B8722A15A6D5DB128F PUSH1 0x40 MLOAD PUSH1 0x40 MLOAD DUP1 SWAP2 SUB SWAP1 LOG3 POP POP JUMP JUMPDEST PUSH0 PUSH1 0x20 MSTORE DUP1 PUSH0 MSTORE PUSH1 0x40 PUSH0 KECCAK256 PUSH0 SWAP2 POP SWAP1 POP DUP1 PUSH0 ADD SLOAD SWAP1 DUP1 PUSH1 0x1 ADD PUSH0 SWAP1 SLOAD SWAP1 PUSH2 0x100 EXP SWAP1 DIV PUSH20 0xFFFFFFFFFFFFFFFFFFFFFFFFFFFFFFFFFFFFFFFF AND SWAP1 DUP1 PUSH1 0x2 ADD PUSH0 SWAP1 SLOAD SWAP1 PUSH2 0x100 EXP SWAP1 DIV PUSH20 0xFFFFFFFFFFFFFFFFFFFFFFFFFFFFFFFFFFFFFFFF AND SWAP1 DUP1 PUSH1 0x3 ADD DUP1 SLOAD PUSH2 0xD1B SWAP1 PUSH2 0x1602 JUMP JUMPDEST DUP1 PUSH1 0x1F ADD PUSH1 0x20 DUP1 SWAP2 DIV MUL PUSH1 0x20 ADD PUSH1 0x40 MLOAD SWAP1 DUP2 ADD PUSH1 0x40 MSTORE DUP1 SWAP3 SWAP2 SWAP1 DUP2 DUP2 MSTORE PUSH1 0x20 ADD DUP3 DUP1 SLOAD PUSH2 0xD47 SWAP1 PUSH2 0x1602 JUMP JUMPDEST DUP1 ISZERO PUSH2 0xD92 JUMPI DUP1 PUSH1 0x1F LT PUSH2 0xD69 JUMPI PUSH2 0x100 DUP1 DUP4 SLOAD DIV MUL DUP4 MSTORE SWAP2 PUSH1 0x20 ADD SWAP2 PUSH2 0xD92 JUMP JUMPDEST DUP3 ADD SWAP2 SWAP1 PUSH0 MSTORE PUSH1 0x20 PUSH0 KECCAK256 SWAP1 JUMPDEST DUP2 SLOAD DUP2 MSTORE SWAP1 PUSH1 0x1 ADD SWAP1 PUSH1 0x20 ADD DUP1 DUP4 GT PUSH2 0xD75 JUMPI DUP3 SWAP1 SUB PUSH1 0x1F AND DUP3 ADD SWAP2 JUMPDEST POP POP POP POP POP SWAP1 DUP1 PUSH1 0x4 ADD DUP1 SLOAD PUSH2 0xDA7 SWAP1 PUSH2 0x1602 JUMP JUMPDEST DUP1 PUSH1 0x1F ADD PUSH1 0x20 DUP1 SWAP2 DIV MUL PUSH1 0x20 ADD PUSH1 0x40 MLOAD SWAP1 DUP2 ADD PUSH1 0x40 MSTORE DUP1 SWAP3 SWAP2 SWAP1 DUP2 DUP2 MSTORE PUSH1 0x20 ADD DUP3 DUP1 SLOAD PUSH2 0xDD3 SWAP1 PUSH2 0x1602 JUMP JUMPDEST DUP1 ISZERO PUSH2 0xE1E JUMPI DUP1 PUSH1 0x1F LT PUSH2 0xDF5 JUMPI PUSH2 0x100 DUP1 DUP4 SLOAD DIV MUL DUP4 MSTORE SWAP2 PUSH1 0x20 ADD SWAP2 PUSH2 0xE1E JUMP JUMPDEST DUP3 ADD SWAP2 SWAP1 PUSH0 MSTORE PUSH1 0x20 PUSH0 KECCAK256 SWAP1 JUMPDEST DUP2 SLOAD DUP2 MSTORE SWAP1 PUSH1 0x1 ADD SWAP1 PUSH1 0x20 ADD DUP1 DUP4 GT PUSH2 0xE01 JUMPI DUP3 SWAP1 SUB PUSH1 0x1F AND DUP3 ADD SWAP2 JUMPDEST POP POP POP POP POP SWAP1 DUP1 PUSH1 0x5 ADD SLOAD SWAP1 DUP1 PUSH1 0x6 ADD PUSH0 SWAP1 SLOAD SWAP1 PUSH2 0x100 EXP SWAP1 DIV PUSH1 0xFF AND SWAP1 DUP1 PUSH1 0x6 ADD PUSH1 0x1 SWAP1 SLOAD SWAP1 PUSH2 0x100 EXP SWAP1 DIV PUSH1 0xFF AND SWAP1 POP DUP9 JUMP JUMPDEST PUSH1 0x2 PUSH0 SWAP1 SLOAD SWAP1 PUSH2 0x100 EXP SWAP1 DIV PUSH20 0xFFFFFFFFFFFFFFFFFFFFFFFFFFFFFFFFFFFFFFFF AND DUP2 JUMP JUMPDEST PUSH1 0x1 SLOAD DUP2 JUMP JUMPDEST CALLER PUSH20 0xFFFFFFFFFFFFFFFFFFFFFFFFFFFFFFFFFFFFFFFF AND PUSH0 PUSH0 DUP4 DUP2 MSTORE PUSH1 0x20 ADD SWAP1 DUP2 MSTORE PUSH1 0x20 ADD PUSH0 KECCAK256 PUSH1 0x2 ADD PUSH0 SWAP1 SLOAD SWAP1 PUSH2 0x100 EXP SWAP1 DIV PUSH20 0xFFFFFFFFFFFFFFFFFFFFFFFFFFFFFFFFFFFFFFFF AND PUSH20 0xFFFFFFFFFFFFFFFFFFFFFFFFFFFFFFFFFFFFFFFF AND EQ PUSH2 0xF1E JUMPI PUSH1 0x40 MLOAD PUSH32 0x8C379A000000000000000000000000000000000000000000000000000000000 DUP2 MSTORE PUSH1 0x4 ADD PUSH2 0xF15 SWAP1 PUSH2 0x1B11 JUMP JUMPDEST PUSH1 0x40 MLOAD DUP1 SWAP2 SUB SWAP1 REVERT JUMPDEST PUSH0 PUSH0 DUP3 DUP2 MSTORE PUSH1 0x20 ADD SWAP1 DUP2 MSTORE PUSH1 0x20 ADD PUSH0 KECCAK256 PUSH1 0x6 ADD PUSH0 SWAP1 SLOAD SWAP1 PUSH2 0x100 EXP SWAP1 DIV PUSH1 0xFF AND ISZERO PUSH2 0xF7E JUMPI PUSH1 0x40 MLOAD PUSH32 0x8C379A000000000000000000000000000000000000000000000000000000000 DUP2 MSTORE PUSH1 0x4 ADD PUSH2 0xF75 SWAP1 PUSH2 0x1B79 JUMP JUMPDEST PUSH1 0x40 MLOAD DUP1 SWAP2 SUB SWAP1 REVERT JUMPDEST PUSH1 0x1 PUSH0 PUSH0 DUP4 DUP2 MSTORE PUSH1 0x20 ADD SWAP1 DUP2 MSTORE PUSH1 0x20 ADD PUSH0 KECCAK256 PUSH1 0x6 ADD PUSH0 PUSH2 0x100 EXP DUP2 SLOAD DUP2 PUSH1 0xFF MUL NOT AND SWAP1 DUP4 ISZERO ISZERO MUL OR SWAP1 SSTORE POP CALLER PUSH20 0xFFFFFFFFFFFFFFFFFFFFFFFFFFFFFFFFFFFFFFFF AND DUP2 PUSH32 0xBB5889C77948BADF90E8A5C73D55265E5F5D6E4837A79A78C5669691B897FAED PUSH1 0x40 MLOAD PUSH1 0x40 MLOAD DUP1 SWAP2 SUB SWAP1 LOG3 POP JUMP JUMPDEST PUSH0 PUSH1 0x40 MLOAD SWAP1 POP SWAP1 JUMP JUMPDEST PUSH0 PUSH0 REVERT JUMPDEST PUSH0 PUSH0 REVERT JUMPDEST PUSH0 DUP2 SWAP1 POP SWAP2 SWAP1 POP JUMP JUMPDEST PUSH2 0x1013 DUP2 PUSH2 0x1001 JUMP JUMPDEST DUP2 EQ PUSH2 0x101D JUMPI PUSH0 PUSH0 REVERT JUMPDEST POP JUMP JUMPDEST PUSH0 DUP2 CALLDATALOAD SWAP1 POP PUSH2 0x102E DUP2 PUSH2 0x100A JUMP JUMPDEST SWAP3 SWAP2 POP POP JUMP JUMPDEST PUSH0 PUSH1 0x20 DUP3 DUP5 SUB SLT ISZERO PUSH2 0x1049 JUMPI PUSH2 0x1048 PUSH2 0xFF9 JUMP JUMPDEST JUMPDEST PUSH0 PUSH2 0x1056 DUP5 DUP3 DUP6 ADD PUSH2 0x1020 JUMP JUMPDEST SWAP2 POP POP SWAP3 SWAP2 POP POP JUMP JUMPDEST PUSH2 0x1068 DUP2 PUSH2 0x1001 JUMP JUMPDEST DUP3 MSTORE POP POP JUMP JUMPDEST PUSH0 PUSH20 0xFFFFFFFFFFFFFFFFFFFFFFFFFFFFFFFFFFFFFFFF DUP3 AND SWAP1 POP SWAP2 SWAP1 POP JUMP JUMPDEST PUSH0 PUSH2 0x1097 DUP3 PUSH2 0x106E JUMP JUMPDEST SWAP1 POP SWAP2 SWAP1 POP JUMP JUMPDEST PUSH2 0x10A7 DUP2 PUSH2 0x108D JUMP JUMPDEST DUP3 MSTORE POP POP JUMP JUMPDEST PUSH0 DUP2 MLOAD SWAP1 POP SWAP2 SWAP1 POP JUMP JUMPDEST PUSH0 DUP3 DUP3 MSTORE PUSH1 0x20 DUP3 ADD SWAP1 POP SWAP3 SWAP2 POP POP JUMP JUMPDEST DUP3 DUP2 DUP4 MCOPY PUSH0 DUP4 DUP4 ADD MSTORE POP POP POP JUMP JUMPDEST PUSH0 PUSH1 0x1F NOT PUSH1 0x1F DUP4 ADD AND SWAP1 POP SWAP2 SWAP1 POP JUMP JUMPDEST PUSH0 PUSH2 0x10EF DUP3 PUSH2 0x10AD JUMP JUMPDEST PUSH2 0x10F9 DUP2 DUP6 PUSH2 0x10B7 JUMP JUMPDEST SWAP4 POP PUSH2 0x1109 DUP2 DUP6 PUSH1 0x20 DUP7 ADD PUSH2 0x10C7 JUMP JUMPDEST PUSH2 0x1112 DUP2 PUSH2 0x10D5 JUMP JUMPDEST DUP5 ADD SWAP2 POP POP SWAP3 SWAP2 POP POP JUMP JUMPDEST PUSH0 DUP2 ISZERO ISZERO SWAP1 POP SWAP2 SWAP1 POP JUMP JUMPDEST PUSH2 0x1131 DUP2 PUSH2 0x111D JUMP JUMPDEST DUP3 MSTORE POP POP JUMP JUMPDEST PUSH0 PUSH2 0x100 DUP3 ADD SWAP1 POP PUSH2 0x114B PUSH0 DUP4 ADD DUP12 PUSH2 0x105F JUMP JUMPDEST PUSH2 0x1158 PUSH1 0x20 DUP4 ADD DUP11 PUSH2 0x109E JUMP JUMPDEST PUSH2 0x1165 PUSH1 0x40 DUP4 ADD DUP10 PUSH2 0x109E JUMP JUMPDEST DUP2 DUP2 SUB PUSH1 0x60 DUP4 ADD MSTORE PUSH2 0x1177 DUP2 DUP9 PUSH2 0x10E5 JUMP JUMPDEST SWAP1 POP DUP2 DUP2 SUB PUSH1 0x80 DUP4 ADD MSTORE PUSH2 0x118B DUP2 DUP8 PUSH2 0x10E5 JUMP JUMPDEST SWAP1 POP PUSH2 0x119A PUSH1 0xA0 DUP4 ADD DUP7 PUSH2 0x105F JUMP JUMPDEST PUSH2 0x11A7 PUSH1 0xC0 DUP4 ADD DUP6 PUSH2 0x1128 JUMP JUMPDEST PUSH2 0x11B4 PUSH1 0xE0 DUP4 ADD DUP5 PUSH2 0x1128 JUMP JUMPDEST SWAP10 SWAP9 POP POP POP POP POP POP POP POP POP JUMP JUMPDEST PUSH0 PUSH0 REVERT JUMPDEST PUSH0 PUSH0 REVERT JUMPDEST PUSH32 0x4E487B7100000000000000000000000000000000000000000000000000000000 PUSH0 MSTORE PUSH1 0x41 PUSH1 0x4 MSTORE PUSH1 0x24 PUSH0 REVERT JUMPDEST PUSH2 0x11FF DUP3 PUSH2 0x10D5 JUMP JUMPDEST DUP2 ADD DUP2 DUP2 LT PUSH8 0xFFFFFFFFFFFFFFFF DUP3 GT OR ISZERO PUSH2 0x121E JUMPI PUSH2 0x121D PUSH2 0x11C9 JUMP JUMPDEST JUMPDEST DUP1 PUSH1 0x40 MSTORE POP POP POP JUMP JUMPDEST PUSH0 PUSH2 0x1230 PUSH2 0xFF0 JUMP JUMPDEST SWAP1 POP PUSH2 0x123C DUP3 DUP3 PUSH2 0x11F6 JUMP JUMPDEST SWAP2 SWAP1 POP JUMP JUMPDEST PUSH0 PUSH8 0xFFFFFFFFFFFFFFFF DUP3 GT ISZERO PUSH2 0x125B JUMPI PUSH2 0x125A PUSH2 0x11C9 JUMP JUMPDEST JUMPDEST PUSH2 0x1264 DUP3 PUSH2 0x10D5 JUMP JUMPDEST SWAP1 POP PUSH1 0x20 DUP2 ADD SWAP1 POP SWAP2 SWAP1 POP JUMP JUMPDEST DUP3 DUP2 DUP4 CALLDATACOPY PUSH0 DUP4 DUP4 ADD MSTORE POP POP POP JUMP JUMPDEST PUSH0 PUSH2 0x1291 PUSH2 0x128C DUP5 PUSH2 0x1241 JUMP JUMPDEST PUSH2 0x1227 JUMP JUMPDEST SWAP1 POP DUP3 DUP2 MSTORE PUSH1 0x20 DUP2 ADD DUP5 DUP5 DUP5 ADD GT ISZERO PUSH2 0x12AD JUMPI PUSH2 0x12AC PUSH2 0x11C5 JUMP JUMPDEST JUMPDEST PUSH2 0x12B8 DUP5 DUP3 DUP6 PUSH2 0x1271 JUMP JUMPDEST POP SWAP4 SWAP3 POP POP POP JUMP JUMPDEST PUSH0 DUP3 PUSH1 0x1F DUP4 ADD SLT PUSH2 0x12D4 JUMPI PUSH2 0x12D3 PUSH2 0x11C1 JUMP JUMPDEST JUMPDEST DUP2 CALLDATALOAD PUSH2 0x12E4 DUP5 DUP3 PUSH1 0x20 DUP7 ADD PUSH2 0x127F JUMP JUMPDEST SWAP2 POP POP SWAP3 SWAP2 POP POP JUMP JUMPDEST PUSH0 PUSH0 PUSH0 PUSH1 0x60 DUP5 DUP7 SUB SLT ISZERO PUSH2 0x1304 JUMPI PUSH2 0x1303 PUSH2 0xFF9 JUMP JUMPDEST JUMPDEST PUSH0 DUP5 ADD CALLDATALOAD PUSH8 0xFFFFFFFFFFFFFFFF DUP2 GT ISZERO PUSH2 0x1321 JUMPI PUSH2 0x1320 PUSH2 0xFFD JUMP JUMPDEST JUMPDEST PUSH2 0x132D DUP7 DUP3 DUP8 ADD PUSH2 0x12C0 JUMP JUMPDEST SWAP4 POP POP PUSH1 0x20 DUP5 ADD CALLDATALOAD PUSH8 0xFFFFFFFFFFFFFFFF DUP2 GT ISZERO PUSH2 0x134E JUMPI PUSH2 0x134D PUSH2 0xFFD JUMP JUMPDEST JUMPDEST PUSH2 0x135A DUP7 DUP3 DUP8 ADD PUSH2 0x12C0 JUMP JUMPDEST SWAP3 POP POP PUSH1 0x40 PUSH2 0x136B DUP7 DUP3 DUP8 ADD PUSH2 0x1020 JUMP JUMPDEST SWAP2 POP POP SWAP3 POP SWAP3 POP SWAP3 JUMP JUMPDEST PUSH0 PUSH1 0x20 DUP3 ADD SWAP1 POP PUSH2 0x1388 PUSH0 DUP4 ADD DUP5 PUSH2 0x105F JUMP JUMPDEST SWAP3 SWAP2 POP POP JUMP JUMPDEST PUSH2 0x1397 DUP2 PUSH2 0x108D JUMP JUMPDEST DUP2 EQ PUSH2 0x13A1 JUMPI PUSH0 PUSH0 REVERT JUMPDEST POP JUMP JUMPDEST PUSH0 DUP2 CALLDATALOAD SWAP1 POP PUSH2 0x13B2 DUP2 PUSH2 0x138E JUMP JUMPDEST SWAP3 SWAP2 POP POP JUMP JUMPDEST PUSH0 PUSH0 PUSH1 0x40 DUP4 DUP6 SUB SLT ISZERO PUSH2 0x13CE JUMPI PUSH2 0x13CD PUSH2 0xFF9 JUMP JUMPDEST JUMPDEST PUSH0 PUSH2 0x13DB DUP6 DUP3 DUP7 ADD PUSH2 0x1020 JUMP JUMPDEST SWAP3 POP POP PUSH1 0x20 PUSH2 0x13EC DUP6 DUP3 DUP7 ADD PUSH2 0x13A4 JUMP JUMPDEST SWAP2 POP POP SWAP3 POP SWAP3 SWAP1 POP JUMP JUMPDEST PUSH0 PUSH1 0x20 DUP3 ADD SWAP1 POP PUSH2 0x1409 PUSH0 DUP4 ADD DUP5 PUSH2 0x109E JUMP JUMPDEST SWAP3 SWAP2 POP POP JUMP JUMPDEST PUSH32 0x4F6E6C79207461736B2063726561746F722063616E20617070726F7665207468 PUSH0 DUP3 ADD MSTORE PUSH32 0x65207461736B0000000000000000000000000000000000000000000000000000 PUSH1 0x20 DUP3 ADD MSTORE POP JUMP JUMPDEST PUSH0 PUSH2 0x1469 PUSH1 0x26 DUP4 PUSH2 0x10B7 JUMP JUMPDEST SWAP2 POP PUSH2 0x1474 DUP3 PUSH2 0x140F JUMP JUMPDEST PUSH1 0x40 DUP3 ADD SWAP1 POP SWAP2 SWAP1 POP JUMP JUMPDEST PUSH0 PUSH1 0x20 DUP3 ADD SWAP1 POP DUP2 DUP2 SUB PUSH0 DUP4 ADD MSTORE PUSH2 0x1496 DUP2 PUSH2 0x145D JUMP JUMPDEST SWAP1 POP SWAP2 SWAP1 POP JUMP JUMPDEST PUSH32 0x5461736B206E6F7420636F6D706C657465642079657400000000000000000000 PUSH0 DUP3 ADD MSTORE POP JUMP JUMPDEST PUSH0 PUSH2 0x14D1 PUSH1 0x16 DUP4 PUSH2 0x10B7 JUMP JUMPDEST SWAP2 POP PUSH2 0x14DC DUP3 PUSH2 0x149D JUMP JUMPDEST PUSH1 0x20 DUP3 ADD SWAP1 POP SWAP2 SWAP1 POP JUMP JUMPDEST PUSH0 PUSH1 0x20 DUP3 ADD SWAP1 POP DUP2 DUP2 SUB PUSH0 DUP4 ADD MSTORE PUSH2 0x14FE DUP2 PUSH2 0x14C5 JUMP JUMPDEST SWAP1 POP SWAP2 SWAP1 POP JUMP JUMPDEST PUSH32 0x5461736B20616C726561647920617070726F7665640000000000000000000000 PUSH0 DUP3 ADD MSTORE POP JUMP JUMPDEST PUSH0 PUSH2 0x1539 PUSH1 0x15 DUP4 PUSH2 0x10B7 JUMP JUMPDEST SWAP2 POP PUSH2 0x1544 DUP3 PUSH2 0x1505 JUMP JUMPDEST PUSH1 0x20 DUP3 ADD SWAP1 POP SWAP2 SWAP1 POP JUMP JUMPDEST PUSH0 PUSH1 0x20 DUP3 ADD SWAP1 POP DUP2 DUP2 SUB PUSH0 DUP4 ADD MSTORE PUSH2 0x1566 DUP2 PUSH2 0x152D JUMP JUMPDEST SWAP1 POP SWAP2 SWAP1 POP JUMP JUMPDEST PUSH32 0x496E73756666696369656E742066756E647320666F7220726577617264000000 PUSH0 DUP3 ADD MSTORE POP JUMP JUMPDEST PUSH0 PUSH2 0x15A1 PUSH1 0x1D DUP4 PUSH2 0x10B7 JUMP JUMPDEST SWAP2 POP PUSH2 0x15AC DUP3 PUSH2 0x156D JUMP JUMPDEST PUSH1 0x20 DUP3 ADD SWAP1 POP SWAP2 SWAP1 POP JUMP JUMPDEST PUSH0 PUSH1 0x20 DUP3 ADD SWAP1 POP DUP2 DUP2 SUB PUSH0 DUP4 ADD MSTORE PUSH2 0x15CE DUP2 PUSH2 0x1595 JUMP JUMPDEST SWAP1 POP SWAP2 SWAP1 POP JUMP JUMPDEST PUSH32 0x4E487B7100000000000000000000000000000000000000000000000000000000 PUSH0 MSTORE PUSH1 0x22 PUSH1 0x4 MSTORE PUSH1 0x24 PUSH0 REVERT JUMPDEST PUSH0 PUSH1 0x2 DUP3 DIV SWAP1 POP PUSH1 0x1 DUP3 AND DUP1 PUSH2 0x1619 JUMPI PUSH1 0x7F DUP3 AND SWAP2 POP JUMPDEST PUSH1 0x20 DUP3 LT DUP2 SUB PUSH2 0x162C JUMPI PUSH2 0x162B PUSH2 0x15D5 JUMP JUMPDEST JUMPDEST POP SWAP2 SWAP1 POP JUMP JUMPDEST PUSH32 0x4F6E6C79206F776E65722063616E207769746864726177000000000000000000 PUSH0 DUP3 ADD MSTORE POP JUMP JUMPDEST PUSH0 PUSH2 0x1666 PUSH1 0x17 DUP4 PUSH2 0x10B7 JUMP JUMPDEST SWAP2 POP PUSH2 0x1671 DUP3 PUSH2 0x1632 JUMP JUMPDEST PUSH1 0x20 DUP3 ADD SWAP1 POP SWAP2 SWAP1 POP JUMP JUMPDEST PUSH0 PUSH1 0x20 DUP3 ADD SWAP1 POP DUP2 DUP2 SUB PUSH0 DUP4 ADD MSTORE PUSH2 0x1693 DUP2 PUSH2 0x165A JUMP JUMPDEST SWAP1 POP SWAP2 SWAP1 POP JUMP JUMPDEST PUSH32 0x4E487B7100000000000000000000000000000000000000000000000000000000 PUSH0 MSTORE PUSH1 0x11 PUSH1 0x4 MSTORE PUSH1 0x24 PUSH0 REVERT JUMPDEST PUSH0 PUSH2 0x16D1 DUP3 PUSH2 0x1001 JUMP JUMPDEST SWAP2 POP PUSH32 0xFFFFFFFFFFFFFFFFFFFFFFFFFFFFFFFFFFFFFFFFFFFFFFFFFFFFFFFFFFFFFFFF DUP3 SUB PUSH2 0x1703 JUMPI PUSH2 0x1702 PUSH2 0x169A JUMP JUMPDEST JUMPDEST PUSH1 0x1 DUP3 ADD SWAP1 POP SWAP2 SWAP1 POP JUMP JUMPDEST PUSH0 DUP2 SWAP1 POP DUP2 PUSH0 MSTORE PUSH1 0x20 PUSH0 KECCAK256 SWAP1 POP SWAP2 SWAP1 POP JUMP JUMPDEST PUSH0 PUSH1 0x20 PUSH1 0x1F DUP4 ADD DIV SWAP1 POP SWAP2 SWAP1 POP JUMP JUMPDEST PUSH0 DUP3 DUP3 SHL SWAP1 POP SWAP3 SWAP2 POP POP JUMP JUMPDEST PUSH0 PUSH1 0x8 DUP4 MUL PUSH2 0x176A PUSH32 0xFFFFFFFFFFFFFFFFFFFFFFFFFFFFFFFFFFFFFFFFFFFFFFFFFFFFFFFFFFFFFFFF DUP3 PUSH2 0x172F JUMP JUMPDEST PUSH2 0x1774 DUP7 DUP4 PUSH2 0x172F JUMP JUMPDEST SWAP6 POP DUP1 NOT DUP5 AND SWAP4 POP DUP1 DUP7 AND DUP5 OR SWAP3 POP POP POP SWAP4 SWAP3 POP POP POP JUMP JUMPDEST PUSH0 DUP2 SWAP1 POP SWAP2 SWAP1 POP JUMP JUMPDEST PUSH0 PUSH2 0x17AF PUSH2 0x17AA PUSH2 0x17A5 DUP5 PUSH2 0x1001 JUMP JUMPDEST PUSH2 0x178C JUMP JUMPDEST PUSH2 0x1001 JUMP JUMPDEST SWAP1 POP SWAP2 SWAP1 POP JUMP JUMPDEST PUSH0 DUP2 SWAP1 POP SWAP2 SWAP1 POP JUMP JUMPDEST PUSH2 0x17C8 DUP4 PUSH2 0x1795 JUMP JUMPDEST PUSH2 0x17DC PUSH2 0x17D4 DUP3 PUSH2 0x17B6 JUMP JUMPDEST DUP5 DUP5 SLOAD PUSH2 0x173B JUMP JUMPDEST DUP3 SSTORE POP POP POP POP JUMP JUMPDEST PUSH0 PUSH0 SWAP1 POP SWAP1 JUMP JUMPDEST PUSH2 0x17F3 PUSH2 0x17E4 JUMP JUMPDEST PUSH2 0x17FE DUP2 DUP5 DUP5 PUSH2 0x17BF JUMP JUMPDEST POP POP POP JUMP JUMPDEST JUMPDEST DUP2 DUP2 LT ISZERO PUSH2 0x1821 JUMPI PUSH2 0x1816 PUSH0 DUP3 PUSH2 0x17EB JUMP JUMPDEST PUSH1 0x1 DUP2 ADD SWAP1 POP PUSH2 0x1804 JUMP JUMPDEST POP POP JUMP JUMPDEST PUSH1 0x1F DUP3 GT ISZERO PUSH2 0x1866 JUMPI PUSH2 0x1837 DUP2 PUSH2 0x170E JUMP JUMPDEST PUSH2 0x1840 DUP5 PUSH2 0x1720 JUMP JUMPDEST DUP2 ADD PUSH1 0x20 DUP6 LT ISZERO PUSH2 0x184F JUMPI DUP2 SWAP1 POP JUMPDEST PUSH2 0x1863 PUSH2 0x185B DUP6 PUSH2 0x1720 JUMP JUMPDEST DUP4 ADD DUP3 PUSH2 0x1803 JUMP JUMPDEST POP POP JUMPDEST POP POP POP JUMP JUMPDEST PUSH0 DUP3 DUP3 SHR SWAP1 POP SWAP3 SWAP2 POP POP JUMP JUMPDEST PUSH0 PUSH2 0x1886 PUSH0 NOT DUP5 PUSH1 0x8 MUL PUSH2 0x186B JUMP JUMPDEST NOT DUP1 DUP4 AND SWAP2 POP POP SWAP3 SWAP2 POP POP JUMP JUMPDEST PUSH0 PUSH2 0x189E DUP4 DUP4 PUSH2 0x1877 JUMP JUMPDEST SWAP2 POP DUP3 PUSH1 0x2 MUL DUP3 OR SWAP1 POP SWAP3 SWAP2 POP POP JUMP JUMPDEST PUSH2 0x18B7 DUP3 PUSH2 0x10AD JUMP JUMPDEST PUSH8 0xFFFFFFFFFFFFFFFF DUP2 GT ISZERO PUSH2 0x18D0 JUMPI PUSH2 0x18CF PUSH2 0x11C9 JUMP JUMPDEST JUMPDEST PUSH2 0x18DA DUP3 SLOAD PUSH2 0x1602 JUMP JUMPDEST PUSH2 0x18E5 DUP3 DUP3 DUP6 PUSH2 0x1825 JUMP JUMPDEST PUSH0 PUSH1 0x20 SWAP1 POP PUSH1 0x1F DUP4 GT PUSH1 0x1 DUP2 EQ PUSH2 0x1916 JUMPI PUSH0 DUP5 ISZERO PUSH2 0x1904 JUMPI DUP3 DUP8 ADD MLOAD SWAP1 POP JUMPDEST PUSH2 0x190E DUP6 DUP3 PUSH2 0x1893 JUMP JUMPDEST DUP7 SSTORE POP PUSH2 0x1975 JUMP JUMPDEST PUSH1 0x1F NOT DUP5 AND PUSH2 0x1924 DUP7 PUSH2 0x170E JUMP JUMPDEST PUSH0 JUMPDEST DUP3 DUP2 LT ISZERO PUSH2 0x194B JUMPI DUP5 DUP10 ADD MLOAD DUP3 SSTORE PUSH1 0x1 DUP3 ADD SWAP2 POP PUSH1 0x20 DUP6 ADD SWAP5 POP PUSH1 0x20 DUP2 ADD SWAP1 POP PUSH2 0x1926 JUMP JUMPDEST DUP7 DUP4 LT ISZERO PUSH2 0x1968 JUMPI DUP5 DUP10 ADD MLOAD PUSH2 0x1964 PUSH1 0x1F DUP10 AND DUP3 PUSH2 0x1877 JUMP JUMPDEST DUP4 SSTORE POP JUMPDEST PUSH1 0x1 PUSH1 0x2 DUP9 MUL ADD DUP9 SSTORE POP POP POP JUMPDEST POP POP POP POP POP POP JUMP JUMPDEST PUSH0 PUSH1 0x40 DUP3 ADD SWAP1 POP DUP2 DUP2 SUB PUSH0 DUP4 ADD MSTORE PUSH2 0x1995 DUP2 DUP6 PUSH2 0x10E5 JUMP JUMPDEST SWAP1 POP PUSH2 0x19A4 PUSH1 0x20 DUP4 ADD DUP5 PUSH2 0x105F JUMP JUMPDEST SWAP4 SWAP3 POP POP POP JUMP JUMPDEST PUSH32 0x4F6E6C79207461736B2063726561746F722063616E2061737369676E20746865 PUSH0 DUP3 ADD MSTORE PUSH32 0x207461736B000000000000000000000000000000000000000000000000000000 PUSH1 0x20 DUP3 ADD MSTORE POP JUMP JUMPDEST PUSH0 PUSH2 0x1A05 PUSH1 0x25 DUP4 PUSH2 0x10B7 JUMP JUMPDEST SWAP2 POP PUSH2 0x1A10 DUP3 PUSH2 0x19AB JUMP JUMPDEST PUSH1 0x40 DUP3 ADD SWAP1 POP SWAP2 SWAP1 POP JUMP JUMPDEST PUSH0 PUSH1 0x20 DUP3 ADD SWAP1 POP DUP2 DUP2 SUB PUSH0 DUP4 ADD MSTORE PUSH2 0x1A32 DUP2 PUSH2 0x19F9 JUMP JUMPDEST SWAP1 POP SWAP2 SWAP1 POP JUMP JUMPDEST PUSH32 0x5461736B20616C72656164792061737369676E65640000000000000000000000 PUSH0 DUP3 ADD MSTORE POP JUMP JUMPDEST PUSH0 PUSH2 0x1A6D PUSH1 0x15 DUP4 PUSH2 0x10B7 JUMP JUMPDEST SWAP2 POP PUSH2 0x1A78 DUP3 PUSH2 0x1A39 JUMP JUMPDEST PUSH1 0x20 DUP3 ADD SWAP1 POP SWAP2 SWAP1 POP JUMP JUMPDEST PUSH0 PUSH1 0x20 DUP3 ADD SWAP1 POP DUP2 DUP2 SUB PUSH0 DUP4 ADD MSTORE PUSH2 0x1A9A DUP2 PUSH2 0x1A61 JUMP JUMPDEST SWAP1 POP SWAP2 SWAP1 POP JUMP JUMPDEST PUSH32 0x4F6E6C792061737369676E6564206368696C642063616E20636F6D706C657465 PUSH0 DUP3 ADD MSTORE PUSH32 0x20746865207461736B0000000000000000000000000000000000000000000000 PUSH1 0x20 DUP3 ADD MSTORE POP JUMP JUMPDEST PUSH0 PUSH2 0x1AFB PUSH1 0x29 DUP4 PUSH2 0x10B7 JUMP JUMPDEST SWAP2 POP PUSH2 0x1B06 DUP3 PUSH2 0x1AA1 JUMP JUMPDEST PUSH1 0x40 DUP3 ADD SWAP1 POP SWAP2 SWAP1 POP JUMP JUMPDEST PUSH0 PUSH1 0x20 DUP3 ADD SWAP1 POP DUP2 DUP2 SUB PUSH0 DUP4 ADD MSTORE PUSH2 0x1B28 DUP2 PUSH2 0x1AEF JUMP JUMPDEST SWAP1 POP SWAP2 SWAP1 POP JUMP JUMPDEST PUSH32 0x5461736B20616C726561647920636F6D706C6574656400000000000000000000 PUSH0 DUP3 ADD MSTORE POP JUMP JUMPDEST PUSH0 PUSH2 0x1B63 PUSH1 0x16 DUP4 PUSH2 0x10B7 JUMP JUMPDEST SWAP2 POP PUSH2 0x1B6E DUP3 PUSH2 0x1B2F JUMP JUMPDEST PUSH1 0x20 DUP3 ADD SWAP1 POP SWAP2 SWAP1 POP JUMP JUMPDEST PUSH0 PUSH1 0x20 DUP3 ADD SWAP1 POP DUP2 DUP2 SUB PUSH0 DUP4 ADD MSTORE PUSH2 0x1B90 DUP2 PUSH2 0x1B57 JUMP JUMPDEST SWAP1 POP SWAP2 SWAP1 POP JUMP INVALID LOG2 PUSH5 0x6970667358 0x22 SLT KECCAK256 0xBD 0xF6 LOG4 SMOD 0xF6 0xC1 PUSH3 0xF390B2 SWAP2 MLOAD 0xD6 0x23 CODESIZE RJUMPI 0x703F COINBASE 0xC1 0xFC 0x4F LOG3 SAR AND DUP8 0xDA 0x24 PUSH13 0x76569A64736F6C634300081E00 CALLER "
				},
				"gasEstimates": {
					"creation": {
						"codeDepositCost": "1423400",
						"executionCost": "30754",
						"totalCost": "1454154"
					},
					"external": {
						"approveTask(uint256)": "infinite",
						"assignTask(uint256,address)": "31005",
						"completeTask(uint256)": "30860",
						"createTask(string,string,uint256)": "infinite",
						"getTask(uint256)": "infinite",
						"owner()": "2552",
						"taskCount()": "2491",
						"tasks(uint256)": "infinite",
						"withdraw()": "infinite"
					}
				},
				"methodIdentifiers": {
					"approveTask(uint256)": "0a07fae6",
					"assignTask(uint256,address)": "5293ee81",
					"completeTask(uint256)": "e1e29558",
					"createTask(string,string,uint256)": "41a4e30a",
					"getTask(uint256)": "1d65e77e",
					"owner()": "8da5cb5b",
					"taskCount()": "b6cb58a5",
					"tasks(uint256)": "8d977672",
					"withdraw()": "3ccfd60b"
				}
			},
			"storageLayout": {
				"storage": [
					{
						"astId": 24,
						"contract": "contracts/solidity/TaskRegistry.sol:TaskRegistry",
						"label": "tasks",
						"offset": 0,
						"slot": "0",
						"type": "t_mapping(t_uint256,t_struct(Task)19_storage)"
					},
					{
						"astId": 27,
						"contract": "contracts/solidity/TaskRegistry.sol:TaskRegistry",
						"label": "taskCount",
						"offset": 0,
						"slot": "1",
						"type": "t_uint256"
					},
					{
						"astId": 29,
						"contract": "contracts/solidity/TaskRegistry.sol:TaskRegistry",
						"label": "owner",
						"offset": 0,
						"slot": "2",
						"type": "t_address"
					}
				],
				"types": {
					"t_address": {
						"encoding": "inplace",
						"label": "address",
						"numberOfBytes": "20"
					},
					"t_bool": {
						"encoding": "inplace",
						"label": "bool",
						"numberOfBytes": "1"
					},
					"t_mapping(t_uint256,t_struct(Task)19_storage)": {
						"encoding": "mapping",
						"key": "t_uint256",
						"label": "mapping(uint256 => struct TaskRegistry.Task)",
						"numberOfBytes": "32",
						"value": "t_struct(Task)19_storage"
					},
					"t_string_storage": {
						"encoding": "bytes",
						"label": "string",
						"numberOfBytes": "32"
					},
					"t_struct(Task)19_storage": {
						"encoding": "inplace",
						"label": "struct TaskRegistry.Task",
						"members": [
							{
								"astId": 4,
								"contract": "contracts/solidity/TaskRegistry.sol:TaskRegistry",
								"label": "id",
								"offset": 0,
								"slot": "0",
								"type": "t_uint256"
							},
							{
								"astId": 6,
								"contract": "contracts/solidity/TaskRegistry.sol:TaskRegistry",
								"label": "creator",
								"offset": 0,
								"slot": "1",
								"type": "t_address"
							},
							{
								"astId": 8,
								"contract": "contracts/solidity/TaskRegistry.sol:TaskRegistry",
								"label": "assignedTo",
								"offset": 0,
								"slot": "2",
								"type": "t_address"
							},
							{
								"astId": 10,
								"contract": "contracts/solidity/TaskRegistry.sol:TaskRegistry",
								"label": "title",
								"offset": 0,
								"slot": "3",
								"type": "t_string_storage"
							},
							{
								"astId": 12,
								"contract": "contracts/solidity/TaskRegistry.sol:TaskRegistry",
								"label": "description",
								"offset": 0,
								"slot": "4",
								"type": "t_string_storage"
							},
							{
								"astId": 14,
								"contract": "contracts/solidity/TaskRegistry.sol:TaskRegistry",
								"label": "reward",
								"offset": 0,
								"slot": "5",
								"type": "t_uint256"
							},
							{
								"astId": 16,
								"contract": "contracts/solidity/TaskRegistry.sol:TaskRegistry",
								"label": "completed",
								"offset": 0,
								"slot": "6",
								"type": "t_bool"
							},
							{
								"astId": 18,
								"contract": "contracts/solidity/TaskRegistry.sol:TaskRegistry",
								"label": "approved",
								"offset": 1,
								"slot": "6",
								"type": "t_bool"
							}
						],
						"numberOfBytes": "224"
					},
					"t_uint256": {
						"encoding": "inplace",
						"label": "uint256",
						"numberOfBytes": "32"
					}
				}
			},
			"userdoc": {
				"kind": "user",
				"methods": {},
				"version": 1
			}
		}
	}
}